{
  "contractName": "PiggyBank",
  "abi": [
    {
      "inputs": [],
      "stateMutability": "nonpayable",
      "type": "constructor"
    },
    {
      "anonymous": false,
      "inputs": [
        {
          "indexed": false,
          "internalType": "uint256",
          "name": "amount",
          "type": "uint256"
        }
      ],
      "name": "Deposit",
      "type": "event"
    },
    {
      "anonymous": false,
      "inputs": [
        {
          "indexed": false,
          "internalType": "uint256",
          "name": "amount",
          "type": "uint256"
        }
      ],
      "name": "Withdraw",
      "type": "event"
    },
    {
      "inputs": [],
      "name": "owner",
      "outputs": [
        {
          "internalType": "address",
          "name": "",
          "type": "address"
        }
      ],
      "stateMutability": "view",
      "type": "function"
    },
    {
      "stateMutability": "payable",
      "type": "receive"
    },
    {
      "inputs": [],
      "name": "getBalance",
      "outputs": [
        {
          "internalType": "uint256",
          "name": "",
          "type": "uint256"
        }
      ],
      "stateMutability": "view",
      "type": "function"
    },
    {
      "inputs": [],
      "name": "withdraw",
      "outputs": [],
      "stateMutability": "nonpayable",
      "type": "function"
    }
  ],
  "bytecode": "0x608060405234801561001057600080fd5b50336000806101000a81548173ffffffffffffffffffffffffffffffffffffffff021916908373ffffffffffffffffffffffffffffffffffffffff16021790555061039f806100606000396000f3fe608060405260043610610055576000357c01000000000000000000000000000000000000000000000000000000009004806312065fe0146100985780633ccfd60b146100c35780638da5cb5b146100da57610093565b36610093577f5b6b431d4476a211bb7d41c20d1aab9ae2321deee0d20be3d9fc9b1093fa6e3d346040516100899190610301565b60405180910390a1005b600080fd5b3480156100a457600080fd5b506100ad610105565b6040516100ba9190610301565b60405180910390f35b3480156100cf57600080fd5b506100d8610129565b005b3480156100e657600080fd5b506100ef61021e565b6040516100fc91906102c6565b60405180910390f35b6000803073ffffffffffffffffffffffffffffffffffffffff163190508091505090565b3373ffffffffffffffffffffffffffffffffffffffff1660008054906101000a900473ffffffffffffffffffffffffffffffffffffffff1673ffffffffffffffffffffffffffffffffffffffff16146101b7576040517f08c379a00000000000000000000000000000000000000000000000000000000081526004016101ae906102e1565b60405180910390fd5b7f4d6ce1e535dbade1c23defba91e23b8f791ce5edc0cc320257a2b364e4e384263073ffffffffffffffffffffffffffffffffffffffff16316040516101fd9190610301565b60405180910390a13373ffffffffffffffffffffffffffffffffffffffff16ff5b60008054906101000a900473ffffffffffffffffffffffffffffffffffffffff1681565b61024b8161032d565b82525050565b600061025e60218361031c565b91507f4f6e6c79206f776e65722063616e2063616c6c20746869732066756e6374696f60008301527f6e000000000000000000000000000000000000000000000000000000000000006020830152604082019050919050565b6102c08161035f565b82525050565b60006020820190506102db6000830184610242565b92915050565b600060208201905081810360008301526102fa81610251565b9050919050565b600060208201905061031660008301846102b7565b92915050565b600082825260208201905092915050565b60006103388261033f565b9050919050565b600073ffffffffffffffffffffffffffffffffffffffff82169050919050565b600081905091905056fea264697066735822122068cb9a65ec08d66d4dc713e536c68eda360945506c3eb6847a1f28a5254d86ce64736f6c63430008000033",
  "immutableReferences": {},
  "source": "// SPDX-License-Identifier: MIT\npragma solidity >=0.4.22 <0.9.0;\n\ncontract PiggyBank {\n\n    address public owner;\n\n    constructor(){\n        owner = msg.sender;\n    }\n\n    event Deposit(uint amount);\n    event Withdraw(uint amount);\n\n    receive() external payable{\n        emit Withdraw(msg.value);\n    }\n\n    function getBalance() external view returns(uint){\n        uint balance;\n        balance = address(this).balance;\n        return balance;\n    }\n\n    function withdraw() external {\n        require(owner == msg.sender, \"Only owner can call this function\");\n        emit Deposit(address(this).balance);\n        selfdestruct(payable(msg.sender));\n    }\n}",
  "sourcePath": "/Users/godspowereze/Documents/Projects/30DaysOfSolidity/Day_3_PiggyBank/contracts/PiggyBank.sol",
  "compiler": {
    "name": "solc",
    "version": "0.8.0+commit.c7dfd78e.Emscripten.clang"
  },
  "schemaVersion": "3.4.3",
  "updatedAt": "2022-01-19T16:27:22.756Z",
  "devdoc": {
    "kind": "dev",
    "methods": {},
    "version": 1
  },
  "userdoc": {
    "kind": "user",
    "methods": {},
    "version": 1
  }
}