{
  "contractName": "Ecommerce",
  "abi": [
    {
      "inputs": [],
      "stateMutability": "nonpayable",
      "type": "constructor"
    },
    {
      "inputs": [],
      "name": "owner",
      "outputs": [
        {
          "internalType": "address",
          "name": "",
          "type": "address"
        }
      ],
      "stateMutability": "view",
      "type": "function"
    },
    {
      "inputs": [
        {
          "internalType": "uint256",
          "name": "",
          "type": "uint256"
        }
      ],
      "name": "productAdded",
      "outputs": [
        {
          "internalType": "bool",
          "name": "",
          "type": "bool"
        }
      ],
      "stateMutability": "view",
      "type": "function"
    },
    {
      "inputs": [],
      "name": "productCount",
      "outputs": [
        {
          "internalType": "uint256",
          "name": "",
          "type": "uint256"
        }
      ],
      "stateMutability": "view",
      "type": "function"
    },
    {
      "inputs": [
        {
          "internalType": "uint256",
          "name": "",
          "type": "uint256"
        }
      ],
      "name": "products",
      "outputs": [
        {
          "internalType": "uint256",
          "name": "id",
          "type": "uint256"
        },
        {
          "internalType": "address",
          "name": "owner",
          "type": "address"
        },
        {
          "internalType": "string",
          "name": "name",
          "type": "string"
        },
        {
          "internalType": "string",
          "name": "description",
          "type": "string"
        },
        {
          "internalType": "uint256",
          "name": "price",
          "type": "uint256"
        }
      ],
      "stateMutability": "view",
      "type": "function"
    },
    {
      "inputs": [
        {
          "internalType": "address",
          "name": "",
          "type": "address"
        }
      ],
      "name": "userAdded",
      "outputs": [
        {
          "internalType": "bool",
          "name": "",
          "type": "bool"
        }
      ],
      "stateMutability": "view",
      "type": "function"
    },
    {
      "inputs": [],
      "name": "userCount",
      "outputs": [
        {
          "internalType": "uint256",
          "name": "",
          "type": "uint256"
        }
      ],
      "stateMutability": "view",
      "type": "function"
    },
    {
      "inputs": [
        {
          "internalType": "address",
          "name": "",
          "type": "address"
        }
      ],
      "name": "users",
      "outputs": [
        {
          "internalType": "string",
          "name": "name",
          "type": "string"
        },
        {
          "internalType": "uint256",
          "name": "age",
          "type": "uint256"
        },
        {
          "internalType": "string",
          "name": "location",
          "type": "string"
        },
        {
          "internalType": "bool",
          "name": "isMerchant",
          "type": "bool"
        }
      ],
      "stateMutability": "view",
      "type": "function"
    },
    {
      "inputs": [
        {
          "internalType": "string",
          "name": "_name",
          "type": "string"
        },
        {
          "internalType": "uint256",
          "name": "_age",
          "type": "uint256"
        },
        {
          "internalType": "string",
          "name": "_location",
          "type": "string"
        },
        {
          "internalType": "bool",
          "name": "_isMerchant",
          "type": "bool"
        }
      ],
      "name": "join",
      "outputs": [],
      "stateMutability": "nonpayable",
      "type": "function"
    },
    {
      "inputs": [
        {
          "internalType": "string",
          "name": "_name",
          "type": "string"
        },
        {
          "internalType": "string",
          "name": "_description",
          "type": "string"
        },
        {
          "internalType": "uint256",
          "name": "_price",
          "type": "uint256"
        }
      ],
      "name": "addProduct",
      "outputs": [],
      "stateMutability": "nonpayable",
      "type": "function"
    },
    {
      "inputs": [
        {
          "internalType": "uint256",
          "name": "_id",
          "type": "uint256"
        }
      ],
      "name": "buyProduct",
      "outputs": [],
      "stateMutability": "payable",
      "type": "function"
    },
    {
      "inputs": [],
      "name": "getBalance",
      "outputs": [
        {
          "internalType": "uint256",
          "name": "",
          "type": "uint256"
        }
      ],
      "stateMutability": "view",
      "type": "function"
    },
    {
      "inputs": [],
      "name": "withdraw",
      "outputs": [],
      "stateMutability": "nonpayable",
      "type": "function"
    }
  ],
  "bytecode": "0x60806040526000600155600060025534801561001a57600080fd5b50336000806101000a81548173ffffffffffffffffffffffffffffffffffffffff021916908373ffffffffffffffffffffffffffffffffffffffff16021790555061174e8061006a6000396000f3fe6080604052600436106100c4576000357c0100000000000000000000000000000000000000000000000000000000900480637acc0b20116100815780637acc0b20146101d95780638642269e1461021a5780638da5cb5b14610236578063a87430ba14610261578063e0f6ef87146102a1578063f28ea1c1146102cc576100c4565b806307973ccf146100c957806312065fe0146100f45780631cfe762f1461011f5780633ccfd60b1461015c578063634c1b37146101735780636bda722b1461019c575b600080fd5b3480156100d557600080fd5b506100de6102f5565b6040516100eb919061142a565b60405180910390f35b34801561010057600080fd5b506101096102fb565b604051610116919061142a565b60405180910390f35b34801561012b57600080fd5b5061014660048036038101906101419190611086565b61031a565b60405161015391906112fc565b60405180910390f35b34801561016857600080fd5b5061017161033a565b005b34801561017f57600080fd5b5061019a60048036038101906101959190610ff3565b610448565b005b3480156101a857600080fd5b506101c360048036038101906101be9190610f4b565b610641565b6040516101d091906112fc565b60405180910390f35b3480156101e557600080fd5b5061020060048036038101906101fb9190611086565b610661565b604051610211959493929190611445565b60405180910390f35b610234600480360381019061022f9190611086565b6107c7565b005b34801561024257600080fd5b5061024b6109db565b60405161025891906112e1565b60405180910390f35b34801561026d57600080fd5b5061028860048036038101906102839190610f4b565b6109ff565b6040516102989493929190611317565b60405180910390f35b3480156102ad57600080fd5b506102b6610b4c565b6040516102c3919061142a565b60405180910390f35b3480156102d857600080fd5b506102f360048036038101906102ee9190610f74565b610b52565b005b60015481565b60003073ffffffffffffffffffffffffffffffffffffffff1631905090565b60066020528060005260406000206000915054906101000a900460ff1681565b3373ffffffffffffffffffffffffffffffffffffffff1660008054906101000a900473ffffffffffffffffffffffffffffffffffffffff1673ffffffffffffffffffffffffffffffffffffffff16146103c8576040517f08c379a00000000000000000000000000000000000000000000000000000000081526004016103bf906113ca565b60405180910390fd5b60008054906101000a900473ffffffffffffffffffffffffffffffffffffffff1673ffffffffffffffffffffffffffffffffffffffff166108fc3073ffffffffffffffffffffffffffffffffffffffff16319081150290604051600060405180830381858888f19350505050158015610445573d6000803e3d6000fd5b50565b60001515600460003373ffffffffffffffffffffffffffffffffffffffff1673ffffffffffffffffffffffffffffffffffffffff16815260200190815260200160002060009054906101000a900460ff161515146104db576040517f08c379a00000000000000000000000000000000000000000000000000000000081526004016104d2906113aa565b60405180910390fd5b60606040518060a00160405280868152602001858152602001848152602001831515815260200182815250600360003373ffffffffffffffffffffffffffffffffffffffff1673ffffffffffffffffffffffffffffffffffffffff1681526020019081526020016000206000820151816000019080519060200190610561929190610db4565b50602082015181600101556040820151816002019080519060200190610588929190610db4565b5060608201518160030160006101000a81548160ff02191690831515021790555060808201518160040190805190602001906105c5929190610e3a565b509050506001600460003373ffffffffffffffffffffffffffffffffffffffff1673ffffffffffffffffffffffffffffffffffffffff16815260200190815260200160002060006101000a81548160ff02191690831515021790555060018060008282546106339190611523565b925050819055505050505050565b60046020528060005260406000206000915054906101000a900460ff1681565b60056020528060005260406000206000915090508060000154908060010160009054906101000a900473ffffffffffffffffffffffffffffffffffffffff16908060020180546106b090611603565b80601f01602080910402602001604051908101604052809291908181526020018280546106dc90611603565b80156107295780601f106106fe57610100808354040283529160200191610729565b820191906000526020600020905b81548152906001019060200180831161070c57829003601f168201915b50505050509080600301805461073e90611603565b80601f016020809104026020016040519081016040528092919081815260200182805461076a90611603565b80156107b75780601f1061078c576101008083540402835291602001916107b7565b820191906000526020600020905b81548152906001019060200180831161079a57829003601f168201915b5050505050908060040154905085565b60011515600460003373ffffffffffffffffffffffffffffffffffffffff1673ffffffffffffffffffffffffffffffffffffffff16815260200190815260200160002060009054906101000a900460ff1615151461085a576040517f08c379a00000000000000000000000000000000000000000000000000000000081526004016108519061136a565b60405180910390fd5b6000600560008381526020019081526020016000209050600115156006600084815260200190815260200160002060009054906101000a900460ff161515146108d8576040517f08c379a00000000000000000000000000000000000000000000000000000000081526004016108cf906113ea565b60405180910390fd5b806004015434101561091f576040517f08c379a00000000000000000000000000000000000000000000000000000000081526004016109169061140a565b60405180910390fd5b60008160010160009054906101000a900473ffffffffffffffffffffffffffffffffffffffff1690508073ffffffffffffffffffffffffffffffffffffffff166108fc83600401549081150290604051600060405180830381858888f19350505050158015610992573d6000803e3d6000fd5b50338260010160006101000a81548173ffffffffffffffffffffffffffffffffffffffff021916908373ffffffffffffffffffffffffffffffffffffffff160217905550505050565b60008054906101000a900473ffffffffffffffffffffffffffffffffffffffff1681565b6003602052806000526040600020600091509050806000018054610a2290611603565b80601f0160208091040260200160405190810160405280929190818152602001828054610a4e90611603565b8015610a9b5780601f10610a7057610100808354040283529160200191610a9b565b820191906000526020600020905b815481529060010190602001808311610a7e57829003601f168201915b505050505090806001015490806002018054610ab690611603565b80601f0160208091040260200160405190810160405280929190818152602001828054610ae290611603565b8015610b2f5780601f10610b0457610100808354040283529160200191610b2f565b820191906000526020600020905b815481529060010190602001808311610b1257829003601f168201915b5050505050908060030160009054906101000a900460ff16905084565b60025481565b60011515600460003373ffffffffffffffffffffffffffffffffffffffff1673ffffffffffffffffffffffffffffffffffffffff16815260200190815260200160002060009054906101000a900460ff16151514610be5576040517f08c379a0000000000000000000000000000000000000000000000000000000008152600401610bdc9061136a565b60405180910390fd5b60011515600360003373ffffffffffffffffffffffffffffffffffffffff1673ffffffffffffffffffffffffffffffffffffffff16815260200190815260200160002060030160009054906101000a900460ff16151514610c7b576040517f08c379a0000000000000000000000000000000000000000000000000000000008152600401610c729061138a565b60405180910390fd5b600160026000828254610c8e9190611523565b925050819055506040518060a0016040528060025481526020013373ffffffffffffffffffffffffffffffffffffffff168152602001848152602001838152602001828152506005600060025481526020019081526020016000206000820151816000015560208201518160010160006101000a81548173ffffffffffffffffffffffffffffffffffffffff021916908373ffffffffffffffffffffffffffffffffffffffff1602179055506040820151816002019080519060200190610d56929190610db4565b506060820151816003019080519060200190610d73929190610db4565b5060808201518160040155905050600160066000600254815260200190815260200160002060006101000a81548160ff021916908315150217905550505050565b828054610dc090611603565b90600052602060002090601f016020900481019282610de25760008555610e29565b82601f10610dfb57805160ff1916838001178555610e29565b82800160010185558215610e29579182015b82811115610e28578251825591602001919060010190610e0d565b5b509050610e369190610e87565b5090565b828054828255906000526020600020908101928215610e76579160200282015b82811115610e75578251825591602001919060010190610e5a565b5b509050610e839190610e87565b5090565b5b80821115610ea0576000816000905550600101610e88565b5090565b6000610eb7610eb2846114d7565b6114a6565b905082815260208101848484011115610ecf57600080fd5b610eda8482856115c1565b509392505050565b600081359050610ef1816116d3565b92915050565b600081359050610f06816116ea565b92915050565b600082601f830112610f1d57600080fd5b8135610f2d848260208601610ea4565b91505092915050565b600081359050610f4581611701565b92915050565b600060208284031215610f5d57600080fd5b6000610f6b84828501610ee2565b91505092915050565b600080600060608486031215610f8957600080fd5b600084013567ffffffffffffffff811115610fa357600080fd5b610faf86828701610f0c565b935050602084013567ffffffffffffffff811115610fcc57600080fd5b610fd886828701610f0c565b9250506040610fe986828701610f36565b9150509250925092565b6000806000806080858703121561100957600080fd5b600085013567ffffffffffffffff81111561102357600080fd5b61102f87828801610f0c565b945050602061104087828801610f36565b935050604085013567ffffffffffffffff81111561105d57600080fd5b61106987828801610f0c565b925050606061107a87828801610ef7565b91505092959194509250565b60006020828403121561109857600080fd5b60006110a684828501610f36565b91505092915050565b6110b881611579565b82525050565b6110c78161158b565b82525050565b60006110d882611507565b6110e28185611512565b93506110f28185602086016115d0565b6110fb816116c2565b840191505092915050565b6000611113601d83611512565b91507f796f7520617265206e6f742061207265676973746572656420757365720000006000830152602082019050919050565b6000611153601f83611512565b91507f4f6e6c79206d65726368616e74732063616e206164642070726f6475637473006000830152602082019050919050565b6000611193601983611512565b91507f557365722063616e2774206265206164646564207477696365000000000000006000830152602082019050919050565b60006111d3602183611512565b91507f4f6e6c79206f776e65722063616e2063616c6c20746869732066756e6374696f60008301527f6e000000000000000000000000000000000000000000000000000000000000006020830152604082019050919050565b6000611239601b83611512565b91507f546869732070726f6475637420646f6573206e6f7420657869737400000000006000830152602082019050919050565b6000611279603083611512565b91507f596f75206469646e27742073656e6420656e6f75676820657468657220746f2060008301527f62757920746869732070726f64756374000000000000000000000000000000006020830152604082019050919050565b6112db816115b7565b82525050565b60006020820190506112f660008301846110af565b92915050565b600060208201905061131160008301846110be565b92915050565b6000608082019050818103600083015261133181876110cd565b905061134060208301866112d2565b818103604083015261135281856110cd565b905061136160608301846110be565b95945050505050565b6000602082019050818103600083015261138381611106565b9050919050565b600060208201905081810360008301526113a381611146565b9050919050565b600060208201905081810360008301526113c381611186565b9050919050565b600060208201905081810360008301526113e3816111c6565b9050919050565b600060208201905081810360008301526114038161122c565b9050919050565b600060208201905081810360008301526114238161126c565b9050919050565b600060208201905061143f60008301846112d2565b92915050565b600060a08201905061145a60008301886112d2565b61146760208301876110af565b818103604083015261147981866110cd565b9050818103606083015261148d81856110cd565b905061149c60808301846112d2565b9695505050505050565b6000604051905081810181811067ffffffffffffffff821117156114cd576114cc611693565b5b8060405250919050565b600067ffffffffffffffff8211156114f2576114f1611693565b5b601f19601f8301169050602081019050919050565b600081519050919050565b600082825260208201905092915050565b600061152e826115b7565b9150611539836115b7565b9250827fffffffffffffffffffffffffffffffffffffffffffffffffffffffffffffffff0382111561156e5761156d611635565b5b828201905092915050565b600061158482611597565b9050919050565b60008115159050919050565b600073ffffffffffffffffffffffffffffffffffffffff82169050919050565b6000819050919050565b82818337600083830152505050565b60005b838110156115ee5780820151818401526020810190506115d3565b838111156115fd576000848401525b50505050565b6000600282049050600182168061161b57607f821691505b6020821081141561162f5761162e611664565b5b50919050565b7f4e487b7100000000000000000000000000000000000000000000000000000000600052601160045260246000fd5b7f4e487b7100000000000000000000000000000000000000000000000000000000600052602260045260246000fd5b7f4e487b7100000000000000000000000000000000000000000000000000000000600052604160045260246000fd5b6000601f19601f8301169050919050565b6116dc81611579565b81146116e757600080fd5b50565b6116f38161158b565b81146116fe57600080fd5b50565b61170a816115b7565b811461171557600080fd5b5056fea26469706673582212202f5cff1ec5ce2b5ed525623fe0fd0492a04200291d3da2b0b4570038bc1962d264736f6c63430008000033",
  "immutableReferences": {},
  "source": "// SPDX-License-Identifier: MIT\npragma solidity >=0.4.22 <0.9.0;\n\ncontract Ecommerce {\n    address public owner;\n\n    constructor(){\n        owner = msg.sender;\n    }\n\n    uint public userCount= 0;\n    uint public productCount= 0;\n\n    struct Product {\n        uint id;\n        address owner;\n        string name;\n        string description;\n        uint price;\n    }\n\n    struct User{\n        string name;\n        uint age;\n        string location;\n        bool isMerchant;\n        uint[] products;\n    }\n\n    mapping(address => User) public users;\n    mapping(address => bool) public userAdded;\n\n    mapping(uint => Product) public products;\n    mapping(uint => bool) public productAdded;\n\n    modifier onlyOwner(){\n        require(owner == msg.sender, \"Only owner can call this function\");\n        _;\n    }\n\n    modifier addUserOnce(){\n        require(userAdded[msg.sender] == false, \"User can't be added twice\");\n        _;\n    }\n\n    modifier addProductOnlyByRegisteredUser(){\n        require(userAdded[msg.sender] == true, \"you are not a registered user\");\n        _;\n    }\n\n    modifier onlyMerchantCanAddProduct(){\n        require(users[msg.sender].isMerchant == true, \"Only merchants can add products\");\n        _;\n    }\n\n    function join(string memory _name, uint _age, string memory _location, bool _isMerchant) external addUserOnce{\n        uint[] memory emptyProductsArray;\n        users[msg.sender] = User({name:_name, location:_location, age:_age, isMerchant:_isMerchant, products:emptyProductsArray});\n        userAdded[msg.sender] = true;\n        userCount += 1;\n    }\n\n    function addProduct(string memory _name, string memory _description, uint _price) external addProductOnlyByRegisteredUser onlyMerchantCanAddProduct{\n        productCount += 1;\n        products[productCount] = Product({name:_name, description:_description, owner:msg.sender, id:productCount, price:_price});\n        productAdded[productCount] = true;\n    }\n\n    function buyProduct(uint _id) external payable addProductOnlyByRegisteredUser{\n        Product storage _product = products[_id];\n        require(productAdded[_id] == true, \"This product does not exist\");\n        require(msg.value >= _product.price, \"You didn't send enough ether to buy this product\");\n        address payable addressOwner = payable(_product.owner);\n        addressOwner.transfer(_product.price);\n        _product.owner = msg.sender;\n    }\n\n    function getBalance() external view returns(uint){\n        return address(this).balance;\n    }\n\n    function withdraw() external onlyOwner{\n        payable(owner).transfer(address(this).balance);\n    }\n }",
  "sourcePath": "/Users/godspowereze/Documents/Projects/30DaysOfSolidity/Day_4_Ecommerce/contracts/Ecommerce.sol",
  "compiler": {
    "name": "solc",
    "version": "0.8.0+commit.c7dfd78e.Emscripten.clang"
  },
  "schemaVersion": "3.4.3",
  "updatedAt": "2022-01-20T21:28:54.940Z",
  "devdoc": {
    "kind": "dev",
    "methods": {},
    "version": 1
  },
  "userdoc": {
    "kind": "user",
    "methods": {},
    "version": 1
  }
}