{
  "contractName": "Ecommerce",
  "abi": [
    {
      "inputs": [],
      "stateMutability": "nonpayable",
      "type": "constructor"
    },
    {
      "anonymous": false,
      "inputs": [
        {
          "indexed": false,
          "internalType": "uint256",
          "name": "id",
          "type": "uint256"
        },
        {
          "indexed": false,
          "internalType": "address",
          "name": "owner",
          "type": "address"
        },
        {
          "indexed": false,
          "internalType": "string",
          "name": "name",
          "type": "string"
        },
        {
          "indexed": false,
          "internalType": "string",
          "name": "description",
          "type": "string"
        },
        {
          "indexed": false,
          "internalType": "uint256",
          "name": "price",
          "type": "uint256"
        }
      ],
      "name": "ProductAdded",
      "type": "event"
    },
    {
      "anonymous": false,
      "inputs": [
        {
          "indexed": false,
          "internalType": "uint256",
          "name": "id",
          "type": "uint256"
        },
        {
          "indexed": false,
          "internalType": "address",
          "name": "newOwner",
          "type": "address"
        },
        {
          "indexed": false,
          "internalType": "string",
          "name": "name",
          "type": "string"
        },
        {
          "indexed": false,
          "internalType": "string",
          "name": "description",
          "type": "string"
        },
        {
          "indexed": false,
          "internalType": "uint256",
          "name": "amountPaid",
          "type": "uint256"
        }
      ],
      "name": "ProductBought",
      "type": "event"
    },
    {
      "anonymous": false,
      "inputs": [
        {
          "indexed": false,
          "internalType": "address",
          "name": "userAddress",
          "type": "address"
        },
        {
          "indexed": false,
          "internalType": "string",
          "name": "name",
          "type": "string"
        },
        {
          "indexed": false,
          "internalType": "bool",
          "name": "isMerchant",
          "type": "bool"
        }
      ],
      "name": "UserAdded",
      "type": "event"
    },
    {
      "inputs": [],
      "name": "owner",
      "outputs": [
        {
          "internalType": "address",
          "name": "",
          "type": "address"
        }
      ],
      "stateMutability": "view",
      "type": "function"
    },
    {
      "inputs": [
        {
          "internalType": "uint256",
          "name": "",
          "type": "uint256"
        }
      ],
      "name": "productAdded",
      "outputs": [
        {
          "internalType": "bool",
          "name": "",
          "type": "bool"
        }
      ],
      "stateMutability": "view",
      "type": "function"
    },
    {
      "inputs": [],
      "name": "productCount",
      "outputs": [
        {
          "internalType": "uint256",
          "name": "",
          "type": "uint256"
        }
      ],
      "stateMutability": "view",
      "type": "function"
    },
    {
      "inputs": [
        {
          "internalType": "uint256",
          "name": "",
          "type": "uint256"
        }
      ],
      "name": "products",
      "outputs": [
        {
          "internalType": "uint256",
          "name": "id",
          "type": "uint256"
        },
        {
          "internalType": "address",
          "name": "owner",
          "type": "address"
        },
        {
          "internalType": "string",
          "name": "name",
          "type": "string"
        },
        {
          "internalType": "string",
          "name": "description",
          "type": "string"
        },
        {
          "internalType": "uint256",
          "name": "price",
          "type": "uint256"
        }
      ],
      "stateMutability": "view",
      "type": "function"
    },
    {
      "inputs": [
        {
          "internalType": "address",
          "name": "",
          "type": "address"
        }
      ],
      "name": "userAdded",
      "outputs": [
        {
          "internalType": "bool",
          "name": "",
          "type": "bool"
        }
      ],
      "stateMutability": "view",
      "type": "function"
    },
    {
      "inputs": [],
      "name": "userCount",
      "outputs": [
        {
          "internalType": "uint256",
          "name": "",
          "type": "uint256"
        }
      ],
      "stateMutability": "view",
      "type": "function"
    },
    {
      "inputs": [
        {
          "internalType": "address",
          "name": "",
          "type": "address"
        }
      ],
      "name": "users",
      "outputs": [
        {
          "internalType": "string",
          "name": "name",
          "type": "string"
        },
        {
          "internalType": "uint256",
          "name": "age",
          "type": "uint256"
        },
        {
          "internalType": "string",
          "name": "location",
          "type": "string"
        },
        {
          "internalType": "bool",
          "name": "isMerchant",
          "type": "bool"
        }
      ],
      "stateMutability": "view",
      "type": "function"
    },
    {
      "inputs": [
        {
          "internalType": "string",
          "name": "_name",
          "type": "string"
        },
        {
          "internalType": "uint256",
          "name": "_age",
          "type": "uint256"
        },
        {
          "internalType": "string",
          "name": "_location",
          "type": "string"
        },
        {
          "internalType": "bool",
          "name": "_isMerchant",
          "type": "bool"
        }
      ],
      "name": "join",
      "outputs": [],
      "stateMutability": "nonpayable",
      "type": "function"
    },
    {
      "inputs": [
        {
          "internalType": "string",
          "name": "_name",
          "type": "string"
        },
        {
          "internalType": "string",
          "name": "_description",
          "type": "string"
        },
        {
          "internalType": "uint256",
          "name": "_price",
          "type": "uint256"
        }
      ],
      "name": "addProduct",
      "outputs": [],
      "stateMutability": "nonpayable",
      "type": "function"
    },
    {
      "inputs": [
        {
          "internalType": "uint256",
          "name": "_id",
          "type": "uint256"
        }
      ],
      "name": "buyProduct",
      "outputs": [],
      "stateMutability": "payable",
      "type": "function"
    },
    {
      "inputs": [],
      "name": "getBalance",
      "outputs": [
        {
          "internalType": "uint256",
          "name": "",
          "type": "uint256"
        }
      ],
      "stateMutability": "view",
      "type": "function"
    },
    {
      "inputs": [],
      "name": "withdraw",
      "outputs": [],
      "stateMutability": "nonpayable",
      "type": "function"
    }
  ],
  "bytecode": "0x60806040526000600155600060025534801561001a57600080fd5b50336000806101000a81548173ffffffffffffffffffffffffffffffffffffffff021916908373ffffffffffffffffffffffffffffffffffffffff1602179055506119b28061006a6000396000f3fe6080604052600436106100c4576000357c0100000000000000000000000000000000000000000000000000000000900480637acc0b20116100815780637acc0b20146101d95780638642269e1461021a5780638da5cb5b14610236578063a87430ba14610261578063e0f6ef87146102a1578063f28ea1c1146102cc576100c4565b806307973ccf146100c957806312065fe0146100f45780631cfe762f1461011f5780633ccfd60b1461015c578063634c1b37146101735780636bda722b1461019c575b600080fd5b3480156100d557600080fd5b506100de6102f5565b6040516100eb9190611618565b60405180910390f35b34801561010057600080fd5b506101096102fb565b6040516101169190611618565b60405180910390f35b34801561012b57600080fd5b50610146600480360381019061014191906111b6565b61031a565b60405161015391906114ea565b60405180910390f35b34801561016857600080fd5b5061017161033a565b005b34801561017f57600080fd5b5061019a60048036038101906101959190611123565b610448565b005b3480156101a857600080fd5b506101c360048036038101906101be919061107b565b61067c565b6040516101d091906114ea565b60405180910390f35b3480156101e557600080fd5b5061020060048036038101906101fb91906111b6565b61069c565b604051610211959493929190611633565b60405180910390f35b610234600480360381019061022f91906111b6565b610802565b005b34801561024257600080fd5b5061024b610a5f565b6040516102589190611491565b60405180910390f35b34801561026d57600080fd5b506102886004803603810190610283919061107b565b610a83565b6040516102989493929190611505565b60405180910390f35b3480156102ad57600080fd5b506102b6610bd0565b6040516102c39190611618565b60405180910390f35b3480156102d857600080fd5b506102f360048036038101906102ee91906110a4565b610bd6565b005b60015481565b60003073ffffffffffffffffffffffffffffffffffffffff1631905090565b60066020528060005260406000206000915054906101000a900460ff1681565b3373ffffffffffffffffffffffffffffffffffffffff1660008054906101000a900473ffffffffffffffffffffffffffffffffffffffff1673ffffffffffffffffffffffffffffffffffffffff16146103c8576040517f08c379a00000000000000000000000000000000000000000000000000000000081526004016103bf906115b8565b60405180910390fd5b60008054906101000a900473ffffffffffffffffffffffffffffffffffffffff1673ffffffffffffffffffffffffffffffffffffffff166108fc3073ffffffffffffffffffffffffffffffffffffffff16319081150290604051600060405180830381858888f19350505050158015610445573d6000803e3d6000fd5b50565b60001515600460003373ffffffffffffffffffffffffffffffffffffffff1673ffffffffffffffffffffffffffffffffffffffff16815260200190815260200160002060009054906101000a900460ff161515146104db576040517f08c379a00000000000000000000000000000000000000000000000000000000081526004016104d290611598565b60405180910390fd5b60606040518060a00160405280868152602001858152602001848152602001831515815260200182815250600360003373ffffffffffffffffffffffffffffffffffffffff1673ffffffffffffffffffffffffffffffffffffffff1681526020019081526020016000206000820151816000019080519060200190610561929190610ee4565b50602082015181600101556040820151816002019080519060200190610588929190610ee4565b5060608201518160030160006101000a81548160ff02191690831515021790555060808201518160040190805190602001906105c5929190610f6a565b509050506001600460003373ffffffffffffffffffffffffffffffffffffffff1673ffffffffffffffffffffffffffffffffffffffff16815260200190815260200160002060006101000a81548160ff02191690831515021790555060018060008282546106339190611787565b925050819055507f8da4d08b660148e3aeec5166e2b51fd9cac5dfac04471806402bea745db272f733868460405161066d939291906114ac565b60405180910390a15050505050565b60046020528060005260406000206000915054906101000a900460ff1681565b60056020528060005260406000206000915090508060000154908060010160009054906101000a900473ffffffffffffffffffffffffffffffffffffffff16908060020180546106eb90611867565b80601f016020809104026020016040519081016040528092919081815260200182805461071790611867565b80156107645780601f1061073957610100808354040283529160200191610764565b820191906000526020600020905b81548152906001019060200180831161074757829003601f168201915b50505050509080600301805461077990611867565b80601f01602080910402602001604051908101604052809291908181526020018280546107a590611867565b80156107f25780601f106107c7576101008083540402835291602001916107f2565b820191906000526020600020905b8154815290600101906020018083116107d557829003601f168201915b5050505050908060040154905085565b60011515600460003373ffffffffffffffffffffffffffffffffffffffff1673ffffffffffffffffffffffffffffffffffffffff16815260200190815260200160002060009054906101000a900460ff16151514610895576040517f08c379a000000000000000000000000000000000000000000000000000000000815260040161088c90611558565b60405180910390fd5b6000600560008381526020019081526020016000209050600115156006600084815260200190815260200160002060009054906101000a900460ff16151514610913576040517f08c379a000000000000000000000000000000000000000000000000000000000815260040161090a906115d8565b60405180910390fd5b806004015434101561095a576040517f08c379a0000000000000000000000000000000000000000000000000000000008152600401610951906115f8565b60405180910390fd5b60008160010160009054906101000a900473ffffffffffffffffffffffffffffffffffffffff1690508073ffffffffffffffffffffffffffffffffffffffff166108fc83600401549081150290604051600060405180830381858888f193505050501580156109cd573d6000803e3d6000fd5b50338260010160006101000a81548173ffffffffffffffffffffffffffffffffffffffff021916908373ffffffffffffffffffffffffffffffffffffffff1602179055507f890198f450cc9eb353b80ba8b1b3f5b52de3394a92d412f8058b8c64d888f10d833384600201856003018660040154604051610a52959493929190611694565b60405180910390a1505050565b60008054906101000a900473ffffffffffffffffffffffffffffffffffffffff1681565b6003602052806000526040600020600091509050806000018054610aa690611867565b80601f0160208091040260200160405190810160405280929190818152602001828054610ad290611867565b8015610b1f5780601f10610af457610100808354040283529160200191610b1f565b820191906000526020600020905b815481529060010190602001808311610b0257829003601f168201915b505050505090806001015490806002018054610b3a90611867565b80601f0160208091040260200160405190810160405280929190818152602001828054610b6690611867565b8015610bb35780601f10610b8857610100808354040283529160200191610bb3565b820191906000526020600020905b815481529060010190602001808311610b9657829003601f168201915b5050505050908060030160009054906101000a900460ff16905084565b60025481565b60011515600460003373ffffffffffffffffffffffffffffffffffffffff1673ffffffffffffffffffffffffffffffffffffffff16815260200190815260200160002060009054906101000a900460ff16151514610c69576040517f08c379a0000000000000000000000000000000000000000000000000000000008152600401610c6090611558565b60405180910390fd5b60011515600360003373ffffffffffffffffffffffffffffffffffffffff1673ffffffffffffffffffffffffffffffffffffffff16815260200190815260200160002060030160009054906101000a900460ff16151514610cff576040517f08c379a0000000000000000000000000000000000000000000000000000000008152600401610cf690611578565b60405180910390fd5b600160026000828254610d129190611787565b925050819055506040518060a0016040528060025481526020013373ffffffffffffffffffffffffffffffffffffffff168152602001848152602001838152602001828152506005600060025481526020019081526020016000206000820151816000015560208201518160010160006101000a81548173ffffffffffffffffffffffffffffffffffffffff021916908373ffffffffffffffffffffffffffffffffffffffff1602179055506040820151816002019080519060200190610dda929190610ee4565b506060820151816003019080519060200190610df7929190610ee4565b5060808201518160040155905050600160066000600254815260200190815260200160002060006101000a81548160ff021916908315150217905550600360003373ffffffffffffffffffffffffffffffffffffffff1673ffffffffffffffffffffffffffffffffffffffff16815260200190815260200160002060040160025490806001815401808255809150506001900390600052602060002001600090919091909150557f52630f3652e7d07b2844e0defb3cdb6dfb6af3139fa6c527ca64cbbc6debe36160025433858585604051610ed7959493929190611633565b60405180910390a1505050565b828054610ef090611867565b90600052602060002090601f016020900481019282610f125760008555610f59565b82601f10610f2b57805160ff1916838001178555610f59565b82800160010185558215610f59579182015b82811115610f58578251825591602001919060010190610f3d565b5b509050610f669190610fb7565b5090565b828054828255906000526020600020908101928215610fa6579160200282015b82811115610fa5578251825591602001919060010190610f8a565b5b509050610fb39190610fb7565b5090565b5b80821115610fd0576000816000905550600101610fb8565b5090565b6000610fe7610fe284611726565b6116f5565b905082815260208101848484011115610fff57600080fd5b61100a848285611825565b509392505050565b60008135905061102181611937565b92915050565b6000813590506110368161194e565b92915050565b600082601f83011261104d57600080fd5b813561105d848260208601610fd4565b91505092915050565b60008135905061107581611965565b92915050565b60006020828403121561108d57600080fd5b600061109b84828501611012565b91505092915050565b6000806000606084860312156110b957600080fd5b600084013567ffffffffffffffff8111156110d357600080fd5b6110df8682870161103c565b935050602084013567ffffffffffffffff8111156110fc57600080fd5b6111088682870161103c565b925050604061111986828701611066565b9150509250925092565b6000806000806080858703121561113957600080fd5b600085013567ffffffffffffffff81111561115357600080fd5b61115f8782880161103c565b945050602061117087828801611066565b935050604085013567ffffffffffffffff81111561118d57600080fd5b6111998782880161103c565b92505060606111aa87828801611027565b91505092959194509250565b6000602082840312156111c857600080fd5b60006111d684828501611066565b91505092915050565b6111e8816117dd565b82525050565b6111f7816117ef565b82525050565b60006112088261176b565b6112128185611776565b9350611222818560208601611834565b61122b81611926565b840191505092915050565b6000815461124381611867565b61124d8186611776565b94506001821660008114611268576001811461127a576112ad565b60ff19831686526020860193506112ad565b61128385611756565b60005b838110156112a557815481890152600182019150602081019050611286565b808801955050505b50505092915050565b60006112c3601d83611776565b91507f796f7520617265206e6f742061207265676973746572656420757365720000006000830152602082019050919050565b6000611303601f83611776565b91507f4f6e6c79206d65726368616e74732063616e206164642070726f6475637473006000830152602082019050919050565b6000611343601983611776565b91507f557365722063616e2774206265206164646564207477696365000000000000006000830152602082019050919050565b6000611383602183611776565b91507f4f6e6c79206f776e65722063616e2063616c6c20746869732066756e6374696f60008301527f6e000000000000000000000000000000000000000000000000000000000000006020830152604082019050919050565b60006113e9601b83611776565b91507f546869732070726f6475637420646f6573206e6f7420657869737400000000006000830152602082019050919050565b6000611429603083611776565b91507f596f75206469646e27742073656e6420656e6f75676820657468657220746f2060008301527f62757920746869732070726f64756374000000000000000000000000000000006020830152604082019050919050565b61148b8161181b565b82525050565b60006020820190506114a660008301846111df565b92915050565b60006060820190506114c160008301866111df565b81810360208301526114d381856111fd565b90506114e260408301846111ee565b949350505050565b60006020820190506114ff60008301846111ee565b92915050565b6000608082019050818103600083015261151f81876111fd565b905061152e6020830186611482565b818103604083015261154081856111fd565b905061154f60608301846111ee565b95945050505050565b60006020820190508181036000830152611571816112b6565b9050919050565b60006020820190508181036000830152611591816112f6565b9050919050565b600060208201905081810360008301526115b181611336565b9050919050565b600060208201905081810360008301526115d181611376565b9050919050565b600060208201905081810360008301526115f1816113dc565b9050919050565b600060208201905081810360008301526116118161141c565b9050919050565b600060208201905061162d6000830184611482565b92915050565b600060a0820190506116486000830188611482565b61165560208301876111df565b818103604083015261166781866111fd565b9050818103606083015261167b81856111fd565b905061168a6080830184611482565b9695505050505050565b600060a0820190506116a96000830188611482565b6116b660208301876111df565b81810360408301526116c88186611236565b905081810360608301526116dc8185611236565b90506116eb6080830184611482565b9695505050505050565b6000604051905081810181811067ffffffffffffffff8211171561171c5761171b6118f7565b5b8060405250919050565b600067ffffffffffffffff821115611741576117406118f7565b5b601f19601f8301169050602081019050919050565b60008190508160005260206000209050919050565b600081519050919050565b600082825260208201905092915050565b60006117928261181b565b915061179d8361181b565b9250827fffffffffffffffffffffffffffffffffffffffffffffffffffffffffffffffff038211156117d2576117d1611899565b5b828201905092915050565b60006117e8826117fb565b9050919050565b60008115159050919050565b600073ffffffffffffffffffffffffffffffffffffffff82169050919050565b6000819050919050565b82818337600083830152505050565b60005b83811015611852578082015181840152602081019050611837565b83811115611861576000848401525b50505050565b6000600282049050600182168061187f57607f821691505b60208210811415611893576118926118c8565b5b50919050565b7f4e487b7100000000000000000000000000000000000000000000000000000000600052601160045260246000fd5b7f4e487b7100000000000000000000000000000000000000000000000000000000600052602260045260246000fd5b7f4e487b7100000000000000000000000000000000000000000000000000000000600052604160045260246000fd5b6000601f19601f8301169050919050565b611940816117dd565b811461194b57600080fd5b50565b611957816117ef565b811461196257600080fd5b50565b61196e8161181b565b811461197957600080fd5b5056fea264697066735822122056bac8585e1fc6729e3a16257bd2f0e34971fc6f86260afcdac7c9508479eb3c64736f6c63430008000033",
  "immutableReferences": {},
  "source": "// SPDX-License-Identifier: MIT\npragma solidity >=0.4.22 <0.9.0;\n\ncontract Ecommerce {\n    address public owner;\n\n    constructor(){\n        owner = msg.sender;\n    }\n\n    uint public userCount= 0;\n    uint public productCount= 0;\n\n    struct Product {\n        uint id;\n        address owner;\n        string name;\n        string description;\n        uint price;\n    }\n\n    struct User{\n        string name;\n        uint age;\n        string location;\n        bool isMerchant;\n        uint[] products;\n    }\n\n    event UserAdded(address userAddress, string name, bool isMerchant);\n    event ProductAdded(uint id, address owner, string name, string description, uint price);\n    event ProductBought(uint id, address newOwner, string name, string description, uint amountPaid);\n\n    mapping(address => User) public users;\n    mapping(address => bool) public userAdded;\n\n    mapping(uint => Product) public products;\n    mapping(uint => bool) public productAdded;\n\n    modifier onlyOwner(){\n        require(owner == msg.sender, \"Only owner can call this function\");\n        _;\n    }\n\n    modifier addUserOnce(){\n        require(userAdded[msg.sender] == false, \"User can't be added twice\");\n        _;\n    }\n\n    modifier addProductOnlyByRegisteredUser(){\n        require(userAdded[msg.sender] == true, \"you are not a registered user\");\n        _;\n    }\n\n    modifier onlyMerchantCanAddProduct(){\n        require(users[msg.sender].isMerchant == true, \"Only merchants can add products\");\n        _;\n    }\n\n    function join(string memory _name, uint _age, string memory _location, bool _isMerchant) external addUserOnce{\n        uint[] memory emptyProductsArray;\n        users[msg.sender] = User({name:_name, location:_location, age:_age, isMerchant:_isMerchant, products:emptyProductsArray});\n        userAdded[msg.sender] = true;\n        userCount += 1;\n        emit UserAdded(msg.sender, _name, _isMerchant);\n    }\n\n    function addProduct(string memory _name, string memory _description, uint _price) external addProductOnlyByRegisteredUser onlyMerchantCanAddProduct{\n        productCount += 1;\n        products[productCount] = Product({name:_name, description:_description, owner:msg.sender, id:productCount, price:_price});\n        productAdded[productCount] = true;\n        users[msg.sender].products.push(productCount);\n        emit ProductAdded(productCount, msg.sender, _name, _description, _price);\n    }\n\n    function buyProduct(uint _id) external payable addProductOnlyByRegisteredUser{\n        Product storage _product = products[_id];\n        require(productAdded[_id] == true, \"This product does not exist\");\n        require(msg.value >= _product.price, \"You didn't send enough ether to buy this product\");\n        address payable addressOwner = payable(_product.owner);\n        addressOwner.transfer(_product.price);\n        _product.owner = msg.sender;\n        emit ProductBought(_id, msg.sender, _product.name, _product.description, _product.price);\n    }\n\n    function getBalance() external view returns(uint){\n        return address(this).balance;\n    }\n\n    function withdraw() external onlyOwner{\n        payable(owner).transfer(address(this).balance);\n    }\n }",
  "sourcePath": "/Users/godspowereze/Documents/Projects/30DaysOfSolidity/Day_4_Ecommerce/contracts/Ecommerce.sol",
  "compiler": {
    "name": "solc",
    "version": "0.8.0+commit.c7dfd78e.Emscripten.clang"
  },
  "schemaVersion": "3.4.3",
  "updatedAt": "2022-01-20T22:43:46.827Z",
  "devdoc": {
    "kind": "dev",
    "methods": {},
    "version": 1
  },
  "userdoc": {
    "kind": "user",
    "methods": {},
    "version": 1
  }
}