{
  "contractName": "Lottery",
  "abi": [
    {
      "inputs": [],
      "stateMutability": "nonpayable",
      "type": "constructor"
    },
    {
      "inputs": [],
      "name": "owner",
      "outputs": [
        {
          "internalType": "address",
          "name": "",
          "type": "address"
        }
      ],
      "stateMutability": "view",
      "type": "function"
    },
    {
      "inputs": [],
      "name": "stakeAmount",
      "outputs": [
        {
          "internalType": "uint256",
          "name": "",
          "type": "uint256"
        }
      ],
      "stateMutability": "view",
      "type": "function"
    },
    {
      "stateMutability": "payable",
      "type": "receive"
    },
    {
      "inputs": [],
      "name": "getPlayers",
      "outputs": [
        {
          "internalType": "address payable[]",
          "name": "",
          "type": "address[]"
        }
      ],
      "stateMutability": "view",
      "type": "function"
    },
    {
      "inputs": [],
      "name": "getBalance",
      "outputs": [
        {
          "internalType": "uint256",
          "name": "",
          "type": "uint256"
        }
      ],
      "stateMutability": "view",
      "type": "function"
    },
    {
      "inputs": [],
      "name": "pickWinner",
      "outputs": [],
      "stateMutability": "nonpayable",
      "type": "function"
    },
    {
      "inputs": [],
      "name": "withdraw",
      "outputs": [],
      "stateMutability": "nonpayable",
      "type": "function"
    }
  ],
  "bytecode": "0x6080604052670de0b6b3a7640000600255600a60035534801561002157600080fd5b50336000806101000a81548173ffffffffffffffffffffffffffffffffffffffff021916908373ffffffffffffffffffffffffffffffffffffffff160217905550610d35806100716000396000f3fe608060405260043610610076576000357c01000000000000000000000000000000000000000000000000000000009004806312065fe0146101b95780633ccfd60b146101e45780635d495aea146101fb57806360c7dc47146102125780638b5b9ccc1461023d5780638da5cb5b14610268576101b4565b366101b4576002543410156100c0576040517f08c379a00000000000000000000000000000000000000000000000000000000081526004016100b790610aee565b60405180910390fd5b60008054906101000a900473ffffffffffffffffffffffffffffffffffffffff1673ffffffffffffffffffffffffffffffffffffffff163373ffffffffffffffffffffffffffffffffffffffff16141561014f576040517f08c379a000000000000000000000000000000000000000000000000000000000815260040161014690610b0e565b60405180910390fd5b6001339080600181540180825580915050600190039060005260206000200160009091909190916101000a81548173ffffffffffffffffffffffffffffffffffffffff021916908373ffffffffffffffffffffffffffffffffffffffff160217905550005b600080fd5b3480156101c557600080fd5b506101ce610293565b6040516101db9190610b4e565b60405180910390f35b3480156101f057600080fd5b506101f96102b2565b005b34801561020757600080fd5b50610210610408565b005b34801561021e57600080fd5b5061022761066a565b6040516102349190610b4e565b60405180910390f35b34801561024957600080fd5b50610252610670565b60405161025f9190610a8c565b60405180910390f35b34801561027457600080fd5b5061027d6106fe565b60405161028a9190610a71565b60405180910390f35b60003073ffffffffffffffffffffffffffffffffffffffff1631905090565b60008054906101000a900473ffffffffffffffffffffffffffffffffffffffff1673ffffffffffffffffffffffffffffffffffffffff163373ffffffffffffffffffffffffffffffffffffffff1614610340576040517f08c379a000000000000000000000000000000000000000000000000000000000815260040161033790610ace565b60405180910390fd5b600060018054905014610388576040517f08c379a000000000000000000000000000000000000000000000000000000000815260040161037f90610b2e565b60405180910390fd5b60008054906101000a900473ffffffffffffffffffffffffffffffffffffffff1673ffffffffffffffffffffffffffffffffffffffff166108fc3073ffffffffffffffffffffffffffffffffffffffff16319081150290604051600060405180830381858888f19350505050158015610405573d6000803e3d6000fd5b50565b60008054906101000a900473ffffffffffffffffffffffffffffffffffffffff1673ffffffffffffffffffffffffffffffffffffffff163373ffffffffffffffffffffffffffffffffffffffff1614610496576040517f08c379a000000000000000000000000000000000000000000000000000000000815260040161048d90610ace565b60405180910390fd5b600a60018054905010156104df576040517f08c379a00000000000000000000000000000000000000000000000000000000081526004016104d690610aae565b60405180910390fd5b6000806003543073ffffffffffffffffffffffffffffffffffffffff16316105079190610bb3565b3073ffffffffffffffffffffffffffffffffffffffff16316105299190610be4565b90506001610535610722565b8154811061056c577f4e487b7100000000000000000000000000000000000000000000000000000000600052603260045260246000fd5b9060005260206000200160009054906101000a900473ffffffffffffffffffffffffffffffffffffffff1691508173ffffffffffffffffffffffffffffffffffffffff166108fc829081150290604051600060405180830381858888f193505050501580156105df573d6000803e3d6000fd5b50600067ffffffffffffffff811115610621577f4e487b7100000000000000000000000000000000000000000000000000000000600052604160045260246000fd5b60405190808252806020026020018201604052801561064f5781602001602082028036833780820191505090505b506001908051906020019061066592919061076d565b505050565b60025481565b606060018054806020026020016040519081016040528092919081815260200182805480156106f457602002820191906000526020600020905b8160009054906101000a900473ffffffffffffffffffffffffffffffffffffffff1673ffffffffffffffffffffffffffffffffffffffff16815260200190600101908083116106aa575b5050505050905090565b60008054906101000a900473ffffffffffffffffffffffffffffffffffffffff1681565b6000600180549050444260018054905060405160200161074493929190610a34565b60405160208183030381529060405280519060200120600190046107689190610c70565b905090565b8280548282559060005260206000209081019282156107e6579160200282015b828111156107e55782518260006101000a81548173ffffffffffffffffffffffffffffffffffffffff021916908373ffffffffffffffffffffffffffffffffffffffff1602179055509160200191906001019061078d565b5b5090506107f391906107f7565b5090565b5b808211156108105760008160009055506001016107f8565b5090565b6000610820838361082c565b60208301905092915050565b61083581610c2a565b82525050565b61084481610c18565b82525050565b600061085582610b79565b61085f8185610b91565b935061086a83610b69565b8060005b8381101561089b5781516108828882610814565b975061088d83610b84565b92505060018101905061086e565b5085935050505092915050565b60006108b5601883610ba2565b91507f506c6179657273206d75737420626520757020746f20313000000000000000006000830152602082019050919050565b60006108f5602183610ba2565b91507f4f6e6c79206f776e65722063616e2063616c6c20746869732066756e6374696f60008301527f6e000000000000000000000000000000000000000000000000000000000000006020830152604082019050919050565b600061095b601383610ba2565b91507f5374616b65206973206e6f7420656e6f756768000000000000000000000000006000830152602082019050919050565b600061099b601683610ba2565b91507f536f727279212041646d696e732063616e20706c6179000000000000000000006000830152602082019050919050565b60006109db601883610ba2565b91507f506c6179657273206c656e677468206d757374206265203000000000000000006000830152602082019050919050565b610a1781610c5c565b82525050565b610a2e610a2982610c5c565b610c66565b82525050565b6000610a408286610a1d565b602082019150610a508285610a1d565b602082019150610a608284610a1d565b602082019150819050949350505050565b6000602082019050610a86600083018461083b565b92915050565b60006020820190508181036000830152610aa6818461084a565b905092915050565b60006020820190508181036000830152610ac7816108a8565b9050919050565b60006020820190508181036000830152610ae7816108e8565b9050919050565b60006020820190508181036000830152610b078161094e565b9050919050565b60006020820190508181036000830152610b278161098e565b9050919050565b60006020820190508181036000830152610b47816109ce565b9050919050565b6000602082019050610b636000830184610a0e565b92915050565b6000819050602082019050919050565b600081519050919050565b6000602082019050919050565b600082825260208201905092915050565b600082825260208201905092915050565b6000610bbe82610c5c565b9150610bc983610c5c565b925082610bd957610bd8610cd0565b5b828204905092915050565b6000610bef82610c5c565b9150610bfa83610c5c565b925082821015610c0d57610c0c610ca1565b5b828203905092915050565b6000610c2382610c3c565b9050919050565b6000610c3582610c3c565b9050919050565b600073ffffffffffffffffffffffffffffffffffffffff82169050919050565b6000819050919050565b6000819050919050565b6000610c7b82610c5c565b9150610c8683610c5c565b925082610c9657610c95610cd0565b5b828206905092915050565b7f4e487b7100000000000000000000000000000000000000000000000000000000600052601160045260246000fd5b7f4e487b7100000000000000000000000000000000000000000000000000000000600052601260045260246000fdfea2646970667358221220c459b88bc2887cc57034344f23f1294274950492f2f7c8bb6e3cdb4cbe30db5e64736f6c63430008000033",
  "immutableReferences": {},
  "source": "// SPDX-License-Identifier: MIT\npragma solidity >=0.4.22 <0.9.0;\n\ncontract Lottery {\n\n    address public owner;\n    address payable[] players;\n    \n    uint public stakeAmount = 1 ether;\n\n    uint ownerPercentage = 10;\n\n    constructor(){\n        owner = msg.sender;\n    }\n\n    modifier stakeIsEnough(){\n        require(msg.value >= stakeAmount, \"Stake is not enough\");\n        _;\n    }\n\n    modifier adminsCantPlay(){\n        require(msg.sender != owner, \"Sorry! Admins can play\");\n        _;\n    }\n\n    modifier onlyOwner(){\n        require(msg.sender == owner, \"Only owner can call this function\");\n        _;\n    }\n\n    modifier upToTenPlayers() {\n        require(players.length >= 10, \"Players must be up to 10\");\n        _;\n    }\n\n    modifier playersLengthMustBeZero() {\n        require(players.length == 0, \"Players length must be 0\");\n        _;\n    }\n    \n    receive() external payable stakeIsEnough adminsCantPlay{\n        players.push(payable(msg.sender));\n    }\n    \n    function getPlayers() external view returns(address payable[] memory){\n        return players;\n    }\n\n    function getBalance() external view returns(uint){\n        return address(this).balance;\n    }\n\n    function generateRandomNumber() internal view returns(uint){\n        return uint(keccak256(abi.encodePacked(block.difficulty, block.timestamp, players.length))) % players.length;\n    }\n\n    function pickWinner() external onlyOwner upToTenPlayers{\n        address payable winner;\n        uint amountSendable = address(this).balance - (address(this).balance/ownerPercentage);\n\n        winner = players[generateRandomNumber()];\n        winner.transfer(amountSendable);\n        players = new address payable[](0);\n    }\n\n    function withdraw() external onlyOwner playersLengthMustBeZero{\n        payable(owner).transfer(address(this).balance);\n    }\n}",
  "sourcePath": "/Users/godspowereze/Documents/Projects/30DaysOfSolidity/Day_6_Lottery/contracts/Lottery.sol",
  "compiler": {
    "name": "solc",
    "version": "0.8.0+commit.c7dfd78e.Emscripten.clang"
  },
  "schemaVersion": "3.4.3",
  "updatedAt": "2022-01-23T05:12:58.887Z",
  "devdoc": {
    "kind": "dev",
    "methods": {},
    "version": 1
  },
  "userdoc": {
    "kind": "user",
    "methods": {},
    "version": 1
  }
}