{
  "contractName": "GuessAWord",
  "abi": [
    {
      "inputs": [],
      "stateMutability": "nonpayable",
      "type": "constructor"
    },
    {
      "inputs": [],
      "name": "correctWord",
      "outputs": [
        {
          "internalType": "bytes32",
          "name": "",
          "type": "bytes32"
        }
      ],
      "stateMutability": "view",
      "type": "function"
    },
    {
      "inputs": [],
      "name": "owner",
      "outputs": [
        {
          "internalType": "address",
          "name": "",
          "type": "address"
        }
      ],
      "stateMutability": "view",
      "type": "function"
    },
    {
      "inputs": [
        {
          "internalType": "string",
          "name": "word",
          "type": "string"
        }
      ],
      "name": "setWord",
      "outputs": [],
      "stateMutability": "nonpayable",
      "type": "function"
    },
    {
      "inputs": [
        {
          "internalType": "string",
          "name": "word",
          "type": "string"
        }
      ],
      "name": "guess",
      "outputs": [
        {
          "internalType": "bool",
          "name": "",
          "type": "bool"
        }
      ],
      "stateMutability": "view",
      "type": "function"
    }
  ],
  "bytecode": "0x608060405234801561001057600080fd5b50336000806101000a81548173ffffffffffffffffffffffffffffffffffffffff021916908373ffffffffffffffffffffffffffffffffffffffff160217905550610558806100606000396000f3fe608060405234801561001057600080fd5b5060043610610069576000357c010000000000000000000000000000000000000000000000000000000090048063424faf2d1461006e5780634eee59b31461008c5780638da5cb5b146100bc578063cd048de6146100da575b600080fd5b6100766100f6565b60405161008391906103a6565b60405180910390f35b6100a660048036038101906100a1919061027a565b6100fc565b6040516100b3919061038b565b60405180910390f35b6100c4610130565b6040516100d19190610370565b60405180910390f35b6100f460048036038101906100ef919061027a565b610154565b005b60015481565b6000600154826040516020016101129190610359565b60405160208183030381529060405280519060200120149050919050565b60008054906101000a900473ffffffffffffffffffffffffffffffffffffffff1681565b3373ffffffffffffffffffffffffffffffffffffffff1660008054906101000a900473ffffffffffffffffffffffffffffffffffffffff1673ffffffffffffffffffffffffffffffffffffffff16146101e2576040517f08c379a00000000000000000000000000000000000000000000000000000000081526004016101d9906103c1565b60405180910390fd5b806040516020016101f39190610359565b6040516020818303038152906040528051906020012060018190555050565b600061022561022084610412565b6103e1565b90508281526020810184848401111561023d57600080fd5b6102488482856104b1565b509392505050565b600082601f83011261026157600080fd5b8135610271848260208601610212565b91505092915050565b60006020828403121561028c57600080fd5b600082013567ffffffffffffffff8111156102a657600080fd5b6102b284828501610250565b91505092915050565b6102c481610469565b82525050565b6102d38161047b565b82525050565b6102e281610487565b82525050565b60006102f382610442565b6102fd818561045e565b935061030d8185602086016104c0565b80840191505092915050565b600061032660158361044d565b91507f596f7520617265206e6f7420746865206f776e657200000000000000000000006000830152602082019050919050565b600061036582846102e8565b915081905092915050565b600060208201905061038560008301846102bb565b92915050565b60006020820190506103a060008301846102ca565b92915050565b60006020820190506103bb60008301846102d9565b92915050565b600060208201905081810360008301526103da81610319565b9050919050565b6000604051905081810181811067ffffffffffffffff82111715610408576104076104f3565b5b8060405250919050565b600067ffffffffffffffff82111561042d5761042c6104f3565b5b601f19601f8301169050602081019050919050565b600081519050919050565b600082825260208201905092915050565b600081905092915050565b600061047482610491565b9050919050565b60008115159050919050565b6000819050919050565b600073ffffffffffffffffffffffffffffffffffffffff82169050919050565b82818337600083830152505050565b60005b838110156104de5780820151818401526020810190506104c3565b838111156104ed576000848401525b50505050565b7f4e487b7100000000000000000000000000000000000000000000000000000000600052604160045260246000fdfea26469706673582212200ff6a19752eb631034261963a4d23f0dfb81737ddc48bc697ce9b3cd3948e47c64736f6c63430008000033",
  "immutableReferences": {},
  "source": "// SPDX-License-Identifier: MIT\npragma solidity >=0.4.22 <0.9.0;\n\ncontract GuessAWord {\n  address public owner;\n  bytes32 public correctWord;\n\n  constructor(){\n      owner = msg.sender;\n  }\n  \n  modifier onlyOwner(){\n      require(owner == msg.sender, \"You are not the owner\");\n      _;\n  }\n\n  function setWord(string memory word) external onlyOwner{\n      correctWord = keccak256(abi.encodePacked(word));\n  }\n  \n  function guess(string memory word) external view returns (bool){\n      return keccak256(abi.encodePacked(word)) == correctWord;\n  }\n\n}\n",
  "sourcePath": "/Users/godspowereze/Documents/Projects/30DaysOfSolidity/Day_5_GuessAWord/contracts/GuessAWord.sol",
  "compiler": {
    "name": "solc",
    "version": "0.8.0+commit.c7dfd78e.Emscripten.clang"
  },
  "schemaVersion": "3.4.3",
  "updatedAt": "2022-01-21T20:05:10.403Z",
  "devdoc": {
    "kind": "dev",
    "methods": {},
    "version": 1
  },
  "userdoc": {
    "kind": "user",
    "methods": {},
    "version": 1
  }
}