{
  "contractName": "Voting",
  "abi": [
    {
      "inputs": [],
      "stateMutability": "nonpayable",
      "type": "constructor"
    },
    {
      "inputs": [],
      "name": "candidateCount",
      "outputs": [
        {
          "internalType": "uint256",
          "name": "",
          "type": "uint256"
        }
      ],
      "stateMutability": "view",
      "type": "function"
    },
    {
      "inputs": [
        {
          "internalType": "address",
          "name": "",
          "type": "address"
        }
      ],
      "name": "candidateInserted",
      "outputs": [
        {
          "internalType": "bool",
          "name": "",
          "type": "bool"
        }
      ],
      "stateMutability": "view",
      "type": "function"
    },
    {
      "inputs": [
        {
          "internalType": "address",
          "name": "",
          "type": "address"
        }
      ],
      "name": "candidates",
      "outputs": [
        {
          "internalType": "uint256",
          "name": "id",
          "type": "uint256"
        },
        {
          "internalType": "string",
          "name": "name",
          "type": "string"
        }
      ],
      "stateMutability": "view",
      "type": "function"
    },
    {
      "inputs": [
        {
          "internalType": "address",
          "name": "",
          "type": "address"
        }
      ],
      "name": "voterInserted",
      "outputs": [
        {
          "internalType": "bool",
          "name": "",
          "type": "bool"
        }
      ],
      "stateMutability": "view",
      "type": "function"
    },
    {
      "inputs": [
        {
          "internalType": "address",
          "name": "",
          "type": "address"
        }
      ],
      "name": "voters",
      "outputs": [
        {
          "internalType": "uint256",
          "name": "id",
          "type": "uint256"
        },
        {
          "internalType": "string",
          "name": "name",
          "type": "string"
        },
        {
          "internalType": "bool",
          "name": "voted",
          "type": "bool"
        }
      ],
      "stateMutability": "view",
      "type": "function"
    },
    {
      "inputs": [],
      "name": "votersCount",
      "outputs": [
        {
          "internalType": "uint256",
          "name": "",
          "type": "uint256"
        }
      ],
      "stateMutability": "view",
      "type": "function"
    },
    {
      "inputs": [
        {
          "internalType": "address",
          "name": "",
          "type": "address"
        }
      ],
      "name": "votes",
      "outputs": [
        {
          "internalType": "uint256",
          "name": "",
          "type": "uint256"
        }
      ],
      "stateMutability": "view",
      "type": "function"
    },
    {
      "inputs": [
        {
          "internalType": "address",
          "name": "_addr",
          "type": "address"
        },
        {
          "internalType": "string",
          "name": "_name",
          "type": "string"
        }
      ],
      "name": "addCandidate",
      "outputs": [],
      "stateMutability": "nonpayable",
      "type": "function"
    },
    {
      "inputs": [
        {
          "internalType": "address",
          "name": "_addr",
          "type": "address"
        },
        {
          "internalType": "string",
          "name": "_name",
          "type": "string"
        }
      ],
      "name": "addVoter",
      "outputs": [],
      "stateMutability": "nonpayable",
      "type": "function"
    },
    {
      "inputs": [
        {
          "internalType": "address",
          "name": "_candidateAddress",
          "type": "address"
        }
      ],
      "name": "vote",
      "outputs": [],
      "stateMutability": "nonpayable",
      "type": "function"
    }
  ],
  "bytecode": "0x60806040526000600155600060025534801561001a57600080fd5b50336000806101000a81548173ffffffffffffffffffffffffffffffffffffffff021916908373ffffffffffffffffffffffffffffffffffffffff1602179055506111548061006a6000396000f3fe608060405234801561001057600080fd5b50600436106100bb576000357c010000000000000000000000000000000000000000000000000000000090048063a3ec138d11610083578063a3ec138d14610177578063a9a981a3146101a9578063ccec2e8d146101c7578063d8bff5a5146101f7578063d9e95a9814610227576100bb565b80632a0fec96146100c05780636dd7d8ea146100f05780638ab66a901461010c57806398c079381461013d5780639a594f061461015b575b600080fd5b6100da60048036038101906100d59190610b5c565b610243565b6040516100e79190610d96565b60405180910390f35b61010a60048036038101906101059190610b5c565b610263565b005b61012660048036038101906101219190610b5c565b610441565b604051610134929190610e6c565b60405180910390f35b6101456104ed565b6040516101529190610e51565b60405180910390f35b61017560048036038101906101709190610b85565b6104f3565b005b610191600480360381019061018c9190610b5c565b610704565b6040516101a093929190610e9c565b60405180910390f35b6101b16107c3565b6040516101be9190610e51565b60405180910390f35b6101e160048036038101906101dc9190610b5c565b6107c9565b6040516101ee9190610d96565b60405180910390f35b610211600480360381019061020c9190610b5c565b6107e9565b60405161021e9190610e51565b60405180910390f35b610241600480360381019061023c9190610b85565b610801565b005b60076020528060005260406000206000915054906101000a900460ff1681565b60011515600760003373ffffffffffffffffffffffffffffffffffffffff1673ffffffffffffffffffffffffffffffffffffffff16815260200190815260200160002060009054906101000a900460ff161515146102f6576040517f08c379a00000000000000000000000000000000000000000000000000000000081526004016102ed90610e11565b60405180910390fd5b6000600660003373ffffffffffffffffffffffffffffffffffffffff1673ffffffffffffffffffffffffffffffffffffffff1681526020019081526020016000209050600015158160020160009054906101000a900460ff16151514610391576040517f08c379a000000000000000000000000000000000000000000000000000000000815260040161038890610dd1565b60405180910390fd5b6001600560008473ffffffffffffffffffffffffffffffffffffffff1673ffffffffffffffffffffffffffffffffffffffff168152602001908152602001600020546103dd9190610f57565b600560008473ffffffffffffffffffffffffffffffffffffffff1673ffffffffffffffffffffffffffffffffffffffff1681526020019081526020016000208190555060018160020160006101000a81548160ff0219169083151502179055505050565b600360205280600052604060002060009150905080600001549080600101805461046a90611037565b80601f016020809104026020016040519081016040528092919081815260200182805461049690611037565b80156104e35780601f106104b8576101008083540402835291602001916104e3565b820191906000526020600020905b8154815290600101906020018083116104c657829003601f168201915b5050505050905082565b60025481565b60008054906101000a900473ffffffffffffffffffffffffffffffffffffffff1673ffffffffffffffffffffffffffffffffffffffff163373ffffffffffffffffffffffffffffffffffffffff1614610581576040517f08c379a000000000000000000000000000000000000000000000000000000000815260040161057890610df1565b60405180910390fd5b60001515600460008473ffffffffffffffffffffffffffffffffffffffff1673ffffffffffffffffffffffffffffffffffffffff16815260200190815260200160002060009054906101000a900460ff16151514610614576040517f08c379a000000000000000000000000000000000000000000000000000000000815260040161060b90610e31565b60405180910390fd5b600180546106229190610f57565b6001819055506040518060400160405280600154815260200182815250600360008473ffffffffffffffffffffffffffffffffffffffff1673ffffffffffffffffffffffffffffffffffffffff1681526020019081526020016000206000820151816000015560208201518160010190805190602001906106a4929190610a3c565b509050506001600460008473ffffffffffffffffffffffffffffffffffffffff1673ffffffffffffffffffffffffffffffffffffffff16815260200190815260200160002060006101000a81548160ff0219169083151502179055505050565b600660205280600052604060002060009150905080600001549080600101805461072d90611037565b80601f016020809104026020016040519081016040528092919081815260200182805461075990611037565b80156107a65780601f1061077b576101008083540402835291602001916107a6565b820191906000526020600020905b81548152906001019060200180831161078957829003601f168201915b5050505050908060020160009054906101000a900460ff16905083565b60015481565b60046020528060005260406000206000915054906101000a900460ff1681565b60056020528060005260406000206000915090505481565b60008054906101000a900473ffffffffffffffffffffffffffffffffffffffff1673ffffffffffffffffffffffffffffffffffffffff163373ffffffffffffffffffffffffffffffffffffffff161461088f576040517f08c379a000000000000000000000000000000000000000000000000000000000815260040161088690610df1565b60405180910390fd5b60001515600760008473ffffffffffffffffffffffffffffffffffffffff1673ffffffffffffffffffffffffffffffffffffffff16815260200190815260200160002060009054906101000a900460ff16151514610922576040517f08c379a000000000000000000000000000000000000000000000000000000000815260040161091990610db1565b60405180910390fd5b60016002546109319190610f57565b6002819055506040518060600160405280600254815260200182815260200160001515815250600660008473ffffffffffffffffffffffffffffffffffffffff1673ffffffffffffffffffffffffffffffffffffffff1681526020019081526020016000206000820151816000015560208201518160010190805190602001906109bc929190610a3c565b5060408201518160020160006101000a81548160ff0219169083151502179055509050506001600760008473ffffffffffffffffffffffffffffffffffffffff1673ffffffffffffffffffffffffffffffffffffffff16815260200190815260200160002060006101000a81548160ff0219169083151502179055505050565b828054610a4890611037565b90600052602060002090601f016020900481019282610a6a5760008555610ab1565b82601f10610a8357805160ff1916838001178555610ab1565b82800160010185558215610ab1579182015b82811115610ab0578251825591602001919060010190610a95565b5b509050610abe9190610ac2565b5090565b5b80821115610adb576000816000905550600101610ac3565b5090565b6000610af2610aed84610f0b565b610eda565b905082815260208101848484011115610b0a57600080fd5b610b15848285610ff5565b509392505050565b600081359050610b2c81611107565b92915050565b600082601f830112610b4357600080fd5b8135610b53848260208601610adf565b91505092915050565b600060208284031215610b6e57600080fd5b6000610b7c84828501610b1d565b91505092915050565b60008060408385031215610b9857600080fd5b6000610ba685828601610b1d565b925050602083013567ffffffffffffffff811115610bc357600080fd5b610bcf85828601610b32565b9150509250929050565b610be281610fbf565b82525050565b6000610bf382610f3b565b610bfd8185610f46565b9350610c0d818560208601611004565b610c16816110f6565b840191505092915050565b6000610c2e601583610f46565b91507f566f746572732063616e277420626520616464656400000000000000000000006000830152602082019050919050565b6000610c6e601483610f46565b91507f596f752063616e277420766f74652074776963650000000000000000000000006000830152602082019050919050565b6000610cae602183610f46565b91507f4f6e6c79206f776e65722063616e2063616c6c20746869732066756e6374696f60008301527f6e000000000000000000000000000000000000000000000000000000000000006020830152604082019050919050565b6000610d14601c83610f46565b91507f596f7520617265206e6f7420616d6f6e672074686520766f74657273000000006000830152602082019050919050565b6000610d54601883610f46565b91507f43616e6469646174652063616e277420626520616464656400000000000000006000830152602082019050919050565b610d9081610feb565b82525050565b6000602082019050610dab6000830184610bd9565b92915050565b60006020820190508181036000830152610dca81610c21565b9050919050565b60006020820190508181036000830152610dea81610c61565b9050919050565b60006020820190508181036000830152610e0a81610ca1565b9050919050565b60006020820190508181036000830152610e2a81610d07565b9050919050565b60006020820190508181036000830152610e4a81610d47565b9050919050565b6000602082019050610e666000830184610d87565b92915050565b6000604082019050610e816000830185610d87565b8181036020830152610e938184610be8565b90509392505050565b6000606082019050610eb16000830186610d87565b8181036020830152610ec38185610be8565b9050610ed26040830184610bd9565b949350505050565b6000604051905081810181811067ffffffffffffffff82111715610f0157610f006110c7565b5b8060405250919050565b600067ffffffffffffffff821115610f2657610f256110c7565b5b601f19601f8301169050602081019050919050565b600081519050919050565b600082825260208201905092915050565b6000610f6282610feb565b9150610f6d83610feb565b9250827fffffffffffffffffffffffffffffffffffffffffffffffffffffffffffffffff03821115610fa257610fa1611069565b5b828201905092915050565b6000610fb882610fcb565b9050919050565b60008115159050919050565b600073ffffffffffffffffffffffffffffffffffffffff82169050919050565b6000819050919050565b82818337600083830152505050565b60005b83811015611022578082015181840152602081019050611007565b83811115611031576000848401525b50505050565b6000600282049050600182168061104f57607f821691505b6020821081141561106357611062611098565b5b50919050565b7f4e487b7100000000000000000000000000000000000000000000000000000000600052601160045260246000fd5b7f4e487b7100000000000000000000000000000000000000000000000000000000600052602260045260246000fd5b7f4e487b7100000000000000000000000000000000000000000000000000000000600052604160045260246000fd5b6000601f19601f8301169050919050565b61111081610fad565b811461111b57600080fd5b5056fea26469706673582212205a18a1990524bf05e85795bd17ce0749f85be33902a9faf6afdc023f71c22baa64736f6c63430008000033",
  "immutableReferences": {},
  "source": "// SPDX-License-Identifier: MIT\npragma solidity >=0.4.22 <0.9.0;\n\ncontract Voting {\n    address owner;\n\n    constructor(){\n        owner = msg.sender;\n    }\n\n    uint public candidateCount = 0;\n\n    uint public votersCount = 0;\n\n    struct Voters{\n        uint id;\n        string name;\n        bool voted;\n    }\n\n    struct Candidate{\n        uint id;\n        string name;\n    }\n\n    mapping(address => Candidate) public candidates;\n    mapping(address => bool) public candidateInserted;\n    mapping(address => uint) public votes;\n\n    mapping(address => Voters) public voters;\n    mapping(address => bool) public voterInserted;\n\n    function addCandidate(address _addr, string memory _name) public{\n        require(msg.sender == owner, \"Only owner can call this function\");\n        require(candidateInserted[_addr] == false, \"Candidate can't be added\");\n        candidateCount = candidateCount + 1;\n        candidates[_addr] = Candidate(candidateCount, _name);\n        candidateInserted[_addr] = true;\n    }\n\n    function addVoter(address _addr, string memory _name) public{\n        require(msg.sender == owner, \"Only owner can call this function\");\n        require(voterInserted[_addr] == false, \"Voters can't be added\");\n        votersCount = votersCount + 1;\n        voters[_addr] = Voters(votersCount, _name, false);\n        voterInserted[_addr] = true;\n    }\n\n    function vote(address _candidateAddress) public{\n        require(voterInserted[msg.sender] == true, \"You are not among the voters\");\n        Voters storage voter = voters[msg.sender];\n        require(voter.voted == false, \"You can't vote twice\");\n        votes[_candidateAddress] = votes[_candidateAddress] + 1;\n        voter.voted = true;\n    }\n\n}",
  "sourcePath": "/Users/godspowereze/Documents/Projects/30DaysOfSolidity/Day_2_Voting/contracts/Voting.sol",
  "compiler": {
    "name": "solc",
    "version": "0.8.0+commit.c7dfd78e.Emscripten.clang"
  },
  "schemaVersion": "3.4.3",
  "updatedAt": "2022-01-19T00:20:12.207Z",
  "devdoc": {
    "kind": "dev",
    "methods": {},
    "version": 1
  },
  "userdoc": {
    "kind": "user",
    "methods": {},
    "version": 1
  }
}