{
  "contractName": "Voting",
  "abi": [
    {
      "inputs": [],
      "stateMutability": "nonpayable",
      "type": "constructor"
    },
    {
      "inputs": [],
      "name": "candidateCount",
      "outputs": [
        {
          "internalType": "uint256",
          "name": "",
          "type": "uint256"
        }
      ],
      "stateMutability": "view",
      "type": "function"
    },
    {
      "inputs": [
        {
          "internalType": "address",
          "name": "",
          "type": "address"
        }
      ],
      "name": "candidateInserted",
      "outputs": [
        {
          "internalType": "bool",
          "name": "",
          "type": "bool"
        }
      ],
      "stateMutability": "view",
      "type": "function"
    },
    {
      "inputs": [
        {
          "internalType": "address",
          "name": "",
          "type": "address"
        }
      ],
      "name": "candidates",
      "outputs": [
        {
          "internalType": "uint256",
          "name": "id",
          "type": "uint256"
        },
        {
          "internalType": "string",
          "name": "name",
          "type": "string"
        }
      ],
      "stateMutability": "view",
      "type": "function"
    },
    {
      "inputs": [
        {
          "internalType": "address",
          "name": "",
          "type": "address"
        }
      ],
      "name": "voterInserted",
      "outputs": [
        {
          "internalType": "bool",
          "name": "",
          "type": "bool"
        }
      ],
      "stateMutability": "view",
      "type": "function"
    },
    {
      "inputs": [
        {
          "internalType": "address",
          "name": "",
          "type": "address"
        }
      ],
      "name": "voters",
      "outputs": [
        {
          "internalType": "uint256",
          "name": "id",
          "type": "uint256"
        },
        {
          "internalType": "string",
          "name": "name",
          "type": "string"
        },
        {
          "internalType": "bool",
          "name": "voted",
          "type": "bool"
        }
      ],
      "stateMutability": "view",
      "type": "function"
    },
    {
      "inputs": [],
      "name": "votersCount",
      "outputs": [
        {
          "internalType": "uint256",
          "name": "",
          "type": "uint256"
        }
      ],
      "stateMutability": "view",
      "type": "function"
    },
    {
      "inputs": [
        {
          "internalType": "address",
          "name": "",
          "type": "address"
        }
      ],
      "name": "votes",
      "outputs": [
        {
          "internalType": "uint256",
          "name": "",
          "type": "uint256"
        }
      ],
      "stateMutability": "view",
      "type": "function"
    },
    {
      "inputs": [
        {
          "internalType": "address",
          "name": "_addr",
          "type": "address"
        },
        {
          "internalType": "string",
          "name": "_name",
          "type": "string"
        }
      ],
      "name": "addCandidate",
      "outputs": [],
      "stateMutability": "nonpayable",
      "type": "function"
    },
    {
      "inputs": [
        {
          "internalType": "address",
          "name": "_addr",
          "type": "address"
        },
        {
          "internalType": "string",
          "name": "_name",
          "type": "string"
        }
      ],
      "name": "addVoter",
      "outputs": [],
      "stateMutability": "nonpayable",
      "type": "function"
    },
    {
      "inputs": [
        {
          "internalType": "address",
          "name": "_candidateAddress",
          "type": "address"
        }
      ],
      "name": "vote",
      "outputs": [],
      "stateMutability": "nonpayable",
      "type": "function"
    }
  ],
  "bytecode": "0x60806040526000600155600060025534801561001a57600080fd5b50336000806101000a81548173ffffffffffffffffffffffffffffffffffffffff021916908373ffffffffffffffffffffffffffffffffffffffff1602179055506110be8061006a6000396000f3fe608060405234801561001057600080fd5b50600436106100bb576000357c010000000000000000000000000000000000000000000000000000000090048063a3ec138d11610083578063a3ec138d14610177578063a9a981a3146101a9578063ccec2e8d146101c7578063d8bff5a5146101f7578063d9e95a9814610227576100bb565b80632a0fec96146100c05780636dd7d8ea146100f05780638ab66a901461010c57806398c079381461013d5780639a594f061461015b575b600080fd5b6100da60048036038101906100d59190610b26565b610243565b6040516100e79190610d20565b60405180910390f35b61010a60048036038101906101059190610b26565b610263565b005b61012660048036038101906101219190610b26565b61040b565b604051610134929190610dd6565b60405180910390f35b6101456104b7565b6040516101529190610dbb565b60405180910390f35b61017560048036038101906101709190610b4f565b6104bd565b005b610191600480360381019061018c9190610b26565b6106ce565b6040516101a093929190610e06565b60405180910390f35b6101b161078d565b6040516101be9190610dbb565b60405180910390f35b6101e160048036038101906101dc9190610b26565b610793565b6040516101ee9190610d20565b60405180910390f35b610211600480360381019061020c9190610b26565b6107b3565b60405161021e9190610dbb565b60405180910390f35b610241600480360381019061023c9190610b4f565b6107cb565b005b60076020528060005260406000206000915054906101000a900460ff1681565b60011515600760003373ffffffffffffffffffffffffffffffffffffffff1673ffffffffffffffffffffffffffffffffffffffff16815260200190815260200160002060009054906101000a900460ff161515146102c057600080fd5b6000600660003373ffffffffffffffffffffffffffffffffffffffff1673ffffffffffffffffffffffffffffffffffffffff1681526020019081526020016000209050600015158160020160009054906101000a900460ff1615151461035b576040517f08c379a000000000000000000000000000000000000000000000000000000000815260040161035290610d5b565b60405180910390fd5b6001600560008473ffffffffffffffffffffffffffffffffffffffff1673ffffffffffffffffffffffffffffffffffffffff168152602001908152602001600020546103a79190610ec1565b600560008473ffffffffffffffffffffffffffffffffffffffff1673ffffffffffffffffffffffffffffffffffffffff1681526020019081526020016000208190555060018160020160006101000a81548160ff0219169083151502179055505050565b600360205280600052604060002060009150905080600001549080600101805461043490610fa1565b80601f016020809104026020016040519081016040528092919081815260200182805461046090610fa1565b80156104ad5780601f10610482576101008083540402835291602001916104ad565b820191906000526020600020905b81548152906001019060200180831161049057829003601f168201915b5050505050905082565b60025481565b60008054906101000a900473ffffffffffffffffffffffffffffffffffffffff1673ffffffffffffffffffffffffffffffffffffffff163373ffffffffffffffffffffffffffffffffffffffff161461054b576040517f08c379a000000000000000000000000000000000000000000000000000000000815260040161054290610d7b565b60405180910390fd5b60001515600460008473ffffffffffffffffffffffffffffffffffffffff1673ffffffffffffffffffffffffffffffffffffffff16815260200190815260200160002060009054906101000a900460ff161515146105de576040517f08c379a00000000000000000000000000000000000000000000000000000000081526004016105d590610d9b565b60405180910390fd5b600180546105ec9190610ec1565b6001819055506040518060400160405280600154815260200182815250600360008473ffffffffffffffffffffffffffffffffffffffff1673ffffffffffffffffffffffffffffffffffffffff16815260200190815260200160002060008201518160000155602082015181600101908051906020019061066e929190610a06565b509050506001600460008473ffffffffffffffffffffffffffffffffffffffff1673ffffffffffffffffffffffffffffffffffffffff16815260200190815260200160002060006101000a81548160ff0219169083151502179055505050565b60066020528060005260406000206000915090508060000154908060010180546106f790610fa1565b80601f016020809104026020016040519081016040528092919081815260200182805461072390610fa1565b80156107705780601f1061074557610100808354040283529160200191610770565b820191906000526020600020905b81548152906001019060200180831161075357829003601f168201915b5050505050908060020160009054906101000a900460ff16905083565b60015481565b60046020528060005260406000206000915054906101000a900460ff1681565b60056020528060005260406000206000915090505481565b60008054906101000a900473ffffffffffffffffffffffffffffffffffffffff1673ffffffffffffffffffffffffffffffffffffffff163373ffffffffffffffffffffffffffffffffffffffff1614610859576040517f08c379a000000000000000000000000000000000000000000000000000000000815260040161085090610d7b565b60405180910390fd5b60001515600760008473ffffffffffffffffffffffffffffffffffffffff1673ffffffffffffffffffffffffffffffffffffffff16815260200190815260200160002060009054906101000a900460ff161515146108ec576040517f08c379a00000000000000000000000000000000000000000000000000000000081526004016108e390610d3b565b60405180910390fd5b60016002546108fb9190610ec1565b6002819055506040518060600160405280600254815260200182815260200160001515815250600660008473ffffffffffffffffffffffffffffffffffffffff1673ffffffffffffffffffffffffffffffffffffffff168152602001908152602001600020600082015181600001556020820151816001019080519060200190610986929190610a06565b5060408201518160020160006101000a81548160ff0219169083151502179055509050506001600760008473ffffffffffffffffffffffffffffffffffffffff1673ffffffffffffffffffffffffffffffffffffffff16815260200190815260200160002060006101000a81548160ff0219169083151502179055505050565b828054610a1290610fa1565b90600052602060002090601f016020900481019282610a345760008555610a7b565b82601f10610a4d57805160ff1916838001178555610a7b565b82800160010185558215610a7b579182015b82811115610a7a578251825591602001919060010190610a5f565b5b509050610a889190610a8c565b5090565b5b80821115610aa5576000816000905550600101610a8d565b5090565b6000610abc610ab784610e75565b610e44565b905082815260208101848484011115610ad457600080fd5b610adf848285610f5f565b509392505050565b600081359050610af681611071565b92915050565b600082601f830112610b0d57600080fd5b8135610b1d848260208601610aa9565b91505092915050565b600060208284031215610b3857600080fd5b6000610b4684828501610ae7565b91505092915050565b60008060408385031215610b6257600080fd5b6000610b7085828601610ae7565b925050602083013567ffffffffffffffff811115610b8d57600080fd5b610b9985828601610afc565b9150509250929050565b610bac81610f29565b82525050565b6000610bbd82610ea5565b610bc78185610eb0565b9350610bd7818560208601610f6e565b610be081611060565b840191505092915050565b6000610bf8601583610eb0565b91507f566f746572732063616e277420626520616464656400000000000000000000006000830152602082019050919050565b6000610c38601483610eb0565b91507f596f752063616e277420766f74652074776963650000000000000000000000006000830152602082019050919050565b6000610c78602183610eb0565b91507f4f6e6c79206f776e65722063616e2063616c6c20746869732066756e6374696f60008301527f6e000000000000000000000000000000000000000000000000000000000000006020830152604082019050919050565b6000610cde601883610eb0565b91507f43616e6469646174652063616e277420626520616464656400000000000000006000830152602082019050919050565b610d1a81610f55565b82525050565b6000602082019050610d356000830184610ba3565b92915050565b60006020820190508181036000830152610d5481610beb565b9050919050565b60006020820190508181036000830152610d7481610c2b565b9050919050565b60006020820190508181036000830152610d9481610c6b565b9050919050565b60006020820190508181036000830152610db481610cd1565b9050919050565b6000602082019050610dd06000830184610d11565b92915050565b6000604082019050610deb6000830185610d11565b8181036020830152610dfd8184610bb2565b90509392505050565b6000606082019050610e1b6000830186610d11565b8181036020830152610e2d8185610bb2565b9050610e3c6040830184610ba3565b949350505050565b6000604051905081810181811067ffffffffffffffff82111715610e6b57610e6a611031565b5b8060405250919050565b600067ffffffffffffffff821115610e9057610e8f611031565b5b601f19601f8301169050602081019050919050565b600081519050919050565b600082825260208201905092915050565b6000610ecc82610f55565b9150610ed783610f55565b9250827fffffffffffffffffffffffffffffffffffffffffffffffffffffffffffffffff03821115610f0c57610f0b610fd3565b5b828201905092915050565b6000610f2282610f35565b9050919050565b60008115159050919050565b600073ffffffffffffffffffffffffffffffffffffffff82169050919050565b6000819050919050565b82818337600083830152505050565b60005b83811015610f8c578082015181840152602081019050610f71565b83811115610f9b576000848401525b50505050565b60006002820490506001821680610fb957607f821691505b60208210811415610fcd57610fcc611002565b5b50919050565b7f4e487b7100000000000000000000000000000000000000000000000000000000600052601160045260246000fd5b7f4e487b7100000000000000000000000000000000000000000000000000000000600052602260045260246000fd5b7f4e487b7100000000000000000000000000000000000000000000000000000000600052604160045260246000fd5b6000601f19601f8301169050919050565b61107a81610f17565b811461108557600080fd5b5056fea2646970667358221220c216d6a04e76f7313be7ae58cb8f7fe60d0a09520405eaf0e9d87c844de4e26f64736f6c63430008000033",
  "immutableReferences": {},
  "source": "// SPDX-License-Identifier: MIT\npragma solidity >=0.4.22 <0.9.0;\n\ncontract Voting {\n    address owner;\n\n    constructor(){\n        owner = msg.sender;\n    }\n\n    uint public candidateCount = 0;\n\n    uint public votersCount = 0;\n\n    struct Voters{\n        uint id;\n        string name;\n        bool voted;\n    }\n\n    struct Candidate{\n        uint id;\n        string name;\n    }\n\n    mapping(address => Candidate) public candidates;\n    mapping(address => bool) public candidateInserted;\n    mapping(address => uint) public votes;\n\n    mapping(address => Voters) public voters;\n    mapping(address => bool) public voterInserted;\n\n    function addCandidate(address _addr, string memory _name) public{\n        require(msg.sender == owner, \"Only owner can call this function\");\n        require(candidateInserted[_addr] == false, \"Candidate can't be added\");\n        candidateCount = candidateCount + 1;\n        candidates[_addr] = Candidate(candidateCount, _name);\n        candidateInserted[_addr] = true;\n    }\n\n    function addVoter(address _addr, string memory _name) public{\n        require(msg.sender == owner, \"Only owner can call this function\");\n        require(voterInserted[_addr] == false, \"Voters can't be added\");\n        votersCount = votersCount + 1;\n        voters[_addr] = Voters(votersCount, _name, false);\n        voterInserted[_addr] = true;\n    }\n\n    function vote(address _candidateAddress) public{\n        require(voterInserted[msg.sender] == true);\n        Voters storage voter = voters[msg.sender];\n        require(voter.voted == false, \"You can't vote twice\");\n        votes[_candidateAddress] = votes[_candidateAddress] + 1;\n        voter.voted = true;\n    }\n\n}",
  "sourcePath": "/Users/godspowereze/Documents/Projects/30DaysOfSolidity/Day_2_Voting/contracts/Voting.sol",
  "compiler": {
    "name": "solc",
    "version": "0.8.0+commit.c7dfd78e.Emscripten.clang"
  },
  "schemaVersion": "3.4.3",
  "updatedAt": "2022-01-18T20:10:01.582Z",
  "devdoc": {
    "kind": "dev",
    "methods": {},
    "version": 1
  },
  "userdoc": {
    "kind": "user",
    "methods": {},
    "version": 1
  }
}