{
  "contractName": "Crowdfunding",
  "abi": [
    {
      "inputs": [],
      "stateMutability": "nonpayable",
      "type": "constructor"
    },
    {
      "anonymous": false,
      "inputs": [
        {
          "indexed": false,
          "internalType": "address",
          "name": "owner",
          "type": "address"
        },
        {
          "indexed": false,
          "internalType": "string",
          "name": "title",
          "type": "string"
        },
        {
          "indexed": false,
          "internalType": "string",
          "name": "description",
          "type": "string"
        },
        {
          "indexed": false,
          "internalType": "uint256",
          "name": "target",
          "type": "uint256"
        }
      ],
      "name": "FundRaiserCreated",
      "type": "event"
    },
    {
      "anonymous": false,
      "inputs": [
        {
          "indexed": false,
          "internalType": "address",
          "name": "sender",
          "type": "address"
        },
        {
          "indexed": false,
          "internalType": "uint256",
          "name": "amountSent",
          "type": "uint256"
        },
        {
          "indexed": false,
          "internalType": "uint256",
          "name": "fundId",
          "type": "uint256"
        },
        {
          "indexed": false,
          "internalType": "string",
          "name": "fundTitle",
          "type": "string"
        }
      ],
      "name": "Funded",
      "type": "event"
    },
    {
      "anonymous": false,
      "inputs": [
        {
          "indexed": false,
          "internalType": "address",
          "name": "owner",
          "type": "address"
        },
        {
          "indexed": false,
          "internalType": "uint256",
          "name": "amount",
          "type": "uint256"
        },
        {
          "indexed": false,
          "internalType": "uint256",
          "name": "fundRaiserId",
          "type": "uint256"
        },
        {
          "indexed": false,
          "internalType": "string",
          "name": "fundTitle",
          "type": "string"
        }
      ],
      "name": "Redeemed",
      "type": "event"
    },
    {
      "anonymous": false,
      "inputs": [
        {
          "indexed": false,
          "internalType": "address",
          "name": "user",
          "type": "address"
        }
      ],
      "name": "UserAdded",
      "type": "event"
    },
    {
      "inputs": [
        {
          "internalType": "address",
          "name": "",
          "type": "address"
        }
      ],
      "name": "donations",
      "outputs": [
        {
          "internalType": "uint256",
          "name": "",
          "type": "uint256"
        }
      ],
      "stateMutability": "view",
      "type": "function"
    },
    {
      "inputs": [],
      "name": "donationsCount",
      "outputs": [
        {
          "internalType": "uint256",
          "name": "",
          "type": "uint256"
        }
      ],
      "stateMutability": "view",
      "type": "function"
    },
    {
      "inputs": [
        {
          "internalType": "uint256",
          "name": "",
          "type": "uint256"
        }
      ],
      "name": "fundsRaiserAdded",
      "outputs": [
        {
          "internalType": "bool",
          "name": "",
          "type": "bool"
        }
      ],
      "stateMutability": "view",
      "type": "function"
    },
    {
      "inputs": [
        {
          "internalType": "uint256",
          "name": "",
          "type": "uint256"
        }
      ],
      "name": "fundsRaisers",
      "outputs": [
        {
          "internalType": "address",
          "name": "owner",
          "type": "address"
        },
        {
          "internalType": "string",
          "name": "title",
          "type": "string"
        },
        {
          "internalType": "string",
          "name": "description",
          "type": "string"
        },
        {
          "internalType": "uint256",
          "name": "target",
          "type": "uint256"
        },
        {
          "internalType": "uint256",
          "name": "amountRaised",
          "type": "uint256"
        },
        {
          "internalType": "bool",
          "name": "targetReached",
          "type": "bool"
        },
        {
          "internalType": "bool",
          "name": "redeemed",
          "type": "bool"
        }
      ],
      "stateMutability": "view",
      "type": "function"
    },
    {
      "inputs": [
        {
          "internalType": "address",
          "name": "",
          "type": "address"
        }
      ],
      "name": "userAdded",
      "outputs": [
        {
          "internalType": "bool",
          "name": "",
          "type": "bool"
        }
      ],
      "stateMutability": "view",
      "type": "function"
    },
    {
      "inputs": [
        {
          "internalType": "address",
          "name": "",
          "type": "address"
        }
      ],
      "name": "users",
      "outputs": [
        {
          "internalType": "uint256",
          "name": "",
          "type": "uint256"
        }
      ],
      "stateMutability": "view",
      "type": "function"
    },
    {
      "inputs": [],
      "name": "join",
      "outputs": [],
      "stateMutability": "nonpayable",
      "type": "function"
    },
    {
      "inputs": [
        {
          "internalType": "string",
          "name": "_title",
          "type": "string"
        },
        {
          "internalType": "string",
          "name": "_desc",
          "type": "string"
        },
        {
          "internalType": "uint256",
          "name": "target",
          "type": "uint256"
        }
      ],
      "name": "startFundRaiser",
      "outputs": [],
      "stateMutability": "nonpayable",
      "type": "function"
    },
    {
      "inputs": [
        {
          "internalType": "uint256",
          "name": "_id",
          "type": "uint256"
        }
      ],
      "name": "fund",
      "outputs": [],
      "stateMutability": "payable",
      "type": "function"
    },
    {
      "inputs": [
        {
          "internalType": "uint256",
          "name": "_fundRaiserId",
          "type": "uint256"
        }
      ],
      "name": "redeemFunds",
      "outputs": [],
      "stateMutability": "nonpayable",
      "type": "function"
    },
    {
      "inputs": [],
      "name": "getBalance",
      "outputs": [
        {
          "internalType": "uint256",
          "name": "",
          "type": "uint256"
        }
      ],
      "stateMutability": "view",
      "type": "function"
    },
    {
      "inputs": [],
      "name": "withdrawFromContract",
      "outputs": [],
      "stateMutability": "nonpayable",
      "type": "function"
    }
  ],
  "bytecode": "0x608060405260006003556000600555600060085534801561001f57600080fd5b50336000806101000a81548173ffffffffffffffffffffffffffffffffffffffff021916908373ffffffffffffffffffffffffffffffffffffffff160217905550611ab78061006f6000396000f3fe6080604052600436106100c4576000357c010000000000000000000000000000000000000000000000000000000090048063a87430ba11610081578063a87430ba146101f3578063b688a36314610230578063bc07b77914610247578063bdb598f114610270578063ca1d209d14610299578063cc6cb19a146102b5576100c4565b806304f67234146100c957806312065fe01461010c5780631f5225951461013757806329987cfb146101625780635f589e421461019f5780636bda722b146101b6575b600080fd5b3480156100d557600080fd5b506100f060048036038101906100eb91906110cf565b6102f2565b6040516101039796959493929190611553565b60405180910390f35b34801561011857600080fd5b5061012161047e565b60405161012e9190611757565b60405180910390f35b34801561014357600080fd5b5061014c61049d565b6040516101599190611757565b60405180910390f35b34801561016e57600080fd5b50610189600480360381019061018491906110cf565b6104a3565b604051610196919061161c565b60405180910390f35b3480156101ab57600080fd5b506101b46104c3565b005b3480156101c257600080fd5b506101dd60048036038101906101d89190611027565b610617565b6040516101ea919061161c565b60405180910390f35b3480156101ff57600080fd5b5061021a60048036038101906102159190611027565b610637565b6040516102279190611757565b60405180910390f35b34801561023c57600080fd5b5061024561064f565b005b34801561025357600080fd5b5061026e600480360381019061026991906110cf565b6107d3565b005b34801561027c57600080fd5b5061029760048036038101906102929190611050565b610ab2565b005b6102b360048036038101906102ae91906110cf565b610d05565b005b3480156102c157600080fd5b506102dc60048036038101906102d79190611027565b610eda565b6040516102e99190611757565b60405180910390f35b60066020528060005260406000206000915090508060000160009054906101000a900473ffffffffffffffffffffffffffffffffffffffff169080600101805461033b90611954565b80601f016020809104026020016040519081016040528092919081815260200182805461036790611954565b80156103b45780601f10610389576101008083540402835291602001916103b4565b820191906000526020600020905b81548152906001019060200180831161039757829003601f168201915b5050505050908060020180546103c990611954565b80601f01602080910402602001604051908101604052809291908181526020018280546103f590611954565b80156104425780601f1061041757610100808354040283529160200191610442565b820191906000526020600020905b81548152906001019060200180831161042557829003601f168201915b5050505050908060030154908060040154908060050160009054906101000a900460ff16908060050160019054906101000a900460ff16905087565b60003073ffffffffffffffffffffffffffffffffffffffff1631905090565b60055481565b60076020528060005260406000206000915054906101000a900460ff1681565b60008054906101000a900473ffffffffffffffffffffffffffffffffffffffff1673ffffffffffffffffffffffffffffffffffffffff163373ffffffffffffffffffffffffffffffffffffffff1614610551576040517f08c379a000000000000000000000000000000000000000000000000000000000815260040161054890611697565b60405180910390fd5b60003373ffffffffffffffffffffffffffffffffffffffff163073ffffffffffffffffffffffffffffffffffffffff163160405161058e906114d0565b60006040518083038185875af1925050503d80600081146105cb576040519150601f19603f3d011682016040523d82523d6000602084013e6105d0565b606091505b5050905080610614576040517f08c379a000000000000000000000000000000000000000000000000000000000815260040161060b906116b7565b60405180910390fd5b50565b60026020528060005260406000206000915054906101000a900460ff1681565b60016020528060005260406000206000915090505481565b60001515600260003373ffffffffffffffffffffffffffffffffffffffff1673ffffffffffffffffffffffffffffffffffffffff16815260200190815260200160002060009054906101000a900460ff161515146106e2576040517f08c379a00000000000000000000000000000000000000000000000000000000081526004016106d9906116f7565b60405180910390fd5b6001600360008282546106f5919061180f565b92505081905550600354600160003373ffffffffffffffffffffffffffffffffffffffff1673ffffffffffffffffffffffffffffffffffffffff168152602001908152602001600020819055506001600260003373ffffffffffffffffffffffffffffffffffffffff1673ffffffffffffffffffffffffffffffffffffffff16815260200190815260200160002060006101000a81548160ff0219169083151502179055507f19ef9a4877199f89440a26acb26895ec02ed86f2df1aeaa90dc18041b892f71f336040516107c991906114e5565b60405180910390a1565b6007600082815260200190815260200160002060009054906101000a900460ff16610833576040517f08c379a000000000000000000000000000000000000000000000000000000000815260040161082a90611637565b60405180910390fd5b60006006600083815260200190815260200160002090508060000160009054906101000a900473ffffffffffffffffffffffffffffffffffffffff1673ffffffffffffffffffffffffffffffffffffffff163373ffffffffffffffffffffffffffffffffffffffff16146108dc576040517f08c379a00000000000000000000000000000000000000000000000000000000081526004016108d390611677565b60405180910390fd5b8060050160009054906101000a900460ff1661092d576040517f08c379a000000000000000000000000000000000000000000000000000000000815260040161092490611717565b60405180910390fd5b8060050160019054906101000a900460ff161561097f576040517f08c379a000000000000000000000000000000000000000000000000000000000815260040161097690611657565b60405180910390fd5b6000600a82600401546109929190611865565b82600401546109a19190611896565b905060003373ffffffffffffffffffffffffffffffffffffffff16826040516109c9906114d0565b60006040518083038185875af1925050503d8060008114610a06576040519150601f19603f3d011682016040523d82523d6000602084013e610a0b565b606091505b5050905080610a4f576040517f08c379a0000000000000000000000000000000000000000000000000000000008152600401610a46906116b7565b60405180910390fd5b60018360050160016101000a81548160ff0219169083151502179055507f1808b841eb16c14c59b7f58642fb214dc5a2fe88a2844142a9b1cc36aa9e3d0c33838686600101604051610aa494939291906115d0565b60405180910390a150505050565b600260003373ffffffffffffffffffffffffffffffffffffffff1673ffffffffffffffffffffffffffffffffffffffff16815260200190815260200160002060009054906101000a900460ff16610b3e576040517f08c379a0000000000000000000000000000000000000000000000000000000008152600401610b35906116d7565b60405180910390fd5b600160086000828254610b51919061180f565b925050819055506040518060e001604052803373ffffffffffffffffffffffffffffffffffffffff168152602001848152602001838152602001828152602001600081526020016000151581526020016000151581525060066000600854815260200190815260200160002060008201518160000160006101000a81548173ffffffffffffffffffffffffffffffffffffffff021916908373ffffffffffffffffffffffffffffffffffffffff1602179055506020820151816001019080519060200190610c20929190610ef2565b506040820151816002019080519060200190610c3d929190610ef2565b50606082015181600301556080820151816004015560a08201518160050160006101000a81548160ff02191690831515021790555060c08201518160050160016101000a81548160ff021916908315150217905550905050600160076000600854815260200190815260200160002060006101000a81548160ff0219169083151502179055507f8354bf6ed7dfb0877fd035778ca5d5b2b626068a192b55fbd6357cab7f227afd33848484604051610cf89493929190611500565b60405180910390a1505050565b60003411610d48576040517f08c379a0000000000000000000000000000000000000000000000000000000008152600401610d3f90611737565b60405180910390fd5b6007600082815260200190815260200160002060009054906101000a900460ff16610da8576040517f08c379a0000000000000000000000000000000000000000000000000000000008152600401610d9f90611637565b60405180910390fd5b600060066000838152602001908152602001600020905034816004016000828254610dd3919061180f565b92505081905550600015158160050160009054906101000a900460ff1615151415610e26578060030154816004015410610e255760018160050160006101000a81548160ff0219169083151502179055505b5b34600460003373ffffffffffffffffffffffffffffffffffffffff1673ffffffffffffffffffffffffffffffffffffffff1681526020019081526020016000206000828254610e75919061180f565b92505081905550600160056000828254610e8f919061180f565b925050819055507fc82dbad294968bc7f7b9388576e4bc9f0e39bde2e5e735dd4d935a5e53f9539933348484600101604051610ece94939291906115d0565b60405180910390a15050565b60046020528060005260406000206000915090505481565b828054610efe90611954565b90600052602060002090601f016020900481019282610f205760008555610f67565b82601f10610f3957805160ff1916838001178555610f67565b82800160010185558215610f67579182015b82811115610f66578251825591602001919060010190610f4b565b5b509050610f749190610f78565b5090565b5b80821115610f91576000816000905550600101610f79565b5090565b6000610fa8610fa3846117a3565b611772565b905082815260208101848484011115610fc057600080fd5b610fcb848285611912565b509392505050565b600081359050610fe281611a53565b92915050565b600082601f830112610ff957600080fd5b8135611009848260208601610f95565b91505092915050565b60008135905061102181611a6a565b92915050565b60006020828403121561103957600080fd5b600061104784828501610fd3565b91505092915050565b60008060006060848603121561106557600080fd5b600084013567ffffffffffffffff81111561107f57600080fd5b61108b86828701610fe8565b935050602084013567ffffffffffffffff8111156110a857600080fd5b6110b486828701610fe8565b92505060406110c586828701611012565b9150509250925092565b6000602082840312156110e157600080fd5b60006110ef84828501611012565b91505092915050565b611101816118ca565b82525050565b611110816118dc565b82525050565b6000611121826117e8565b61112b81856117fe565b935061113b818560208601611921565b61114481611a42565b840191505092915050565b6000815461115c81611954565b61116681866117fe565b945060018216600081146111815760018114611193576111c6565b60ff19831686526020860193506111c6565b61119c856117d3565b60005b838110156111be5781548189015260018201915060208101905061119f565b808801955050505b50505092915050565b60006111dc602e836117fe565b91507f546869732049447320646f6573206e6f7420657869737420696e20746865206660008301527f756e64726169736572206c6973740000000000000000000000000000000000006020830152604082019050919050565b60006112426029836117fe565b91507f546869732066756e647261697365722068617320616c7265616479206265656e60008301527f2072656465656d656400000000000000000000000000000000000000000000006020830152604082019050919050565b60006112a86028836117fe565b91507f596f7520617265206e6f7420746865206f776e6572206f66207468697320667560008301527f6e647261697365720000000000000000000000000000000000000000000000006020830152604082019050919050565b600061130e601c836117fe565b91507f4f6e6c79206f776e65722063616e2063616c6c20636f6e7472616374000000006000830152602082019050919050565b600061134e6014836117fe565b91507f4661696c656420746f2073656e642045746865720000000000000000000000006000830152602082019050919050565b600061138e6024836117fe565b91507f536f7272792e20596f7520617265206e6f74206120726567697374657265642060008301527f75736572000000000000000000000000000000000000000000000000000000006020830152604082019050919050565b60006113f4601a836117fe565b91507f596f752061726520616c726561647920726567697374657265640000000000006000830152602082019050919050565b60006114346000836117f3565b9150600082019050919050565b600061144e601b836117fe565b91507f54617267657420686173206e6f74206265656e207265616368656400000000006000830152602082019050919050565b600061148e6011836117fe565b91507f496e73756666696369656e742066756e640000000000000000000000000000006000830152602082019050919050565b6114ca81611908565b82525050565b60006114db82611427565b9150819050919050565b60006020820190506114fa60008301846110f8565b92915050565b600060808201905061151560008301876110f8565b81810360208301526115278186611116565b9050818103604083015261153b8185611116565b905061154a60608301846114c1565b95945050505050565b600060e082019050611568600083018a6110f8565b818103602083015261157a8189611116565b9050818103604083015261158e8188611116565b905061159d60608301876114c1565b6115aa60808301866114c1565b6115b760a0830185611107565b6115c460c0830184611107565b98975050505050505050565b60006080820190506115e560008301876110f8565b6115f260208301866114c1565b6115ff60408301856114c1565b8181036060830152611611818461114f565b905095945050505050565b60006020820190506116316000830184611107565b92915050565b60006020820190508181036000830152611650816111cf565b9050919050565b6000602082019050818103600083015261167081611235565b9050919050565b600060208201905081810360008301526116908161129b565b9050919050565b600060208201905081810360008301526116b081611301565b9050919050565b600060208201905081810360008301526116d081611341565b9050919050565b600060208201905081810360008301526116f081611381565b9050919050565b60006020820190508181036000830152611710816113e7565b9050919050565b6000602082019050818103600083015261173081611441565b9050919050565b6000602082019050818103600083015261175081611481565b9050919050565b600060208201905061176c60008301846114c1565b92915050565b6000604051905081810181811067ffffffffffffffff8211171561179957611798611a13565b5b8060405250919050565b600067ffffffffffffffff8211156117be576117bd611a13565b5b601f19601f8301169050602081019050919050565b60008190508160005260206000209050919050565b600081519050919050565b600081905092915050565b600082825260208201905092915050565b600061181a82611908565b915061182583611908565b9250827fffffffffffffffffffffffffffffffffffffffffffffffffffffffffffffffff0382111561185a57611859611986565b5b828201905092915050565b600061187082611908565b915061187b83611908565b92508261188b5761188a6119b5565b5b828204905092915050565b60006118a182611908565b91506118ac83611908565b9250828210156118bf576118be611986565b5b828203905092915050565b60006118d5826118e8565b9050919050565b60008115159050919050565b600073ffffffffffffffffffffffffffffffffffffffff82169050919050565b6000819050919050565b82818337600083830152505050565b60005b8381101561193f578082015181840152602081019050611924565b8381111561194e576000848401525b50505050565b6000600282049050600182168061196c57607f821691505b602082108114156119805761197f6119e4565b5b50919050565b7f4e487b7100000000000000000000000000000000000000000000000000000000600052601160045260246000fd5b7f4e487b7100000000000000000000000000000000000000000000000000000000600052601260045260246000fd5b7f4e487b7100000000000000000000000000000000000000000000000000000000600052602260045260246000fd5b7f4e487b7100000000000000000000000000000000000000000000000000000000600052604160045260246000fd5b6000601f19601f8301169050919050565b611a5c816118ca565b8114611a6757600080fd5b50565b611a7381611908565b8114611a7e57600080fd5b5056fea2646970667358221220db036e1bbae1fe9bff2e1b4904c6722b5a9c967c5d86f9bd0524a79d122f365364736f6c63430008000033",
  "immutableReferences": {},
  "source": "// SPDX-License-Identifier: MIT\npragma solidity >=0.4.22 <0.9.0;\n\ncontract Crowdfunding{\n    address owner;\n\n    mapping(address => uint) public users;\n    mapping(address => bool) public userAdded;\n    uint userCount = 0;\n\n    event UserAdded(\n        address user\n    );\n\n    mapping(address => uint) public donations;\n    uint public donationsCount = 0;\n\n    struct FundRaiser{\n        address owner;\n        string title;\n        string description;\n        uint target;\n        uint amountRaised;\n        bool targetReached;\n        bool redeemed;\n    }\n\n    event FundRaiserCreated(\n        address owner,\n        string title,\n        string description,\n        uint target\n    );\n\n    mapping(uint => FundRaiser) public fundsRaisers;\n    mapping(uint => bool) public fundsRaiserAdded;\n\n    event Funded(\n        address sender,\n        uint amountSent,\n        uint fundId,\n        string fundTitle\n    );\n\n    uint fundsRaisersCount = 0;\n\n    event Redeemed(\n        address owner,\n        uint amount,\n        uint fundRaiserId,\n        string fundTitle\n    );\n\n    constructor(){\n        owner = msg.sender;\n    }\n\n    modifier onlyOwner(){\n        require(msg.sender == owner, \"Only owner can call contract\");\n        _;\n    }\n\n    function join() external {\n        require(userAdded[msg.sender] == false, \"You are already registered\");\n        userCount += 1;\n        users[msg.sender] = userCount;\n        userAdded[msg.sender] = true;\n        emit UserAdded(msg.sender);\n    }\n\n    function startFundRaiser(string memory _title, string memory _desc, uint target) external {\n        require(userAdded[msg.sender], \"Sorry. You are not a registered user\");\n        fundsRaisersCount += 1;\n        fundsRaisers[fundsRaisersCount] = FundRaiser(msg.sender, _title, _desc, target, 0, false, false);\n        fundsRaiserAdded[fundsRaisersCount] = true;\n        emit FundRaiserCreated(msg.sender, _title, _desc, target);\n    }\n\n    function fund(uint _id) external payable{\n        require(msg.value > 0, \"Insufficient fund\");\n        require(fundsRaiserAdded[_id], \"This IDs does not exist in the fundraiser list\");\n        FundRaiser storage _fund = fundsRaisers[_id];\n        _fund.amountRaised += msg.value;\n        if(_fund.targetReached == false){\n            if(_fund.amountRaised >= _fund.target){\n                _fund.targetReached = true;\n            }\n        }\n        donations[msg.sender] += msg.value;\n        donationsCount += 1;\n        emit Funded(msg.sender, msg.value, _id, _fund.title);\n\n    }\n\n    function redeemFunds(uint _fundRaiserId) external{\n        require(fundsRaiserAdded[_fundRaiserId], \"This IDs does not exist in the fundraiser list\");\n        FundRaiser storage _fund = fundsRaisers[_fundRaiserId];\n        require(msg.sender == _fund.owner, \"You are not the owner of this fundraiser\");\n        require(_fund.targetReached, \"Target has not been reached\");\n        require(!(_fund.redeemed), \"This fundraiser has already been redeemed\");\n        uint amountSendable = _fund.amountRaised - (_fund.amountRaised/10);\n        (bool sent, ) = payable(msg.sender).call{value: amountSendable}(\"\");\n        require(sent, \"Failed to send Ether\");\n        _fund.redeemed = true;\n        emit Redeemed(msg.sender, amountSendable, _fundRaiserId, _fund.title);\n    }\n\n    function getBalance() external view returns(uint) {\n        return address(this).balance;\n    }\n\n    function withdrawFromContract() external onlyOwner{\n        (bool sent, ) = payable(msg.sender).call{value: address(this).balance}(\"\");\n        require(sent, \"Failed to send Ether\");\n    }\n}",
  "sourcePath": "/Users/godspowereze/Documents/Projects/30DaysOfSolidity/Day_8_Crowdfunding/contracts/Crowdfunding.sol",
  "compiler": {
    "name": "solc",
    "version": "0.8.0+commit.c7dfd78e.Emscripten.clang"
  },
  "schemaVersion": "3.4.3",
  "updatedAt": "2022-01-29T03:53:13.976Z",
  "devdoc": {
    "kind": "dev",
    "methods": {},
    "version": 1
  },
  "userdoc": {
    "kind": "user",
    "methods": {},
    "version": 1
  }
}