{
  "contractName": "Crowdfunding",
  "abi": [
    {
      "inputs": [],
      "stateMutability": "nonpayable",
      "type": "constructor"
    },
    {
      "anonymous": false,
      "inputs": [
        {
          "indexed": false,
          "internalType": "address",
          "name": "owner",
          "type": "address"
        },
        {
          "indexed": false,
          "internalType": "string",
          "name": "title",
          "type": "string"
        },
        {
          "indexed": false,
          "internalType": "string",
          "name": "description",
          "type": "string"
        },
        {
          "indexed": false,
          "internalType": "uint256",
          "name": "target",
          "type": "uint256"
        }
      ],
      "name": "FundRaiserCreated",
      "type": "event"
    },
    {
      "anonymous": false,
      "inputs": [
        {
          "indexed": false,
          "internalType": "address",
          "name": "sender",
          "type": "address"
        },
        {
          "indexed": false,
          "internalType": "uint256",
          "name": "amountSent",
          "type": "uint256"
        },
        {
          "indexed": false,
          "internalType": "uint256",
          "name": "fundId",
          "type": "uint256"
        },
        {
          "indexed": false,
          "internalType": "string",
          "name": "fundTitle",
          "type": "string"
        }
      ],
      "name": "Funded",
      "type": "event"
    },
    {
      "anonymous": false,
      "inputs": [
        {
          "indexed": false,
          "internalType": "address",
          "name": "owner",
          "type": "address"
        },
        {
          "indexed": false,
          "internalType": "uint256",
          "name": "amount",
          "type": "uint256"
        },
        {
          "indexed": false,
          "internalType": "uint256",
          "name": "fundRaiserId",
          "type": "uint256"
        },
        {
          "indexed": false,
          "internalType": "string",
          "name": "fundTitle",
          "type": "string"
        }
      ],
      "name": "Redeemed",
      "type": "event"
    },
    {
      "anonymous": false,
      "inputs": [
        {
          "indexed": false,
          "internalType": "address",
          "name": "user",
          "type": "address"
        }
      ],
      "name": "UserAdded",
      "type": "event"
    },
    {
      "inputs": [
        {
          "internalType": "address",
          "name": "",
          "type": "address"
        }
      ],
      "name": "donations",
      "outputs": [
        {
          "internalType": "uint256",
          "name": "",
          "type": "uint256"
        }
      ],
      "stateMutability": "view",
      "type": "function"
    },
    {
      "inputs": [],
      "name": "donationsCount",
      "outputs": [
        {
          "internalType": "uint256",
          "name": "",
          "type": "uint256"
        }
      ],
      "stateMutability": "view",
      "type": "function"
    },
    {
      "inputs": [
        {
          "internalType": "uint256",
          "name": "",
          "type": "uint256"
        }
      ],
      "name": "fundsRaiserAdded",
      "outputs": [
        {
          "internalType": "bool",
          "name": "",
          "type": "bool"
        }
      ],
      "stateMutability": "view",
      "type": "function"
    },
    {
      "inputs": [
        {
          "internalType": "uint256",
          "name": "",
          "type": "uint256"
        }
      ],
      "name": "fundsRaisers",
      "outputs": [
        {
          "internalType": "address",
          "name": "owner",
          "type": "address"
        },
        {
          "internalType": "string",
          "name": "title",
          "type": "string"
        },
        {
          "internalType": "string",
          "name": "description",
          "type": "string"
        },
        {
          "internalType": "uint256",
          "name": "target",
          "type": "uint256"
        },
        {
          "internalType": "uint256",
          "name": "amountRaised",
          "type": "uint256"
        },
        {
          "internalType": "bool",
          "name": "targetReached",
          "type": "bool"
        },
        {
          "internalType": "bool",
          "name": "redeemed",
          "type": "bool"
        }
      ],
      "stateMutability": "view",
      "type": "function"
    },
    {
      "inputs": [],
      "name": "owner",
      "outputs": [
        {
          "internalType": "address",
          "name": "",
          "type": "address"
        }
      ],
      "stateMutability": "view",
      "type": "function"
    },
    {
      "inputs": [
        {
          "internalType": "address",
          "name": "",
          "type": "address"
        }
      ],
      "name": "userAdded",
      "outputs": [
        {
          "internalType": "bool",
          "name": "",
          "type": "bool"
        }
      ],
      "stateMutability": "view",
      "type": "function"
    },
    {
      "inputs": [
        {
          "internalType": "address",
          "name": "",
          "type": "address"
        }
      ],
      "name": "users",
      "outputs": [
        {
          "internalType": "uint256",
          "name": "",
          "type": "uint256"
        }
      ],
      "stateMutability": "view",
      "type": "function"
    },
    {
      "inputs": [],
      "name": "join",
      "outputs": [],
      "stateMutability": "nonpayable",
      "type": "function"
    },
    {
      "inputs": [
        {
          "internalType": "string",
          "name": "_title",
          "type": "string"
        },
        {
          "internalType": "string",
          "name": "_desc",
          "type": "string"
        },
        {
          "internalType": "uint256",
          "name": "target",
          "type": "uint256"
        }
      ],
      "name": "startFundRaiser",
      "outputs": [],
      "stateMutability": "nonpayable",
      "type": "function"
    },
    {
      "inputs": [
        {
          "internalType": "uint256",
          "name": "_id",
          "type": "uint256"
        }
      ],
      "name": "fund",
      "outputs": [],
      "stateMutability": "payable",
      "type": "function"
    },
    {
      "inputs": [
        {
          "internalType": "uint256",
          "name": "_fundRaiserId",
          "type": "uint256"
        }
      ],
      "name": "redeemFunds",
      "outputs": [],
      "stateMutability": "nonpayable",
      "type": "function"
    },
    {
      "inputs": [],
      "name": "getBalance",
      "outputs": [
        {
          "internalType": "uint256",
          "name": "",
          "type": "uint256"
        }
      ],
      "stateMutability": "view",
      "type": "function"
    },
    {
      "inputs": [],
      "name": "withdrawFromContract",
      "outputs": [],
      "stateMutability": "nonpayable",
      "type": "function"
    }
  ],
  "bytecode": "0x608060405260006003556000600555600060085534801561001f57600080fd5b50336000806101000a81548173ffffffffffffffffffffffffffffffffffffffff021916908373ffffffffffffffffffffffffffffffffffffffff160217905550611b218061006f6000396000f3fe6080604052600436106100df576000357c0100000000000000000000000000000000000000000000000000000000900480638da5cb5b1161009c578063bc07b77911610076578063bc07b7791461028d578063bdb598f1146102b6578063ca1d209d146102df578063cc6cb19a146102fb576100df565b80638da5cb5b1461020e578063a87430ba14610239578063b688a36314610276576100df565b806304f67234146100e457806312065fe0146101275780631f5225951461015257806329987cfb1461017d5780635f589e42146101ba5780636bda722b146101d1575b600080fd5b3480156100f057600080fd5b5061010b60048036038101906101069190611139565b610338565b60405161011e97969594939291906115bd565b60405180910390f35b34801561013357600080fd5b5061013c6104c4565b60405161014991906117c1565b60405180910390f35b34801561015e57600080fd5b506101676104e3565b60405161017491906117c1565b60405180910390f35b34801561018957600080fd5b506101a4600480360381019061019f9190611139565b6104e9565b6040516101b19190611686565b60405180910390f35b3480156101c657600080fd5b506101cf610509565b005b3480156101dd57600080fd5b506101f860048036038101906101f39190611091565b61065d565b6040516102059190611686565b60405180910390f35b34801561021a57600080fd5b5061022361067d565b604051610230919061154f565b60405180910390f35b34801561024557600080fd5b50610260600480360381019061025b9190611091565b6106a1565b60405161026d91906117c1565b60405180910390f35b34801561028257600080fd5b5061028b6106b9565b005b34801561029957600080fd5b506102b460048036038101906102af9190611139565b61083d565b005b3480156102c257600080fd5b506102dd60048036038101906102d891906110ba565b610b1c565b005b6102f960048036038101906102f49190611139565b610d6f565b005b34801561030757600080fd5b50610322600480360381019061031d9190611091565b610f44565b60405161032f91906117c1565b60405180910390f35b60066020528060005260406000206000915090508060000160009054906101000a900473ffffffffffffffffffffffffffffffffffffffff1690806001018054610381906119be565b80601f01602080910402602001604051908101604052809291908181526020018280546103ad906119be565b80156103fa5780601f106103cf576101008083540402835291602001916103fa565b820191906000526020600020905b8154815290600101906020018083116103dd57829003601f168201915b50505050509080600201805461040f906119be565b80601f016020809104026020016040519081016040528092919081815260200182805461043b906119be565b80156104885780601f1061045d57610100808354040283529160200191610488565b820191906000526020600020905b81548152906001019060200180831161046b57829003601f168201915b5050505050908060030154908060040154908060050160009054906101000a900460ff16908060050160019054906101000a900460ff16905087565b60003073ffffffffffffffffffffffffffffffffffffffff1631905090565b60055481565b60076020528060005260406000206000915054906101000a900460ff1681565b60008054906101000a900473ffffffffffffffffffffffffffffffffffffffff1673ffffffffffffffffffffffffffffffffffffffff163373ffffffffffffffffffffffffffffffffffffffff1614610597576040517f08c379a000000000000000000000000000000000000000000000000000000000815260040161058e90611701565b60405180910390fd5b60003373ffffffffffffffffffffffffffffffffffffffff163073ffffffffffffffffffffffffffffffffffffffff16316040516105d49061153a565b60006040518083038185875af1925050503d8060008114610611576040519150601f19603f3d011682016040523d82523d6000602084013e610616565b606091505b505090508061065a576040517f08c379a000000000000000000000000000000000000000000000000000000000815260040161065190611721565b60405180910390fd5b50565b60026020528060005260406000206000915054906101000a900460ff1681565b60008054906101000a900473ffffffffffffffffffffffffffffffffffffffff1681565b60016020528060005260406000206000915090505481565b60001515600260003373ffffffffffffffffffffffffffffffffffffffff1673ffffffffffffffffffffffffffffffffffffffff16815260200190815260200160002060009054906101000a900460ff1615151461074c576040517f08c379a000000000000000000000000000000000000000000000000000000000815260040161074390611761565b60405180910390fd5b60016003600082825461075f9190611879565b92505081905550600354600160003373ffffffffffffffffffffffffffffffffffffffff1673ffffffffffffffffffffffffffffffffffffffff168152602001908152602001600020819055506001600260003373ffffffffffffffffffffffffffffffffffffffff1673ffffffffffffffffffffffffffffffffffffffff16815260200190815260200160002060006101000a81548160ff0219169083151502179055507f19ef9a4877199f89440a26acb26895ec02ed86f2df1aeaa90dc18041b892f71f33604051610833919061154f565b60405180910390a1565b6007600082815260200190815260200160002060009054906101000a900460ff1661089d576040517f08c379a0000000000000000000000000000000000000000000000000000000008152600401610894906116a1565b60405180910390fd5b60006006600083815260200190815260200160002090508060000160009054906101000a900473ffffffffffffffffffffffffffffffffffffffff1673ffffffffffffffffffffffffffffffffffffffff163373ffffffffffffffffffffffffffffffffffffffff1614610946576040517f08c379a000000000000000000000000000000000000000000000000000000000815260040161093d906116e1565b60405180910390fd5b8060050160009054906101000a900460ff16610997576040517f08c379a000000000000000000000000000000000000000000000000000000000815260040161098e90611781565b60405180910390fd5b8060050160019054906101000a900460ff16156109e9576040517f08c379a00000000000000000000000000000000000000000000000000000000081526004016109e0906116c1565b60405180910390fd5b6000600a82600401546109fc91906118cf565b8260040154610a0b9190611900565b905060003373ffffffffffffffffffffffffffffffffffffffff1682604051610a339061153a565b60006040518083038185875af1925050503d8060008114610a70576040519150601f19603f3d011682016040523d82523d6000602084013e610a75565b606091505b5050905080610ab9576040517f08c379a0000000000000000000000000000000000000000000000000000000008152600401610ab090611721565b60405180910390fd5b60018360050160016101000a81548160ff0219169083151502179055507f1808b841eb16c14c59b7f58642fb214dc5a2fe88a2844142a9b1cc36aa9e3d0c33838686600101604051610b0e949392919061163a565b60405180910390a150505050565b600260003373ffffffffffffffffffffffffffffffffffffffff1673ffffffffffffffffffffffffffffffffffffffff16815260200190815260200160002060009054906101000a900460ff16610ba8576040517f08c379a0000000000000000000000000000000000000000000000000000000008152600401610b9f90611741565b60405180910390fd5b600160086000828254610bbb9190611879565b925050819055506040518060e001604052803373ffffffffffffffffffffffffffffffffffffffff168152602001848152602001838152602001828152602001600081526020016000151581526020016000151581525060066000600854815260200190815260200160002060008201518160000160006101000a81548173ffffffffffffffffffffffffffffffffffffffff021916908373ffffffffffffffffffffffffffffffffffffffff1602179055506020820151816001019080519060200190610c8a929190610f5c565b506040820151816002019080519060200190610ca7929190610f5c565b50606082015181600301556080820151816004015560a08201518160050160006101000a81548160ff02191690831515021790555060c08201518160050160016101000a81548160ff021916908315150217905550905050600160076000600854815260200190815260200160002060006101000a81548160ff0219169083151502179055507f8354bf6ed7dfb0877fd035778ca5d5b2b626068a192b55fbd6357cab7f227afd33848484604051610d62949392919061156a565b60405180910390a1505050565b60003411610db2576040517f08c379a0000000000000000000000000000000000000000000000000000000008152600401610da9906117a1565b60405180910390fd5b6007600082815260200190815260200160002060009054906101000a900460ff16610e12576040517f08c379a0000000000000000000000000000000000000000000000000000000008152600401610e09906116a1565b60405180910390fd5b600060066000838152602001908152602001600020905034816004016000828254610e3d9190611879565b92505081905550600015158160050160009054906101000a900460ff1615151415610e90578060030154816004015410610e8f5760018160050160006101000a81548160ff0219169083151502179055505b5b34600460003373ffffffffffffffffffffffffffffffffffffffff1673ffffffffffffffffffffffffffffffffffffffff1681526020019081526020016000206000828254610edf9190611879565b92505081905550600160056000828254610ef99190611879565b925050819055507fc82dbad294968bc7f7b9388576e4bc9f0e39bde2e5e735dd4d935a5e53f9539933348484600101604051610f38949392919061163a565b60405180910390a15050565b60046020528060005260406000206000915090505481565b828054610f68906119be565b90600052602060002090601f016020900481019282610f8a5760008555610fd1565b82601f10610fa357805160ff1916838001178555610fd1565b82800160010185558215610fd1579182015b82811115610fd0578251825591602001919060010190610fb5565b5b509050610fde9190610fe2565b5090565b5b80821115610ffb576000816000905550600101610fe3565b5090565b600061101261100d8461180d565b6117dc565b90508281526020810184848401111561102a57600080fd5b61103584828561197c565b509392505050565b60008135905061104c81611abd565b92915050565b600082601f83011261106357600080fd5b8135611073848260208601610fff565b91505092915050565b60008135905061108b81611ad4565b92915050565b6000602082840312156110a357600080fd5b60006110b18482850161103d565b91505092915050565b6000806000606084860312156110cf57600080fd5b600084013567ffffffffffffffff8111156110e957600080fd5b6110f586828701611052565b935050602084013567ffffffffffffffff81111561111257600080fd5b61111e86828701611052565b925050604061112f8682870161107c565b9150509250925092565b60006020828403121561114b57600080fd5b60006111598482850161107c565b91505092915050565b61116b81611934565b82525050565b61117a81611946565b82525050565b600061118b82611852565b6111958185611868565b93506111a581856020860161198b565b6111ae81611aac565b840191505092915050565b600081546111c6816119be565b6111d08186611868565b945060018216600081146111eb57600181146111fd57611230565b60ff1983168652602086019350611230565b6112068561183d565b60005b8381101561122857815481890152600182019150602081019050611209565b808801955050505b50505092915050565b6000611246602e83611868565b91507f546869732049447320646f6573206e6f7420657869737420696e20746865206660008301527f756e64726169736572206c6973740000000000000000000000000000000000006020830152604082019050919050565b60006112ac602983611868565b91507f546869732066756e647261697365722068617320616c7265616479206265656e60008301527f2072656465656d656400000000000000000000000000000000000000000000006020830152604082019050919050565b6000611312602883611868565b91507f596f7520617265206e6f7420746865206f776e6572206f66207468697320667560008301527f6e647261697365720000000000000000000000000000000000000000000000006020830152604082019050919050565b6000611378601c83611868565b91507f4f6e6c79206f776e65722063616e2063616c6c20636f6e7472616374000000006000830152602082019050919050565b60006113b8601483611868565b91507f4661696c656420746f2073656e642045746865720000000000000000000000006000830152602082019050919050565b60006113f8602483611868565b91507f536f7272792e20596f7520617265206e6f74206120726567697374657265642060008301527f75736572000000000000000000000000000000000000000000000000000000006020830152604082019050919050565b600061145e601a83611868565b91507f596f752061726520616c726561647920726567697374657265640000000000006000830152602082019050919050565b600061149e60008361185d565b9150600082019050919050565b60006114b8601b83611868565b91507f54617267657420686173206e6f74206265656e207265616368656400000000006000830152602082019050919050565b60006114f8601183611868565b91507f496e73756666696369656e742066756e640000000000000000000000000000006000830152602082019050919050565b61153481611972565b82525050565b600061154582611491565b9150819050919050565b60006020820190506115646000830184611162565b92915050565b600060808201905061157f6000830187611162565b81810360208301526115918186611180565b905081810360408301526115a58185611180565b90506115b4606083018461152b565b95945050505050565b600060e0820190506115d2600083018a611162565b81810360208301526115e48189611180565b905081810360408301526115f88188611180565b9050611607606083018761152b565b611614608083018661152b565b61162160a0830185611171565b61162e60c0830184611171565b98975050505050505050565b600060808201905061164f6000830187611162565b61165c602083018661152b565b611669604083018561152b565b818103606083015261167b81846111b9565b905095945050505050565b600060208201905061169b6000830184611171565b92915050565b600060208201905081810360008301526116ba81611239565b9050919050565b600060208201905081810360008301526116da8161129f565b9050919050565b600060208201905081810360008301526116fa81611305565b9050919050565b6000602082019050818103600083015261171a8161136b565b9050919050565b6000602082019050818103600083015261173a816113ab565b9050919050565b6000602082019050818103600083015261175a816113eb565b9050919050565b6000602082019050818103600083015261177a81611451565b9050919050565b6000602082019050818103600083015261179a816114ab565b9050919050565b600060208201905081810360008301526117ba816114eb565b9050919050565b60006020820190506117d6600083018461152b565b92915050565b6000604051905081810181811067ffffffffffffffff8211171561180357611802611a7d565b5b8060405250919050565b600067ffffffffffffffff82111561182857611827611a7d565b5b601f19601f8301169050602081019050919050565b60008190508160005260206000209050919050565b600081519050919050565b600081905092915050565b600082825260208201905092915050565b600061188482611972565b915061188f83611972565b9250827fffffffffffffffffffffffffffffffffffffffffffffffffffffffffffffffff038211156118c4576118c36119f0565b5b828201905092915050565b60006118da82611972565b91506118e583611972565b9250826118f5576118f4611a1f565b5b828204905092915050565b600061190b82611972565b915061191683611972565b925082821015611929576119286119f0565b5b828203905092915050565b600061193f82611952565b9050919050565b60008115159050919050565b600073ffffffffffffffffffffffffffffffffffffffff82169050919050565b6000819050919050565b82818337600083830152505050565b60005b838110156119a957808201518184015260208101905061198e565b838111156119b8576000848401525b50505050565b600060028204905060018216806119d657607f821691505b602082108114156119ea576119e9611a4e565b5b50919050565b7f4e487b7100000000000000000000000000000000000000000000000000000000600052601160045260246000fd5b7f4e487b7100000000000000000000000000000000000000000000000000000000600052601260045260246000fd5b7f4e487b7100000000000000000000000000000000000000000000000000000000600052602260045260246000fd5b7f4e487b7100000000000000000000000000000000000000000000000000000000600052604160045260246000fd5b6000601f19601f8301169050919050565b611ac681611934565b8114611ad157600080fd5b50565b611add81611972565b8114611ae857600080fd5b5056fea26469706673582212209e7c877e6ad15fccc8209a5cadda4caa602a5be30f032d78b4a8423a03e73a8964736f6c63430008000033",
  "immutableReferences": {},
  "source": "// SPDX-License-Identifier: MIT\npragma solidity >=0.4.22 <0.9.0;\n\ncontract Crowdfunding{\n    address public owner;\n\n    mapping(address => uint) public users;\n    mapping(address => bool) public userAdded;\n    uint userCount = 0;\n\n    event UserAdded(\n        address user\n    );\n\n    mapping(address => uint) public donations;\n    uint public donationsCount = 0;\n\n    struct FundRaiser{\n        address owner;\n        string title;\n        string description;\n        uint target;\n        uint amountRaised;\n        bool targetReached;\n        bool redeemed;\n    }\n\n    event FundRaiserCreated(\n        address owner,\n        string title,\n        string description,\n        uint target\n    );\n\n    mapping(uint => FundRaiser) public fundsRaisers;\n    mapping(uint => bool) public fundsRaiserAdded;\n\n    event Funded(\n        address sender,\n        uint amountSent,\n        uint fundId,\n        string fundTitle\n    );\n\n    uint fundsRaisersCount = 0;\n\n    event Redeemed(\n        address owner,\n        uint amount,\n        uint fundRaiserId,\n        string fundTitle\n    );\n\n    constructor(){\n        owner = msg.sender;\n    }\n\n    modifier onlyOwner(){\n        require(msg.sender == owner, \"Only owner can call contract\");\n        _;\n    }\n\n    function join() external {\n        require(userAdded[msg.sender] == false, \"You are already registered\");\n        userCount += 1;\n        users[msg.sender] = userCount;\n        userAdded[msg.sender] = true;\n        emit UserAdded(msg.sender);\n    }\n\n    function startFundRaiser(string memory _title, string memory _desc, uint target) external {\n        require(userAdded[msg.sender], \"Sorry. You are not a registered user\");\n        fundsRaisersCount += 1;\n        fundsRaisers[fundsRaisersCount] = FundRaiser(msg.sender, _title, _desc, target, 0, false, false);\n        fundsRaiserAdded[fundsRaisersCount] = true;\n        emit FundRaiserCreated(msg.sender, _title, _desc, target);\n    }\n\n    function fund(uint _id) external payable{\n        require(msg.value > 0, \"Insufficient fund\");\n        require(fundsRaiserAdded[_id], \"This IDs does not exist in the fundraiser list\");\n        FundRaiser storage _fund = fundsRaisers[_id];\n        _fund.amountRaised += msg.value;\n        if(_fund.targetReached == false){\n            if(_fund.amountRaised >= _fund.target){\n                _fund.targetReached = true;\n            }\n        }\n        donations[msg.sender] += msg.value;\n        donationsCount += 1;\n        emit Funded(msg.sender, msg.value, _id, _fund.title);\n\n    }\n\n    function redeemFunds(uint _fundRaiserId) external{\n        require(fundsRaiserAdded[_fundRaiserId], \"This IDs does not exist in the fundraiser list\");\n        FundRaiser storage _fund = fundsRaisers[_fundRaiserId];\n        require(msg.sender == _fund.owner, \"You are not the owner of this fundraiser\");\n        require(_fund.targetReached, \"Target has not been reached\");\n        require(!(_fund.redeemed), \"This fundraiser has already been redeemed\");\n        uint amountSendable = _fund.amountRaised - (_fund.amountRaised/10);\n        (bool sent, ) = payable(msg.sender).call{value: amountSendable}(\"\");\n        require(sent, \"Failed to send Ether\");\n        _fund.redeemed = true;\n        emit Redeemed(msg.sender, amountSendable, _fundRaiserId, _fund.title);\n    }\n\n    function getBalance() external view returns(uint) {\n        return address(this).balance;\n    }\n\n    function withdrawFromContract() external onlyOwner{\n        (bool sent, ) = payable(msg.sender).call{value: address(this).balance}(\"\");\n        require(sent, \"Failed to send Ether\");\n    }\n}",
  "sourcePath": "/Users/godspowereze/Documents/Projects/30DaysOfSolidity/Day_8_Crowdfunding/contracts/Crowdfunding.sol",
  "compiler": {
    "name": "solc",
    "version": "0.8.0+commit.c7dfd78e.Emscripten.clang"
  },
  "schemaVersion": "3.4.3",
  "updatedAt": "2022-01-29T04:02:21.346Z",
  "devdoc": {
    "kind": "dev",
    "methods": {},
    "version": 1
  },
  "userdoc": {
    "kind": "user",
    "methods": {},
    "version": 1
  }
}