{
  "contractName": "Crowdfunding",
  "abi": [
    {
      "inputs": [],
      "stateMutability": "nonpayable",
      "type": "constructor"
    },
    {
      "anonymous": false,
      "inputs": [
        {
          "indexed": false,
          "internalType": "address",
          "name": "owner",
          "type": "address"
        },
        {
          "indexed": false,
          "internalType": "string",
          "name": "title",
          "type": "string"
        },
        {
          "indexed": false,
          "internalType": "string",
          "name": "description",
          "type": "string"
        },
        {
          "indexed": false,
          "internalType": "uint256",
          "name": "target",
          "type": "uint256"
        }
      ],
      "name": "FundRaiserCreated",
      "type": "event"
    },
    {
      "anonymous": false,
      "inputs": [
        {
          "indexed": false,
          "internalType": "address",
          "name": "sender",
          "type": "address"
        },
        {
          "indexed": false,
          "internalType": "uint256",
          "name": "amountSent",
          "type": "uint256"
        },
        {
          "indexed": false,
          "internalType": "uint256",
          "name": "fundId",
          "type": "uint256"
        },
        {
          "indexed": false,
          "internalType": "string",
          "name": "fundTitle",
          "type": "string"
        }
      ],
      "name": "Funded",
      "type": "event"
    },
    {
      "anonymous": false,
      "inputs": [
        {
          "indexed": false,
          "internalType": "address",
          "name": "owner",
          "type": "address"
        },
        {
          "indexed": false,
          "internalType": "uint256",
          "name": "amount",
          "type": "uint256"
        },
        {
          "indexed": false,
          "internalType": "uint256",
          "name": "fundRaiserId",
          "type": "uint256"
        },
        {
          "indexed": false,
          "internalType": "string",
          "name": "fundTitle",
          "type": "string"
        }
      ],
      "name": "Redeemed",
      "type": "event"
    },
    {
      "anonymous": false,
      "inputs": [
        {
          "indexed": false,
          "internalType": "address",
          "name": "user",
          "type": "address"
        }
      ],
      "name": "UserAdded",
      "type": "event"
    },
    {
      "inputs": [
        {
          "internalType": "address",
          "name": "",
          "type": "address"
        }
      ],
      "name": "donations",
      "outputs": [
        {
          "internalType": "uint256",
          "name": "",
          "type": "uint256"
        }
      ],
      "stateMutability": "view",
      "type": "function"
    },
    {
      "inputs": [],
      "name": "donationsCount",
      "outputs": [
        {
          "internalType": "uint256",
          "name": "",
          "type": "uint256"
        }
      ],
      "stateMutability": "view",
      "type": "function"
    },
    {
      "inputs": [
        {
          "internalType": "uint256",
          "name": "",
          "type": "uint256"
        }
      ],
      "name": "fundsRaiserAdded",
      "outputs": [
        {
          "internalType": "bool",
          "name": "",
          "type": "bool"
        }
      ],
      "stateMutability": "view",
      "type": "function"
    },
    {
      "inputs": [
        {
          "internalType": "uint256",
          "name": "",
          "type": "uint256"
        }
      ],
      "name": "fundsRaisers",
      "outputs": [
        {
          "internalType": "address",
          "name": "owner",
          "type": "address"
        },
        {
          "internalType": "string",
          "name": "title",
          "type": "string"
        },
        {
          "internalType": "string",
          "name": "description",
          "type": "string"
        },
        {
          "internalType": "uint256",
          "name": "target",
          "type": "uint256"
        },
        {
          "internalType": "uint256",
          "name": "amountRaised",
          "type": "uint256"
        },
        {
          "internalType": "bool",
          "name": "targetReached",
          "type": "bool"
        },
        {
          "internalType": "bool",
          "name": "redeemed",
          "type": "bool"
        }
      ],
      "stateMutability": "view",
      "type": "function"
    },
    {
      "inputs": [],
      "name": "owner",
      "outputs": [
        {
          "internalType": "address",
          "name": "",
          "type": "address"
        }
      ],
      "stateMutability": "view",
      "type": "function"
    },
    {
      "inputs": [
        {
          "internalType": "address",
          "name": "",
          "type": "address"
        }
      ],
      "name": "userAdded",
      "outputs": [
        {
          "internalType": "bool",
          "name": "",
          "type": "bool"
        }
      ],
      "stateMutability": "view",
      "type": "function"
    },
    {
      "inputs": [
        {
          "internalType": "address",
          "name": "",
          "type": "address"
        }
      ],
      "name": "users",
      "outputs": [
        {
          "internalType": "uint256",
          "name": "",
          "type": "uint256"
        }
      ],
      "stateMutability": "view",
      "type": "function"
    },
    {
      "inputs": [],
      "name": "join",
      "outputs": [],
      "stateMutability": "nonpayable",
      "type": "function"
    },
    {
      "inputs": [
        {
          "internalType": "string",
          "name": "_title",
          "type": "string"
        },
        {
          "internalType": "string",
          "name": "_desc",
          "type": "string"
        },
        {
          "internalType": "uint256",
          "name": "target",
          "type": "uint256"
        }
      ],
      "name": "startFundRaiser",
      "outputs": [],
      "stateMutability": "nonpayable",
      "type": "function"
    },
    {
      "inputs": [
        {
          "internalType": "uint256",
          "name": "_id",
          "type": "uint256"
        }
      ],
      "name": "fund",
      "outputs": [],
      "stateMutability": "payable",
      "type": "function"
    },
    {
      "inputs": [
        {
          "internalType": "uint256",
          "name": "_fundRaiserId",
          "type": "uint256"
        }
      ],
      "name": "redeemFunds",
      "outputs": [],
      "stateMutability": "nonpayable",
      "type": "function"
    },
    {
      "inputs": [],
      "name": "getBalance",
      "outputs": [
        {
          "internalType": "uint256",
          "name": "",
          "type": "uint256"
        }
      ],
      "stateMutability": "view",
      "type": "function"
    },
    {
      "inputs": [
        {
          "internalType": "uint256",
          "name": "_fundRaiserId",
          "type": "uint256"
        }
      ],
      "name": "withdrawFromContract",
      "outputs": [],
      "stateMutability": "nonpayable",
      "type": "function"
    }
  ],
  "bytecode": "0x608060405260006003556000600555600060085534801561001f57600080fd5b50336000806101000a81548173ffffffffffffffffffffffffffffffffffffffff021916908373ffffffffffffffffffffffffffffffffffffffff160217905550611e458061006f6000396000f3fe6080604052600436106100df576000357c010000000000000000000000000000000000000000000000000000000090048063a87430ba1161009c578063bc07b77911610076578063bc07b7791461029f578063bdb598f1146102c8578063ca1d209d146102f1578063cc6cb19a1461030d576100df565b8063a87430ba14610222578063aeae547d1461025f578063b688a36314610288576100df565b806304f67234146100e457806312065fe0146101275780631f5225951461015257806329987cfb1461017d5780636bda722b146101ba5780638da5cb5b146101f7575b600080fd5b3480156100f057600080fd5b5061010b600480360381019061010691906113d7565b61034a565b60405161011e97969594939291906118c1565b60405180910390f35b34801561013357600080fd5b5061013c6104d6565b6040516101499190611ae5565b60405180910390f35b34801561015e57600080fd5b506101676104f5565b6040516101749190611ae5565b60405180910390f35b34801561018957600080fd5b506101a4600480360381019061019f91906113d7565b6104fb565b6040516101b1919061198a565b60405180910390f35b3480156101c657600080fd5b506101e160048036038101906101dc919061132f565b61051b565b6040516101ee919061198a565b60405180910390f35b34801561020357600080fd5b5061020c61053b565b6040516102199190611853565b60405180910390f35b34801561022e57600080fd5b506102496004803603810190610244919061132f565b61055f565b6040516102569190611ae5565b60405180910390f35b34801561026b57600080fd5b50610286600480360381019061028191906113d7565b610577565b005b34801561029457600080fd5b5061029d610957565b005b3480156102ab57600080fd5b506102c660048036038101906102c191906113d7565b610adb565b005b3480156102d457600080fd5b506102ef60048036038101906102ea9190611358565b610dba565b005b61030b600480360381019061030691906113d7565b61100d565b005b34801561031957600080fd5b50610334600480360381019061032f919061132f565b6111e2565b6040516103419190611ae5565b60405180910390f35b60066020528060005260406000206000915090508060000160009054906101000a900473ffffffffffffffffffffffffffffffffffffffff169080600101805461039390611ce2565b80601f01602080910402602001604051908101604052809291908181526020018280546103bf90611ce2565b801561040c5780601f106103e15761010080835404028352916020019161040c565b820191906000526020600020905b8154815290600101906020018083116103ef57829003601f168201915b50505050509080600201805461042190611ce2565b80601f016020809104026020016040519081016040528092919081815260200182805461044d90611ce2565b801561049a5780601f1061046f5761010080835404028352916020019161049a565b820191906000526020600020905b81548152906001019060200180831161047d57829003601f168201915b5050505050908060030154908060040154908060050160009054906101000a900460ff16908060050160019054906101000a900460ff16905087565b60003073ffffffffffffffffffffffffffffffffffffffff1631905090565b60055481565b60076020528060005260406000206000915054906101000a900460ff1681565b60026020528060005260406000206000915054906101000a900460ff1681565b60008054906101000a900473ffffffffffffffffffffffffffffffffffffffff1681565b60016020528060005260406000206000915090505481565b60008054906101000a900473ffffffffffffffffffffffffffffffffffffffff1673ffffffffffffffffffffffffffffffffffffffff163373ffffffffffffffffffffffffffffffffffffffff1614610605576040517f08c379a00000000000000000000000000000000000000000000000000000000081526004016105fc90611a05565b60405180910390fd5b6007600082815260200190815260200160002060009054906101000a900460ff16610665576040517f08c379a000000000000000000000000000000000000000000000000000000000815260040161065c906119a5565b60405180910390fd5b6000600660008381526020019081526020016000206040518060e00160405290816000820160009054906101000a900473ffffffffffffffffffffffffffffffffffffffff1673ffffffffffffffffffffffffffffffffffffffff1673ffffffffffffffffffffffffffffffffffffffff1681526020016001820180546106eb90611ce2565b80601f016020809104026020016040519081016040528092919081815260200182805461071790611ce2565b80156107645780601f1061073957610100808354040283529160200191610764565b820191906000526020600020905b81548152906001019060200180831161074757829003601f168201915b5050505050815260200160028201805461077d90611ce2565b80601f01602080910402602001604051908101604052809291908181526020018280546107a990611ce2565b80156107f65780601f106107cb576101008083540402835291602001916107f6565b820191906000526020600020905b8154815290600101906020018083116107d957829003601f168201915b5050505050815260200160038201548152602001600482015481526020016005820160009054906101000a900460ff161515151581526020016005820160019054906101000a900460ff16151515158152505090508060c0015161088f576040517f08c379a000000000000000000000000000000000000000000000000000000000815260040161088690611a85565b60405180910390fd5b60003373ffffffffffffffffffffffffffffffffffffffff163073ffffffffffffffffffffffffffffffffffffffff16316040516108cc9061183e565b60006040518083038185875af1925050503d8060008114610909576040519150601f19603f3d011682016040523d82523d6000602084013e61090e565b606091505b5050905080610952576040517f08c379a000000000000000000000000000000000000000000000000000000000815260040161094990611a25565b60405180910390fd5b505050565b60001515600260003373ffffffffffffffffffffffffffffffffffffffff1673ffffffffffffffffffffffffffffffffffffffff16815260200190815260200160002060009054906101000a900460ff161515146109ea576040517f08c379a00000000000000000000000000000000000000000000000000000000081526004016109e190611a65565b60405180910390fd5b6001600360008282546109fd9190611b9d565b92505081905550600354600160003373ffffffffffffffffffffffffffffffffffffffff1673ffffffffffffffffffffffffffffffffffffffff168152602001908152602001600020819055506001600260003373ffffffffffffffffffffffffffffffffffffffff1673ffffffffffffffffffffffffffffffffffffffff16815260200190815260200160002060006101000a81548160ff0219169083151502179055507f19ef9a4877199f89440a26acb26895ec02ed86f2df1aeaa90dc18041b892f71f33604051610ad19190611853565b60405180910390a1565b6007600082815260200190815260200160002060009054906101000a900460ff16610b3b576040517f08c379a0000000000000000000000000000000000000000000000000000000008152600401610b32906119a5565b60405180910390fd5b60006006600083815260200190815260200160002090508060000160009054906101000a900473ffffffffffffffffffffffffffffffffffffffff1673ffffffffffffffffffffffffffffffffffffffff163373ffffffffffffffffffffffffffffffffffffffff1614610be4576040517f08c379a0000000000000000000000000000000000000000000000000000000008152600401610bdb906119e5565b60405180910390fd5b8060050160009054906101000a900460ff16610c35576040517f08c379a0000000000000000000000000000000000000000000000000000000008152600401610c2c90611aa5565b60405180910390fd5b8060050160019054906101000a900460ff1615610c87576040517f08c379a0000000000000000000000000000000000000000000000000000000008152600401610c7e906119c5565b60405180910390fd5b6000600a8260040154610c9a9190611bf3565b8260040154610ca99190611c24565b905060003373ffffffffffffffffffffffffffffffffffffffff1682604051610cd19061183e565b60006040518083038185875af1925050503d8060008114610d0e576040519150601f19603f3d011682016040523d82523d6000602084013e610d13565b606091505b5050905080610d57576040517f08c379a0000000000000000000000000000000000000000000000000000000008152600401610d4e90611a25565b60405180910390fd5b60018360050160016101000a81548160ff0219169083151502179055507f1808b841eb16c14c59b7f58642fb214dc5a2fe88a2844142a9b1cc36aa9e3d0c33838686600101604051610dac949392919061193e565b60405180910390a150505050565b600260003373ffffffffffffffffffffffffffffffffffffffff1673ffffffffffffffffffffffffffffffffffffffff16815260200190815260200160002060009054906101000a900460ff16610e46576040517f08c379a0000000000000000000000000000000000000000000000000000000008152600401610e3d90611a45565b60405180910390fd5b600160086000828254610e599190611b9d565b925050819055506040518060e001604052803373ffffffffffffffffffffffffffffffffffffffff168152602001848152602001838152602001828152602001600081526020016000151581526020016000151581525060066000600854815260200190815260200160002060008201518160000160006101000a81548173ffffffffffffffffffffffffffffffffffffffff021916908373ffffffffffffffffffffffffffffffffffffffff1602179055506020820151816001019080519060200190610f289291906111fa565b506040820151816002019080519060200190610f459291906111fa565b50606082015181600301556080820151816004015560a08201518160050160006101000a81548160ff02191690831515021790555060c08201518160050160016101000a81548160ff021916908315150217905550905050600160076000600854815260200190815260200160002060006101000a81548160ff0219169083151502179055507f8354bf6ed7dfb0877fd035778ca5d5b2b626068a192b55fbd6357cab7f227afd33848484604051611000949392919061186e565b60405180910390a1505050565b60003411611050576040517f08c379a000000000000000000000000000000000000000000000000000000000815260040161104790611ac5565b60405180910390fd5b6007600082815260200190815260200160002060009054906101000a900460ff166110b0576040517f08c379a00000000000000000000000000000000000000000000000000000000081526004016110a7906119a5565b60405180910390fd5b6000600660008381526020019081526020016000209050348160040160008282546110db9190611b9d565b92505081905550600015158160050160009054906101000a900460ff161515141561112e57806003015481600401541061112d5760018160050160006101000a81548160ff0219169083151502179055505b5b34600460003373ffffffffffffffffffffffffffffffffffffffff1673ffffffffffffffffffffffffffffffffffffffff168152602001908152602001600020600082825461117d9190611b9d565b925050819055506001600560008282546111979190611b9d565b925050819055507fc82dbad294968bc7f7b9388576e4bc9f0e39bde2e5e735dd4d935a5e53f95399333484846001016040516111d6949392919061193e565b60405180910390a15050565b60046020528060005260406000206000915090505481565b82805461120690611ce2565b90600052602060002090601f016020900481019282611228576000855561126f565b82601f1061124157805160ff191683800117855561126f565b8280016001018555821561126f579182015b8281111561126e578251825591602001919060010190611253565b5b50905061127c9190611280565b5090565b5b80821115611299576000816000905550600101611281565b5090565b60006112b06112ab84611b31565b611b00565b9050828152602081018484840111156112c857600080fd5b6112d3848285611ca0565b509392505050565b6000813590506112ea81611de1565b92915050565b600082601f83011261130157600080fd5b813561131184826020860161129d565b91505092915050565b60008135905061132981611df8565b92915050565b60006020828403121561134157600080fd5b600061134f848285016112db565b91505092915050565b60008060006060848603121561136d57600080fd5b600084013567ffffffffffffffff81111561138757600080fd5b611393868287016112f0565b935050602084013567ffffffffffffffff8111156113b057600080fd5b6113bc868287016112f0565b92505060406113cd8682870161131a565b9150509250925092565b6000602082840312156113e957600080fd5b60006113f78482850161131a565b91505092915050565b61140981611c58565b82525050565b61141881611c6a565b82525050565b600061142982611b76565b6114338185611b8c565b9350611443818560208601611caf565b61144c81611dd0565b840191505092915050565b6000815461146481611ce2565b61146e8186611b8c565b94506001821660008114611489576001811461149b576114ce565b60ff19831686526020860193506114ce565b6114a485611b61565b60005b838110156114c6578154818901526001820191506020810190506114a7565b808801955050505b50505092915050565b60006114e4602e83611b8c565b91507f546869732049447320646f6573206e6f7420657869737420696e20746865206660008301527f756e64726169736572206c6973740000000000000000000000000000000000006020830152604082019050919050565b600061154a602983611b8c565b91507f546869732066756e647261697365722068617320616c7265616479206265656e60008301527f2072656465656d656400000000000000000000000000000000000000000000006020830152604082019050919050565b60006115b0602883611b8c565b91507f596f7520617265206e6f7420746865206f776e6572206f66207468697320667560008301527f6e647261697365720000000000000000000000000000000000000000000000006020830152604082019050919050565b6000611616601c83611b8c565b91507f4f6e6c79206f776e65722063616e2063616c6c20636f6e7472616374000000006000830152602082019050919050565b6000611656601483611b8c565b91507f4661696c656420746f2073656e642045746865720000000000000000000000006000830152602082019050919050565b6000611696602483611b8c565b91507f536f7272792e20596f7520617265206e6f74206120726567697374657265642060008301527f75736572000000000000000000000000000000000000000000000000000000006020830152604082019050919050565b60006116fc601a83611b8c565b91507f596f752061726520616c726561647920726567697374657265640000000000006000830152602082019050919050565b600061173c600083611b81565b9150600082019050919050565b6000611756602d83611b8c565b91507f546869732066756e647261697365722068617320616c7265616479206e6f742060008301527f6265656e2072656465656d6564000000000000000000000000000000000000006020830152604082019050919050565b60006117bc601b83611b8c565b91507f54617267657420686173206e6f74206265656e207265616368656400000000006000830152602082019050919050565b60006117fc601183611b8c565b91507f496e73756666696369656e742066756e640000000000000000000000000000006000830152602082019050919050565b61183881611c96565b82525050565b60006118498261172f565b9150819050919050565b60006020820190506118686000830184611400565b92915050565b60006080820190506118836000830187611400565b8181036020830152611895818661141e565b905081810360408301526118a9818561141e565b90506118b8606083018461182f565b95945050505050565b600060e0820190506118d6600083018a611400565b81810360208301526118e8818961141e565b905081810360408301526118fc818861141e565b905061190b606083018761182f565b611918608083018661182f565b61192560a083018561140f565b61193260c083018461140f565b98975050505050505050565b60006080820190506119536000830187611400565b611960602083018661182f565b61196d604083018561182f565b818103606083015261197f8184611457565b905095945050505050565b600060208201905061199f600083018461140f565b92915050565b600060208201905081810360008301526119be816114d7565b9050919050565b600060208201905081810360008301526119de8161153d565b9050919050565b600060208201905081810360008301526119fe816115a3565b9050919050565b60006020820190508181036000830152611a1e81611609565b9050919050565b60006020820190508181036000830152611a3e81611649565b9050919050565b60006020820190508181036000830152611a5e81611689565b9050919050565b60006020820190508181036000830152611a7e816116ef565b9050919050565b60006020820190508181036000830152611a9e81611749565b9050919050565b60006020820190508181036000830152611abe816117af565b9050919050565b60006020820190508181036000830152611ade816117ef565b9050919050565b6000602082019050611afa600083018461182f565b92915050565b6000604051905081810181811067ffffffffffffffff82111715611b2757611b26611da1565b5b8060405250919050565b600067ffffffffffffffff821115611b4c57611b4b611da1565b5b601f19601f8301169050602081019050919050565b60008190508160005260206000209050919050565b600081519050919050565b600081905092915050565b600082825260208201905092915050565b6000611ba882611c96565b9150611bb383611c96565b9250827fffffffffffffffffffffffffffffffffffffffffffffffffffffffffffffffff03821115611be857611be7611d14565b5b828201905092915050565b6000611bfe82611c96565b9150611c0983611c96565b925082611c1957611c18611d43565b5b828204905092915050565b6000611c2f82611c96565b9150611c3a83611c96565b925082821015611c4d57611c4c611d14565b5b828203905092915050565b6000611c6382611c76565b9050919050565b60008115159050919050565b600073ffffffffffffffffffffffffffffffffffffffff82169050919050565b6000819050919050565b82818337600083830152505050565b60005b83811015611ccd578082015181840152602081019050611cb2565b83811115611cdc576000848401525b50505050565b60006002820490506001821680611cfa57607f821691505b60208210811415611d0e57611d0d611d72565b5b50919050565b7f4e487b7100000000000000000000000000000000000000000000000000000000600052601160045260246000fd5b7f4e487b7100000000000000000000000000000000000000000000000000000000600052601260045260246000fd5b7f4e487b7100000000000000000000000000000000000000000000000000000000600052602260045260246000fd5b7f4e487b7100000000000000000000000000000000000000000000000000000000600052604160045260246000fd5b6000601f19601f8301169050919050565b611dea81611c58565b8114611df557600080fd5b50565b611e0181611c96565b8114611e0c57600080fd5b5056fea2646970667358221220b3593f223b9bab915ee720b9363aa3e1f20e3ee5b7bc84cdad23a6efea52f58a64736f6c63430008000033",
  "immutableReferences": {},
  "source": "// SPDX-License-Identifier: MIT\npragma solidity >=0.4.22 <0.9.0;\n\ncontract Crowdfunding{\n    address public owner;\n\n    mapping(address => uint) public users;\n    mapping(address => bool) public userAdded;\n    uint userCount = 0;\n\n    event UserAdded(\n        address user\n    );\n\n    mapping(address => uint) public donations;\n    uint public donationsCount = 0;\n\n    struct FundRaiser{\n        address owner;\n        string title;\n        string description;\n        uint target;\n        uint amountRaised;\n        bool targetReached;\n        bool redeemed;\n    }\n\n    event FundRaiserCreated(\n        address owner,\n        string title,\n        string description,\n        uint target\n    );\n\n    mapping(uint => FundRaiser) public fundsRaisers;\n    mapping(uint => bool) public fundsRaiserAdded;\n\n    event Funded(\n        address sender,\n        uint amountSent,\n        uint fundId,\n        string fundTitle\n    );\n\n    uint fundsRaisersCount = 0;\n\n    event Redeemed(\n        address owner,\n        uint amount,\n        uint fundRaiserId,\n        string fundTitle\n    );\n\n    constructor(){\n        owner = msg.sender;\n    }\n\n    modifier onlyOwner(){\n        require(msg.sender == owner, \"Only owner can call contract\");\n        _;\n    }\n\n    function join() external {\n        require(userAdded[msg.sender] == false, \"You are already registered\");\n        userCount += 1;\n        users[msg.sender] = userCount;\n        userAdded[msg.sender] = true;\n        emit UserAdded(msg.sender);\n    }\n\n    function startFundRaiser(string memory _title, string memory _desc, uint target) external {\n        require(userAdded[msg.sender], \"Sorry. You are not a registered user\");\n        fundsRaisersCount += 1;\n        fundsRaisers[fundsRaisersCount] = FundRaiser(msg.sender, _title, _desc, target, 0, false, false);\n        fundsRaiserAdded[fundsRaisersCount] = true;\n        emit FundRaiserCreated(msg.sender, _title, _desc, target);\n    }\n\n    function fund(uint _id) external payable{\n        require(msg.value > 0, \"Insufficient fund\");\n        require(fundsRaiserAdded[_id], \"This IDs does not exist in the fundraiser list\");\n        FundRaiser storage _fund = fundsRaisers[_id];\n        _fund.amountRaised += msg.value;\n        if(_fund.targetReached == false){\n            if(_fund.amountRaised >= _fund.target){\n                _fund.targetReached = true;\n            }\n        }\n        donations[msg.sender] += msg.value;\n        donationsCount += 1;\n        emit Funded(msg.sender, msg.value, _id, _fund.title);\n\n    }\n\n    function redeemFunds(uint _fundRaiserId) external{\n        require(fundsRaiserAdded[_fundRaiserId], \"This IDs does not exist in the fundraiser list\");\n        FundRaiser storage _fund = fundsRaisers[_fundRaiserId];\n        require(msg.sender == _fund.owner, \"You are not the owner of this fundraiser\");\n        require(_fund.targetReached, \"Target has not been reached\");\n        require(!(_fund.redeemed), \"This fundraiser has already been redeemed\");\n        uint amountSendable = _fund.amountRaised - (_fund.amountRaised/10);\n        (bool sent, ) = payable(msg.sender).call{value: amountSendable}(\"\");\n        require(sent, \"Failed to send Ether\");\n        _fund.redeemed = true;\n        emit Redeemed(msg.sender, amountSendable, _fundRaiserId, _fund.title);\n    }\n\n    function getBalance() external view returns(uint) {\n        return address(this).balance;\n    }\n\n    function withdrawFromContract(uint _fundRaiserId) external onlyOwner{\n        require(fundsRaiserAdded[_fundRaiserId], \"This IDs does not exist in the fundraiser list\");\n        FundRaiser memory _fund = fundsRaisers[_fundRaiserId];\n        require(_fund.redeemed, \"This fundraiser has already not been redeemed\");\n        (bool sent, ) = payable(msg.sender).call{value: address(this).balance}(\"\");\n        require(sent, \"Failed to send Ether\");\n    }\n}",
  "sourcePath": "/Users/godspowereze/Documents/Projects/30DaysOfSolidity/Day_8_Crowdfunding/contracts/Crowdfunding.sol",
  "compiler": {
    "name": "solc",
    "version": "0.8.0+commit.c7dfd78e.Emscripten.clang"
  },
  "schemaVersion": "3.4.3",
  "updatedAt": "2022-01-29T04:32:32.230Z",
  "devdoc": {
    "kind": "dev",
    "methods": {},
    "version": 1
  },
  "userdoc": {
    "kind": "user",
    "methods": {},
    "version": 1
  }
}