{
  "contractName": "Crowdfunding",
  "abi": [
    {
      "inputs": [],
      "stateMutability": "nonpayable",
      "type": "constructor"
    },
    {
      "anonymous": false,
      "inputs": [
        {
          "indexed": false,
          "internalType": "address",
          "name": "owner",
          "type": "address"
        },
        {
          "indexed": false,
          "internalType": "string",
          "name": "title",
          "type": "string"
        },
        {
          "indexed": false,
          "internalType": "string",
          "name": "description",
          "type": "string"
        },
        {
          "indexed": false,
          "internalType": "uint256",
          "name": "target",
          "type": "uint256"
        }
      ],
      "name": "FundRaiserCreated",
      "type": "event"
    },
    {
      "anonymous": false,
      "inputs": [
        {
          "indexed": false,
          "internalType": "address",
          "name": "sender",
          "type": "address"
        },
        {
          "indexed": false,
          "internalType": "uint256",
          "name": "amountSent",
          "type": "uint256"
        },
        {
          "indexed": false,
          "internalType": "uint256",
          "name": "fundId",
          "type": "uint256"
        },
        {
          "indexed": false,
          "internalType": "string",
          "name": "fundTitle",
          "type": "string"
        }
      ],
      "name": "Funded",
      "type": "event"
    },
    {
      "anonymous": false,
      "inputs": [
        {
          "indexed": false,
          "internalType": "address",
          "name": "owner",
          "type": "address"
        },
        {
          "indexed": false,
          "internalType": "uint256",
          "name": "amount",
          "type": "uint256"
        },
        {
          "indexed": false,
          "internalType": "uint256",
          "name": "fundRaiserId",
          "type": "uint256"
        },
        {
          "indexed": false,
          "internalType": "string",
          "name": "fundTitle",
          "type": "string"
        }
      ],
      "name": "Redeemed",
      "type": "event"
    },
    {
      "anonymous": false,
      "inputs": [
        {
          "indexed": false,
          "internalType": "address",
          "name": "user",
          "type": "address"
        }
      ],
      "name": "UserAdded",
      "type": "event"
    },
    {
      "inputs": [
        {
          "internalType": "address",
          "name": "",
          "type": "address"
        }
      ],
      "name": "donations",
      "outputs": [
        {
          "internalType": "uint256",
          "name": "",
          "type": "uint256"
        }
      ],
      "stateMutability": "view",
      "type": "function"
    },
    {
      "inputs": [],
      "name": "donationsCount",
      "outputs": [
        {
          "internalType": "uint256",
          "name": "",
          "type": "uint256"
        }
      ],
      "stateMutability": "view",
      "type": "function"
    },
    {
      "inputs": [
        {
          "internalType": "uint256",
          "name": "",
          "type": "uint256"
        }
      ],
      "name": "fundsRaiserAdded",
      "outputs": [
        {
          "internalType": "bool",
          "name": "",
          "type": "bool"
        }
      ],
      "stateMutability": "view",
      "type": "function"
    },
    {
      "inputs": [
        {
          "internalType": "uint256",
          "name": "",
          "type": "uint256"
        }
      ],
      "name": "fundsRaisers",
      "outputs": [
        {
          "internalType": "address",
          "name": "owner",
          "type": "address"
        },
        {
          "internalType": "string",
          "name": "title",
          "type": "string"
        },
        {
          "internalType": "string",
          "name": "description",
          "type": "string"
        },
        {
          "internalType": "uint256",
          "name": "target",
          "type": "uint256"
        },
        {
          "internalType": "uint256",
          "name": "amountRaised",
          "type": "uint256"
        },
        {
          "internalType": "uint256",
          "name": "balance",
          "type": "uint256"
        },
        {
          "internalType": "bool",
          "name": "targetReached",
          "type": "bool"
        }
      ],
      "stateMutability": "view",
      "type": "function"
    },
    {
      "inputs": [],
      "name": "owner",
      "outputs": [
        {
          "internalType": "address",
          "name": "",
          "type": "address"
        }
      ],
      "stateMutability": "view",
      "type": "function"
    },
    {
      "inputs": [],
      "name": "ownerBalance",
      "outputs": [
        {
          "internalType": "uint256",
          "name": "",
          "type": "uint256"
        }
      ],
      "stateMutability": "view",
      "type": "function"
    },
    {
      "inputs": [
        {
          "internalType": "address",
          "name": "",
          "type": "address"
        }
      ],
      "name": "userAdded",
      "outputs": [
        {
          "internalType": "bool",
          "name": "",
          "type": "bool"
        }
      ],
      "stateMutability": "view",
      "type": "function"
    },
    {
      "inputs": [
        {
          "internalType": "address",
          "name": "",
          "type": "address"
        }
      ],
      "name": "users",
      "outputs": [
        {
          "internalType": "uint256",
          "name": "",
          "type": "uint256"
        }
      ],
      "stateMutability": "view",
      "type": "function"
    },
    {
      "inputs": [],
      "name": "join",
      "outputs": [],
      "stateMutability": "nonpayable",
      "type": "function"
    },
    {
      "inputs": [
        {
          "internalType": "string",
          "name": "_title",
          "type": "string"
        },
        {
          "internalType": "string",
          "name": "_desc",
          "type": "string"
        },
        {
          "internalType": "uint256",
          "name": "target",
          "type": "uint256"
        }
      ],
      "name": "startFundRaiser",
      "outputs": [],
      "stateMutability": "nonpayable",
      "type": "function"
    },
    {
      "inputs": [
        {
          "internalType": "uint256",
          "name": "_id",
          "type": "uint256"
        }
      ],
      "name": "fund",
      "outputs": [],
      "stateMutability": "payable",
      "type": "function"
    },
    {
      "inputs": [
        {
          "internalType": "uint256",
          "name": "_fundRaiserId",
          "type": "uint256"
        },
        {
          "internalType": "uint256",
          "name": "amount",
          "type": "uint256"
        }
      ],
      "name": "redeemFunds",
      "outputs": [],
      "stateMutability": "nonpayable",
      "type": "function"
    },
    {
      "inputs": [],
      "name": "getBalance",
      "outputs": [
        {
          "internalType": "uint256",
          "name": "",
          "type": "uint256"
        }
      ],
      "stateMutability": "view",
      "type": "function"
    },
    {
      "inputs": [],
      "name": "withdraw",
      "outputs": [],
      "stateMutability": "nonpayable",
      "type": "function"
    }
  ],
  "bytecode": "0x6080604052600060015560006004556000600655600060095534801561002457600080fd5b50336000806101000a81548173ffffffffffffffffffffffffffffffffffffffff021916908373ffffffffffffffffffffffffffffffffffffffff160217905550611b9d806100746000396000f3fe6080604052600436106100fa576000357c0100000000000000000000000000000000000000000000000000000000900480638da5cb5b1161009c578063bdb598f111610076578063bdb598f1146102d1578063bedcf003146102fa578063ca1d209d14610325578063cc6cb19a14610341576100fa565b80638da5cb5b14610252578063a87430ba1461027d578063b688a363146102ba576100fa565b806329987cfb116100d857806329987cfb146101985780633ccfd60b146101d5578063504ac483146101ec5780636bda722b14610215576100fa565b806304f67234146100ff57806312065fe0146101425780631f5225951461016d575b600080fd5b34801561010b57600080fd5b5061012660048036038101906101219190611179565b61037e565b6040516101399796959493929190611639565b60405180910390f35b34801561014e57600080fd5b506101576104fd565b604051610164919061183d565b60405180910390f35b34801561017957600080fd5b5061018261051c565b60405161018f919061183d565b60405180910390f35b3480156101a457600080fd5b506101bf60048036038101906101ba9190611179565b610522565b6040516101cc9190611702565b60405180910390f35b3480156101e157600080fd5b506101ea610542565b005b3480156101f857600080fd5b50610213600480360381019061020e91906111a2565b610689565b005b34801561022157600080fd5b5061023c600480360381019061023791906110d1565b610973565b6040516102499190611702565b60405180910390f35b34801561025e57600080fd5b50610267610993565b60405161027491906115cb565b60405180910390f35b34801561028957600080fd5b506102a4600480360381019061029f91906110d1565b6109b7565b6040516102b1919061183d565b60405180910390f35b3480156102c657600080fd5b506102cf6109cf565b005b3480156102dd57600080fd5b506102f860048036038101906102f391906110fa565b610b53565b005b34801561030657600080fd5b5061030f610d8e565b60405161031c919061183d565b60405180910390f35b61033f600480360381019061033a9190611179565b610d94565b005b34801561034d57600080fd5b50610368600480360381019061036391906110d1565b610f84565b604051610375919061183d565b60405180910390f35b60076020528060005260406000206000915090508060000160009054906101000a900473ffffffffffffffffffffffffffffffffffffffff16908060010180546103c790611a3a565b80601f01602080910402602001604051908101604052809291908181526020018280546103f390611a3a565b80156104405780601f1061041557610100808354040283529160200191610440565b820191906000526020600020905b81548152906001019060200180831161042357829003601f168201915b50505050509080600201805461045590611a3a565b80601f016020809104026020016040519081016040528092919081815260200182805461048190611a3a565b80156104ce5780601f106104a3576101008083540402835291602001916104ce565b820191906000526020600020905b8154815290600101906020018083116104b157829003601f168201915b5050505050908060030154908060040154908060050154908060060160009054906101000a900460ff16905087565b60003073ffffffffffffffffffffffffffffffffffffffff1631905090565b60065481565b60086020528060005260406000206000915054906101000a900460ff1681565b60008054906101000a900473ffffffffffffffffffffffffffffffffffffffff1673ffffffffffffffffffffffffffffffffffffffff163373ffffffffffffffffffffffffffffffffffffffff16146105d0576040517f08c379a00000000000000000000000000000000000000000000000000000000081526004016105c79061173d565b60405180910390fd5b60003373ffffffffffffffffffffffffffffffffffffffff166001546040516105f8906115b6565b60006040518083038185875af1925050503d8060008114610635576040519150601f19603f3d011682016040523d82523d6000602084013e61063a565b606091505b505090508061067e576040517f08c379a00000000000000000000000000000000000000000000000000000000081526004016106759061177d565b60405180910390fd5b600060018190555050565b6008600083815260200190815260200160002060009054906101000a900460ff166106e9576040517f08c379a00000000000000000000000000000000000000000000000000000000081526004016106e09061171d565b60405180910390fd5b60006007600084815260200190815260200160002090508060000160009054906101000a900473ffffffffffffffffffffffffffffffffffffffff1673ffffffffffffffffffffffffffffffffffffffff163373ffffffffffffffffffffffffffffffffffffffff1614610792576040517f08c379a00000000000000000000000000000000000000000000000000000000081526004016107899061175d565b60405180910390fd5b81816005015410156107d9576040517f08c379a00000000000000000000000000000000000000000000000000000000081526004016107d09061179d565b60405180910390fd5b8060060160009054906101000a900460ff1661082a576040517f08c379a00000000000000000000000000000000000000000000000000000000081526004016108219061181d565b60405180910390fd5b6000600a83610839919061194b565b905060008184610849919061197c565b905060003373ffffffffffffffffffffffffffffffffffffffff1682604051610871906115b6565b60006040518083038185875af1925050503d80600081146108ae576040519150601f19603f3d011682016040523d82523d6000602084013e6108b3565b606091505b50509050806108f7576040517f08c379a00000000000000000000000000000000000000000000000000000000081526004016108ee9061177d565b60405180910390fd5b8484600501600082825461090b919061197c565b92505081905550826001600082825461092491906118f5565b925050819055507f1808b841eb16c14c59b7f58642fb214dc5a2fe88a2844142a9b1cc36aa9e3d0c3383888760010160405161096394939291906116b6565b60405180910390a1505050505050565b60036020528060005260406000206000915054906101000a900460ff1681565b60008054906101000a900473ffffffffffffffffffffffffffffffffffffffff1681565b60026020528060005260406000206000915090505481565b60001515600360003373ffffffffffffffffffffffffffffffffffffffff1673ffffffffffffffffffffffffffffffffffffffff16815260200190815260200160002060009054906101000a900460ff16151514610a62576040517f08c379a0000000000000000000000000000000000000000000000000000000008152600401610a59906117dd565b60405180910390fd5b600160046000828254610a7591906118f5565b92505081905550600454600260003373ffffffffffffffffffffffffffffffffffffffff1673ffffffffffffffffffffffffffffffffffffffff168152602001908152602001600020819055506001600360003373ffffffffffffffffffffffffffffffffffffffff1673ffffffffffffffffffffffffffffffffffffffff16815260200190815260200160002060006101000a81548160ff0219169083151502179055507f19ef9a4877199f89440a26acb26895ec02ed86f2df1aeaa90dc18041b892f71f33604051610b4991906115cb565b60405180910390a1565b600360003373ffffffffffffffffffffffffffffffffffffffff1673ffffffffffffffffffffffffffffffffffffffff16815260200190815260200160002060009054906101000a900460ff16610bdf576040517f08c379a0000000000000000000000000000000000000000000000000000000008152600401610bd6906117bd565b60405180910390fd5b600160096000828254610bf291906118f5565b925050819055506040518060e001604052803373ffffffffffffffffffffffffffffffffffffffff16815260200184815260200183815260200182815260200160008152602001600081526020016000151581525060076000600954815260200190815260200160002060008201518160000160006101000a81548173ffffffffffffffffffffffffffffffffffffffff021916908373ffffffffffffffffffffffffffffffffffffffff1602179055506020820151816001019080519060200190610cbf929190610f9c565b506040820151816002019080519060200190610cdc929190610f9c565b50606082015181600301556080820151816004015560a0820151816005015560c08201518160060160006101000a81548160ff021916908315150217905550905050600160086000600954815260200190815260200160002060006101000a81548160ff0219169083151502179055507f8354bf6ed7dfb0877fd035778ca5d5b2b626068a192b55fbd6357cab7f227afd33848484604051610d8194939291906115e6565b60405180910390a1505050565b60015481565b60003411610dd7576040517f08c379a0000000000000000000000000000000000000000000000000000000008152600401610dce906117fd565b60405180910390fd5b6008600082815260200190815260200160002060009054906101000a900460ff16610e37576040517f08c379a0000000000000000000000000000000000000000000000000000000008152600401610e2e9061171d565b60405180910390fd5b600060076000838152602001908152602001600020905034816005016000828254610e6291906118f5565b9250508190555034816004016000828254610e7d91906118f5565b92505081905550600015158160060160009054906101000a900460ff1615151415610ed0578060030154816004015410610ecf5760018160060160006101000a81548160ff0219169083151502179055505b5b34600560003373ffffffffffffffffffffffffffffffffffffffff1673ffffffffffffffffffffffffffffffffffffffff1681526020019081526020016000206000828254610f1f91906118f5565b92505081905550600160066000828254610f3991906118f5565b925050819055507fc82dbad294968bc7f7b9388576e4bc9f0e39bde2e5e735dd4d935a5e53f9539933348484600101604051610f7894939291906116b6565b60405180910390a15050565b60056020528060005260406000206000915090505481565b828054610fa890611a3a565b90600052602060002090601f016020900481019282610fca5760008555611011565b82601f10610fe357805160ff1916838001178555611011565b82800160010185558215611011579182015b82811115611010578251825591602001919060010190610ff5565b5b50905061101e9190611022565b5090565b5b8082111561103b576000816000905550600101611023565b5090565b600061105261104d84611889565b611858565b90508281526020810184848401111561106a57600080fd5b6110758482856119f8565b509392505050565b60008135905061108c81611b39565b92915050565b600082601f8301126110a357600080fd5b81356110b384826020860161103f565b91505092915050565b6000813590506110cb81611b50565b92915050565b6000602082840312156110e357600080fd5b60006110f18482850161107d565b91505092915050565b60008060006060848603121561110f57600080fd5b600084013567ffffffffffffffff81111561112957600080fd5b61113586828701611092565b935050602084013567ffffffffffffffff81111561115257600080fd5b61115e86828701611092565b925050604061116f868287016110bc565b9150509250925092565b60006020828403121561118b57600080fd5b6000611199848285016110bc565b91505092915050565b600080604083850312156111b557600080fd5b60006111c3858286016110bc565b92505060206111d4858286016110bc565b9150509250929050565b6111e7816119b0565b82525050565b6111f6816119c2565b82525050565b6000611207826118ce565b61121181856118e4565b9350611221818560208601611a07565b61122a81611b28565b840191505092915050565b6000815461124281611a3a565b61124c81866118e4565b945060018216600081146112675760018114611279576112ac565b60ff19831686526020860193506112ac565b611282856118b9565b60005b838110156112a457815481890152600182019150602081019050611285565b808801955050505b50505092915050565b60006112c2602e836118e4565b91507f546869732049447320646f6573206e6f7420657869737420696e20746865206660008301527f756e64726169736572206c6973740000000000000000000000000000000000006020830152604082019050919050565b60006113286021836118e4565b91507f4f6e6c79206f776e65722063616e2063616c6c20746869732066756e6374696f60008301527f6e000000000000000000000000000000000000000000000000000000000000006020830152604082019050919050565b600061138e6028836118e4565b91507f596f7520617265206e6f7420746865206f776e6572206f66207468697320667560008301527f6e647261697365720000000000000000000000000000000000000000000000006020830152604082019050919050565b60006113f46014836118e4565b91507f4661696c656420746f2073656e642045746865720000000000000000000000006000830152602082019050919050565b60006114346014836118e4565b91507f496e73756666696369656e742062616c616e63650000000000000000000000006000830152602082019050919050565b60006114746024836118e4565b91507f536f7272792e20596f7520617265206e6f74206120726567697374657265642060008301527f75736572000000000000000000000000000000000000000000000000000000006020830152604082019050919050565b60006114da601a836118e4565b91507f596f752061726520616c726561647920726567697374657265640000000000006000830152602082019050919050565b600061151a6000836118d9565b9150600082019050919050565b60006115346015836118e4565b91507f4e6f7420656e6f7567682065746865722073656e7400000000000000000000006000830152602082019050919050565b6000611574601b836118e4565b91507f54617267657420686173206e6f74206265656e207265616368656400000000006000830152602082019050919050565b6115b0816119ee565b82525050565b60006115c18261150d565b9150819050919050565b60006020820190506115e060008301846111de565b92915050565b60006080820190506115fb60008301876111de565b818103602083015261160d81866111fc565b9050818103604083015261162181856111fc565b905061163060608301846115a7565b95945050505050565b600060e08201905061164e600083018a6111de565b818103602083015261166081896111fc565b9050818103604083015261167481886111fc565b905061168360608301876115a7565b61169060808301866115a7565b61169d60a08301856115a7565b6116aa60c08301846111ed565b98975050505050505050565b60006080820190506116cb60008301876111de565b6116d860208301866115a7565b6116e560408301856115a7565b81810360608301526116f78184611235565b905095945050505050565b600060208201905061171760008301846111ed565b92915050565b60006020820190508181036000830152611736816112b5565b9050919050565b600060208201905081810360008301526117568161131b565b9050919050565b6000602082019050818103600083015261177681611381565b9050919050565b60006020820190508181036000830152611796816113e7565b9050919050565b600060208201905081810360008301526117b681611427565b9050919050565b600060208201905081810360008301526117d681611467565b9050919050565b600060208201905081810360008301526117f6816114cd565b9050919050565b6000602082019050818103600083015261181681611527565b9050919050565b6000602082019050818103600083015261183681611567565b9050919050565b600060208201905061185260008301846115a7565b92915050565b6000604051905081810181811067ffffffffffffffff8211171561187f5761187e611af9565b5b8060405250919050565b600067ffffffffffffffff8211156118a4576118a3611af9565b5b601f19601f8301169050602081019050919050565b60008190508160005260206000209050919050565b600081519050919050565b600081905092915050565b600082825260208201905092915050565b6000611900826119ee565b915061190b836119ee565b9250827fffffffffffffffffffffffffffffffffffffffffffffffffffffffffffffffff038211156119405761193f611a6c565b5b828201905092915050565b6000611956826119ee565b9150611961836119ee565b92508261197157611970611a9b565b5b828204905092915050565b6000611987826119ee565b9150611992836119ee565b9250828210156119a5576119a4611a6c565b5b828203905092915050565b60006119bb826119ce565b9050919050565b60008115159050919050565b600073ffffffffffffffffffffffffffffffffffffffff82169050919050565b6000819050919050565b82818337600083830152505050565b60005b83811015611a25578082015181840152602081019050611a0a565b83811115611a34576000848401525b50505050565b60006002820490506001821680611a5257607f821691505b60208210811415611a6657611a65611aca565b5b50919050565b7f4e487b7100000000000000000000000000000000000000000000000000000000600052601160045260246000fd5b7f4e487b7100000000000000000000000000000000000000000000000000000000600052601260045260246000fd5b7f4e487b7100000000000000000000000000000000000000000000000000000000600052602260045260246000fd5b7f4e487b7100000000000000000000000000000000000000000000000000000000600052604160045260246000fd5b6000601f19601f8301169050919050565b611b42816119b0565b8114611b4d57600080fd5b50565b611b59816119ee565b8114611b6457600080fd5b5056fea26469706673582212207d1069bca92908250fcdb357f4141a562a6fb02ede3a31ecfdc8f0036ce4399764736f6c63430008000033",
  "immutableReferences": {},
  "source": "// SPDX-License-Identifier: MIT\npragma solidity >=0.4.22 <0.9.0;\n\ncontract Crowdfunding{\n    address public owner;\n    uint public ownerBalance = 0;\n\n    mapping(address => uint) public users;\n    mapping(address => bool) public userAdded;\n    uint userCount = 0;\n\n    event UserAdded(\n        address user\n    );\n\n    mapping(address => uint) public donations;\n    uint public donationsCount = 0;\n\n    struct FundRaiser{\n        address owner;\n        string title;\n        string description;\n        uint target;\n        uint amountRaised;\n        uint balance;\n        bool targetReached;\n    }\n\n    event FundRaiserCreated(\n        address owner,\n        string title,\n        string description,\n        uint target\n    );\n\n    mapping(uint => FundRaiser) public fundsRaisers;\n    mapping(uint => bool) public fundsRaiserAdded;\n\n    event Funded(\n        address sender,\n        uint amountSent,\n        uint fundId,\n        string fundTitle\n    );\n\n    uint fundsRaisersCount = 0;\n\n    event Redeemed(\n        address owner,\n        uint amount,\n        uint fundRaiserId,\n        string fundTitle\n    );\n\n    constructor(){\n        owner = msg.sender;\n    }\n\n    modifier onlyOwner(){\n        require(msg.sender == owner, \"Only owner can call this function\");\n        _;\n    }\n\n    function join() external {\n        require(userAdded[msg.sender] == false, \"You are already registered\");\n        userCount += 1;\n        users[msg.sender] = userCount;\n        userAdded[msg.sender] = true;\n        emit UserAdded(msg.sender);\n    }\n\n    function startFundRaiser(string memory _title, string memory _desc, uint target) external {\n        require(userAdded[msg.sender], \"Sorry. You are not a registered user\");\n        fundsRaisersCount += 1;\n        fundsRaisers[fundsRaisersCount] = FundRaiser(msg.sender, _title, _desc, target, 0, 0, false);\n        fundsRaiserAdded[fundsRaisersCount] = true;\n        emit FundRaiserCreated(msg.sender, _title, _desc, target);\n        \n    }\n\n    function fund(uint _id) external payable{\n        require(msg.value > 0, \"Not enough ether sent\");\n        require(fundsRaiserAdded[_id], \"This IDs does not exist in the fundraiser list\");\n        FundRaiser storage _fund = fundsRaisers[_id];\n        _fund.balance += msg.value;\n        _fund.amountRaised += msg.value;\n        if(_fund.targetReached == false){\n            if(_fund.amountRaised >= _fund.target){\n                _fund.targetReached = true;\n            }\n        }\n        donations[msg.sender] += msg.value;\n        donationsCount += 1;\n        emit Funded(msg.sender, msg.value, _id, _fund.title);\n    }\n\n    function redeemFunds(uint _fundRaiserId, uint amount) external{\n        require(fundsRaiserAdded[_fundRaiserId], \"This IDs does not exist in the fundraiser list\");\n        FundRaiser storage _fund = fundsRaisers[_fundRaiserId];\n        require(msg.sender == _fund.owner, \"You are not the owner of this fundraiser\");\n        require(_fund.balance >= amount, \"Insufficient balance\");\n        require(_fund.targetReached, \"Target has not been reached\");\n        uint ownerShare = amount/10;\n        uint amountSendable = amount - ownerShare;\n        (bool sent, ) = payable(msg.sender).call{value: amountSendable}(\"\");\n        require(sent, \"Failed to send Ether\");\n        _fund.balance -= amount;\n        ownerBalance += ownerShare;\n        emit Redeemed(msg.sender, amountSendable, _fundRaiserId, _fund.title);\n    }\n\n    function getBalance() external view returns(uint) {\n        return address(this).balance;\n    }\n\n    function withdraw() external onlyOwner{\n        (bool sent, ) = payable(msg.sender).call{value: ownerBalance}(\"\");\n        require(sent, \"Failed to send Ether\");\n        ownerBalance = 0;\n    }\n}",
  "sourcePath": "/Users/godspowereze/Documents/Projects/30DaysOfSolidity/Day_8_Crowdfunding/contracts/Crowdfunding.sol",
  "compiler": {
    "name": "solc",
    "version": "0.8.0+commit.c7dfd78e.Emscripten.clang"
  },
  "schemaVersion": "3.4.3",
  "updatedAt": "2022-01-29T13:28:46.823Z",
  "devdoc": {
    "kind": "dev",
    "methods": {},
    "version": 1
  },
  "userdoc": {
    "kind": "user",
    "methods": {},
    "version": 1
  }
}