{
  "contractName": "Wallet",
  "abi": [
    {
      "anonymous": false,
      "inputs": [
        {
          "indexed": false,
          "internalType": "address",
          "name": "sender",
          "type": "address"
        },
        {
          "indexed": false,
          "internalType": "address",
          "name": "receiver",
          "type": "address"
        },
        {
          "indexed": false,
          "internalType": "uint256",
          "name": "amount",
          "type": "uint256"
        }
      ],
      "name": "Sent",
      "type": "event"
    },
    {
      "anonymous": false,
      "inputs": [
        {
          "indexed": false,
          "internalType": "address",
          "name": "receiver",
          "type": "address"
        },
        {
          "indexed": false,
          "internalType": "uint256",
          "name": "amount",
          "type": "uint256"
        }
      ],
      "name": "Withdraw",
      "type": "event"
    },
    {
      "inputs": [
        {
          "internalType": "address",
          "name": "",
          "type": "address"
        }
      ],
      "name": "balances",
      "outputs": [
        {
          "internalType": "uint256",
          "name": "",
          "type": "uint256"
        }
      ],
      "stateMutability": "view",
      "type": "function"
    },
    {
      "stateMutability": "payable",
      "type": "receive"
    },
    {
      "inputs": [
        {
          "internalType": "uint256",
          "name": "amount",
          "type": "uint256"
        }
      ],
      "name": "withdraw",
      "outputs": [],
      "stateMutability": "nonpayable",
      "type": "function"
    },
    {
      "inputs": [
        {
          "internalType": "address payable",
          "name": "receiver",
          "type": "address"
        },
        {
          "internalType": "uint256",
          "name": "amount",
          "type": "uint256"
        }
      ],
      "name": "send",
      "outputs": [],
      "stateMutability": "nonpayable",
      "type": "function"
    },
    {
      "inputs": [],
      "name": "getBalance",
      "outputs": [
        {
          "internalType": "uint256",
          "name": "",
          "type": "uint256"
        }
      ],
      "stateMutability": "view",
      "type": "function"
    }
  ],
  "bytecode": "0x608060405234801561001057600080fd5b5061098e806100206000396000f3fe608060405260043610610060576000357c01000000000000000000000000000000000000000000000000000000009004806312065fe0146100c157806327e235e3146100ec5780632e1a7d4d14610129578063d0679d3414610152576100bc565b366100bc57346000803373ffffffffffffffffffffffffffffffffffffffff1673ffffffffffffffffffffffffffffffffffffffff16815260200190815260200160002060008282546100b391906107d6565b92505081905550005b600080fd5b3480156100cd57600080fd5b506100d661017b565b6040516100e3919061079f565b60405180910390f35b3480156100f857600080fd5b50610113600480360381019061010e919061050f565b61019a565b604051610120919061079f565b60405180910390f35b34801561013557600080fd5b50610150600480360381019061014b9190610574565b6101b2565b005b34801561015e57600080fd5b5061017960048036038101906101749190610538565b6103a7565b005b60003073ffffffffffffffffffffffffffffffffffffffff1631905090565b60006020528060005260406000206000915090505481565b600160009054906101000a900460ff1615610202576040517f08c379a00000000000000000000000000000000000000000000000000000000081526004016101f99061077f565b60405180910390fd5b60018060006101000a81548160ff02191690831515021790555060008060003373ffffffffffffffffffffffffffffffffffffffff1673ffffffffffffffffffffffffffffffffffffffff168152602001908152602001600020549050808211156102a2576040517f08c379a00000000000000000000000000000000000000000000000000000000081526004016102999061075f565b60405180910390fd5b60003373ffffffffffffffffffffffffffffffffffffffff16836040516102c8906106ca565b60006040518083038185875af1925050503d8060008114610305576040519150601f19603f3d011682016040523d82523d6000602084013e61030a565b606091505b505090508061034e576040517f08c379a00000000000000000000000000000000000000000000000000000000081526004016103459061073f565b60405180910390fd5b7f884edad9ce6fa2440d8a54cc123490eb96d2768479d49ff9c7366125a9424364338460405161037f929190610716565b60405180910390a150506000600160006101000a81548160ff02191690831515021790555050565b60008060003373ffffffffffffffffffffffffffffffffffffffff1673ffffffffffffffffffffffffffffffffffffffff1681526020019081526020016000205490508082111561042d576040517f08c379a00000000000000000000000000000000000000000000000000000000081526004016104249061075f565b60405180910390fd5b8181610439919061082c565b9050816000808573ffffffffffffffffffffffffffffffffffffffff1673ffffffffffffffffffffffffffffffffffffffff168152602001908152602001600020600082825461048991906107d6565b925050819055507f3990db2d31862302a685e8086b5755072a6e2b5b780af1ee81ece35ee3cd33453384846040516104c3939291906106df565b60405180910390a1505050565b6000813590506104df81610913565b92915050565b6000813590506104f48161092a565b92915050565b60008135905061050981610941565b92915050565b60006020828403121561052157600080fd5b600061052f848285016104d0565b91505092915050565b6000806040838503121561054b57600080fd5b6000610559858286016104e5565b925050602061056a858286016104fa565b9150509250929050565b60006020828403121561058657600080fd5b6000610594848285016104fa565b91505092915050565b6105a6816108ae565b82525050565b6105b581610860565b82525050565b60006105c86014836107c5565b91507f4661696c656420746f2073656e642045746865720000000000000000000000006000830152602082019050919050565b6000610608602b836107c5565b91507f596f7520646f6e2774206861766520656e6f75676820657468657220696e207960008301527f6f75722062616c616e63650000000000000000000000000000000000000000006020830152604082019050919050565b600061066e600e836107c5565b91507f4e6f2072652d656e7472616e63790000000000000000000000000000000000006000830152602082019050919050565b60006106ae6000836107ba565b9150600082019050919050565b6106c4816108a4565b82525050565b60006106d5826106a1565b9150819050919050565b60006060820190506106f460008301866105ac565b610701602083018561059d565b61070e60408301846106bb565b949350505050565b600060408201905061072b60008301856105ac565b61073860208301846106bb565b9392505050565b60006020820190508181036000830152610758816105bb565b9050919050565b60006020820190508181036000830152610778816105fb565b9050919050565b6000602082019050818103600083015261079881610661565b9050919050565b60006020820190506107b460008301846106bb565b92915050565b600081905092915050565b600082825260208201905092915050565b60006107e1826108a4565b91506107ec836108a4565b9250827fffffffffffffffffffffffffffffffffffffffffffffffffffffffffffffffff03821115610821576108206108e4565b5b828201905092915050565b6000610837826108a4565b9150610842836108a4565b925082821015610855576108546108e4565b5b828203905092915050565b600061086b82610884565b9050919050565b600061087d82610884565b9050919050565b600073ffffffffffffffffffffffffffffffffffffffff82169050919050565b6000819050919050565b60006108b9826108c0565b9050919050565b60006108cb826108d2565b9050919050565b60006108dd82610884565b9050919050565b7f4e487b7100000000000000000000000000000000000000000000000000000000600052601160045260246000fd5b61091c81610860565b811461092757600080fd5b50565b61093381610872565b811461093e57600080fd5b50565b61094a816108a4565b811461095557600080fd5b5056fea264697066735822122049c51cc7883c6dc44eb021b12f1168f1a56185f2bf65016649b460825b583cae64736f6c63430008000033",
  "immutableReferences": {},
  "source": "// SPDX-License-Identifier: MIT\npragma solidity >=0.4.22 <0.9.0;\n\ncontract Wallet {\n\n    mapping(address => uint) public balances;\n\n    event Withdraw(address receiver, uint amount);\n    event Sent(address sender, address receiver, uint amount);\n\n    bool locked;\n\n    modifier noReentrant() {\n        require(!locked, \"No re-entrancy\");\n        locked = true;\n        _;\n        locked = false;\n    }\n\n    receive() external payable{\n        balances[msg.sender] += msg.value;\n    }\n\n    function withdraw(uint amount) external noReentrant{\n        uint balance = balances[msg.sender];\n        require(amount <= balance, \"You don't have enough ether in your balance\");\n        (bool sent, ) = payable(msg.sender).call{value: amount}(\"\");\n        require(sent, \"Failed to send Ether\");\n        emit Withdraw(msg.sender, amount);\n    }\n\n    function send(address payable receiver, uint amount) external{\n        uint balance = balances[msg.sender];\n        require(amount <= balance, \"You don't have enough ether in your balance\");\n        balance -= amount;\n        balances[receiver] += amount;\n        emit Sent(msg.sender, receiver, amount);\n    }\n\n    function getBalance() external view returns(uint){\n        return address(this).balance;\n    }\n}",
  "sourcePath": "/Users/godspowereze/Documents/Projects/30DaysOfSolidity/Day_7_Wallet/contracts/Wallet.sol",
  "compiler": {
    "name": "solc",
    "version": "0.8.0+commit.c7dfd78e.Emscripten.clang"
  },
  "schemaVersion": "3.4.3",
  "updatedAt": "2022-01-25T01:10:47.479Z",
  "devdoc": {
    "kind": "dev",
    "methods": {},
    "version": 1
  },
  "userdoc": {
    "kind": "user",
    "methods": {},
    "version": 1
  }
}