{
  "contractName": "UserManager",
  "abi": [
    {
      "inputs": [],
      "stateMutability": "nonpayable",
      "type": "constructor"
    },
    {
      "inputs": [],
      "name": "contractCount",
      "outputs": [
        {
          "internalType": "uint256",
          "name": "",
          "type": "uint256"
        }
      ],
      "stateMutability": "view",
      "type": "function"
    },
    {
      "inputs": [
        {
          "internalType": "uint256",
          "name": "",
          "type": "uint256"
        }
      ],
      "name": "contractsAddresses",
      "outputs": [
        {
          "internalType": "address",
          "name": "",
          "type": "address"
        }
      ],
      "stateMutability": "view",
      "type": "function"
    },
    {
      "inputs": [],
      "name": "owner",
      "outputs": [
        {
          "internalType": "address",
          "name": "",
          "type": "address"
        }
      ],
      "stateMutability": "view",
      "type": "function"
    },
    {
      "inputs": [
        {
          "internalType": "string",
          "name": "_name",
          "type": "string"
        },
        {
          "internalType": "uint256",
          "name": "_age",
          "type": "uint256"
        },
        {
          "internalType": "string",
          "name": "_location",
          "type": "string"
        }
      ],
      "name": "create",
      "outputs": [],
      "stateMutability": "nonpayable",
      "type": "function"
    },
    {
      "inputs": [
        {
          "internalType": "uint256",
          "name": "_index",
          "type": "uint256"
        },
        {
          "internalType": "string",
          "name": "_newName",
          "type": "string"
        }
      ],
      "name": "updateName",
      "outputs": [],
      "stateMutability": "nonpayable",
      "type": "function"
    },
    {
      "inputs": [
        {
          "internalType": "uint256",
          "name": "_index",
          "type": "uint256"
        },
        {
          "internalType": "uint256",
          "name": "_newAge",
          "type": "uint256"
        }
      ],
      "name": "updateAge",
      "outputs": [],
      "stateMutability": "nonpayable",
      "type": "function"
    },
    {
      "inputs": [
        {
          "internalType": "uint256",
          "name": "_index",
          "type": "uint256"
        },
        {
          "internalType": "string",
          "name": "_newLocation",
          "type": "string"
        }
      ],
      "name": "updateLocation",
      "outputs": [],
      "stateMutability": "nonpayable",
      "type": "function"
    },
    {
      "inputs": [
        {
          "internalType": "uint256",
          "name": "_index",
          "type": "uint256"
        },
        {
          "internalType": "string",
          "name": "_tokenName",
          "type": "string"
        },
        {
          "internalType": "uint256",
          "name": "balance",
          "type": "uint256"
        }
      ],
      "name": "addToken",
      "outputs": [],
      "stateMutability": "nonpayable",
      "type": "function"
    },
    {
      "inputs": [
        {
          "internalType": "uint256",
          "name": "_index",
          "type": "uint256"
        },
        {
          "internalType": "string",
          "name": "_tokenName",
          "type": "string"
        },
        {
          "internalType": "uint256",
          "name": "_balance",
          "type": "uint256"
        }
      ],
      "name": "updateTokenBalance",
      "outputs": [],
      "stateMutability": "nonpayable",
      "type": "function"
    },
    {
      "inputs": [
        {
          "internalType": "uint256",
          "name": "_index",
          "type": "uint256"
        }
      ],
      "name": "getId",
      "outputs": [
        {
          "internalType": "uint256",
          "name": "",
          "type": "uint256"
        }
      ],
      "stateMutability": "view",
      "type": "function"
    },
    {
      "inputs": [
        {
          "internalType": "uint256",
          "name": "_index",
          "type": "uint256"
        }
      ],
      "name": "getName",
      "outputs": [
        {
          "internalType": "string",
          "name": "",
          "type": "string"
        }
      ],
      "stateMutability": "view",
      "type": "function"
    },
    {
      "inputs": [
        {
          "internalType": "uint256",
          "name": "_index",
          "type": "uint256"
        }
      ],
      "name": "getAge",
      "outputs": [
        {
          "internalType": "uint256",
          "name": "",
          "type": "uint256"
        }
      ],
      "stateMutability": "view",
      "type": "function"
    },
    {
      "inputs": [
        {
          "internalType": "uint256",
          "name": "_index",
          "type": "uint256"
        }
      ],
      "name": "getLocation",
      "outputs": [
        {
          "internalType": "string",
          "name": "",
          "type": "string"
        }
      ],
      "stateMutability": "view",
      "type": "function"
    },
    {
      "inputs": [
        {
          "internalType": "uint256",
          "name": "_index",
          "type": "uint256"
        },
        {
          "internalType": "string",
          "name": "tokenName",
          "type": "string"
        }
      ],
      "name": "tokenAvailable",
      "outputs": [
        {
          "internalType": "bool",
          "name": "",
          "type": "bool"
        }
      ],
      "stateMutability": "view",
      "type": "function"
    },
    {
      "inputs": [
        {
          "internalType": "uint256",
          "name": "_index",
          "type": "uint256"
        },
        {
          "internalType": "string",
          "name": "tokenName",
          "type": "string"
        }
      ],
      "name": "tokenBalance",
      "outputs": [
        {
          "internalType": "uint256",
          "name": "",
          "type": "uint256"
        }
      ],
      "stateMutability": "view",
      "type": "function"
    },
    {
      "inputs": [],
      "name": "getContracts",
      "outputs": [
        {
          "internalType": "address[]",
          "name": "",
          "type": "address[]"
        }
      ],
      "stateMutability": "view",
      "type": "function"
    }
  ],
  "bytecode": "0x6080604052600060015534801561001557600080fd5b50336000806101000a81548173ffffffffffffffffffffffffffffffffffffffff021916908373ffffffffffffffffffffffffffffffffffffffff160217905550613265806100656000396000f3fe60806040523480156200001157600080fd5b506004361062000135576000357c0100000000000000000000000000000000000000000000000000000000900480638736381a11620000c2578063c3a2a93a116200008c578063c3a2a93a1462000342578063c847d6c41462000364578063e257a3711462000384578063eee33b7814620003a45762000135565b80638736381a14620002a85780638948511d14620002ca5780638ca8cc1414620003005780638da5cb5b14620003205762000135565b8063545a153a1162000104578063545a153a14620001e65780636b8ff574146200021c5780637f7b13931462000252578063819aa31114620002885762000135565b80630e37008a146200013a57806349c0d85114620001705780634ec0c9e914620001a657806353e76f2c14620001c6575b600080fd5b620001586004803603810190620001529190620016a9565b620003da565b60405162000167919062001a2e565b60405180910390f35b6200018e6004803603810190620001889190620016a9565b620004eb565b6040516200019d919062001956565b60405180910390f35b620001c46004803603810190620001be919062001701565b6200052b565b005b620001e46004803603810190620001de919062001701565b620006b6565b005b620002046004803603810190620001fe9190620016a9565b62000841565b60405162000213919062001a2e565b60405180910390f35b6200023a6004803603810190620002349190620016a9565b62000952565b604051620002499190620019b4565b60405180910390f35b6200027060048036038101906200026a9190620016a9565b62000a69565b6040516200027f9190620019b4565b60405180910390f35b620002a66004803603810190620002a09190620017ca565b62000b80565b005b620002b262000d0b565b604051620002c1919062001a2e565b60405180910390f35b620002e86004803603810190620002e2919062001701565b62000d11565b604051620002f7919062001a2e565b60405180910390f35b6200031e60048036038101906200031891906200175b565b62000e30565b005b6200032a62000fbe565b60405162000339919062001956565b60405180910390f35b6200034c62000fe2565b6040516200035b919062001973565b60405180910390f35b6200038260048036038101906200037c91906200175b565b62001072565b005b620003a260048036038101906200039c919062001621565b62001200565b005b620003c26004803603810190620003bc919062001701565b6200135a565b604051620003d1919062001997565b60405180910390f35b6000806002838154811062000418577f4e487b7100000000000000000000000000000000000000000000000000000000600052603260045260246000fd5b9060005260206000200160009054906101000a900473ffffffffffffffffffffffffffffffffffffffff1690508073ffffffffffffffffffffffffffffffffffffffff1663262a9dff6040518163ffffffff167c010000000000000000000000000000000000000000000000000000000002815260040160206040518083038186803b158015620004a857600080fd5b505afa158015620004bd573d6000803e3d6000fd5b505050506040513d601f19601f82011682018060405250810190620004e39190620016d5565b915050919050565b60028181548110620004fc57600080fd5b906000526020600020016000915054906101000a900473ffffffffffffffffffffffffffffffffffffffff1681565b60008054906101000a900473ffffffffffffffffffffffffffffffffffffffff1673ffffffffffffffffffffffffffffffffffffffff163373ffffffffffffffffffffffffffffffffffffffff1614620005bc576040517f08c379a0000000000000000000000000000000000000000000000000000000008152600401620005b39062001a0c565b60405180910390fd5b600060028381548110620005f9577f4e487b7100000000000000000000000000000000000000000000000000000000600052603260045260246000fd5b9060005260206000200160009054906101000a900473ffffffffffffffffffffffffffffffffffffffff1690508073ffffffffffffffffffffffffffffffffffffffff1663932354c1836040518263ffffffff167c01000000000000000000000000000000000000000000000000000000000281526004016200067d9190620019b4565b600060405180830381600087803b1580156200069857600080fd5b505af1158015620006ad573d6000803e3d6000fd5b50505050505050565b60008054906101000a900473ffffffffffffffffffffffffffffffffffffffff1673ffffffffffffffffffffffffffffffffffffffff163373ffffffffffffffffffffffffffffffffffffffff161462000747576040517f08c379a00000000000000000000000000000000000000000000000000000000081526004016200073e9062001a0c565b60405180910390fd5b60006002838154811062000784577f4e487b7100000000000000000000000000000000000000000000000000000000600052603260045260246000fd5b9060005260206000200160009054906101000a900473ffffffffffffffffffffffffffffffffffffffff1690508073ffffffffffffffffffffffffffffffffffffffff166384da92a7836040518263ffffffff167c0100000000000000000000000000000000000000000000000000000000028152600401620008089190620019b4565b600060405180830381600087803b1580156200082357600080fd5b505af115801562000838573d6000803e3d6000fd5b50505050505050565b600080600283815481106200087f577f4e487b7100000000000000000000000000000000000000000000000000000000600052603260045260246000fd5b9060005260206000200160009054906101000a900473ffffffffffffffffffffffffffffffffffffffff1690508073ffffffffffffffffffffffffffffffffffffffff1663af640d0f6040518163ffffffff167c010000000000000000000000000000000000000000000000000000000002815260040160206040518083038186803b1580156200090f57600080fd5b505afa15801562000924573d6000803e3d6000fd5b505050506040513d601f19601f820116820180604052508101906200094a9190620016d5565b915050919050565b606060006002838154811062000991577f4e487b7100000000000000000000000000000000000000000000000000000000600052603260045260246000fd5b9060005260206000200160009054906101000a900473ffffffffffffffffffffffffffffffffffffffff1690508073ffffffffffffffffffffffffffffffffffffffff166306fdde036040518163ffffffff167c010000000000000000000000000000000000000000000000000000000002815260040160006040518083038186803b15801562000a2157600080fd5b505afa15801562000a36573d6000803e3d6000fd5b505050506040513d6000823e3d601f19601f8201168201806040525081019062000a619190620015dc565b915050919050565b606060006002838154811062000aa8577f4e487b7100000000000000000000000000000000000000000000000000000000600052603260045260246000fd5b9060005260206000200160009054906101000a900473ffffffffffffffffffffffffffffffffffffffff1690508073ffffffffffffffffffffffffffffffffffffffff1663516f279e6040518163ffffffff167c010000000000000000000000000000000000000000000000000000000002815260040160006040518083038186803b15801562000b3857600080fd5b505afa15801562000b4d573d6000803e3d6000fd5b505050506040513d6000823e3d601f19601f8201168201806040525081019062000b789190620015dc565b915050919050565b60008054906101000a900473ffffffffffffffffffffffffffffffffffffffff1673ffffffffffffffffffffffffffffffffffffffff163373ffffffffffffffffffffffffffffffffffffffff161462000c11576040517f08c379a000000000000000000000000000000000000000000000000000000000815260040162000c089062001a0c565b60405180910390fd5b60006002838154811062000c4e577f4e487b7100000000000000000000000000000000000000000000000000000000600052603260045260246000fd5b9060005260206000200160009054906101000a900473ffffffffffffffffffffffffffffffffffffffff1690508073ffffffffffffffffffffffffffffffffffffffff16637d625c07836040518263ffffffff167c010000000000000000000000000000000000000000000000000000000002815260040162000cd2919062001a2e565b600060405180830381600087803b15801562000ced57600080fd5b505af115801562000d02573d6000803e3d6000fd5b50505050505050565b60015481565b6000806002848154811062000d4f577f4e487b7100000000000000000000000000000000000000000000000000000000600052603260045260246000fd5b9060005260206000200160009054906101000a900473ffffffffffffffffffffffffffffffffffffffff1690508073ffffffffffffffffffffffffffffffffffffffff1663c0a027f4846040518263ffffffff167c010000000000000000000000000000000000000000000000000000000002815260040162000dd39190620019b4565b60206040518083038186803b15801562000dec57600080fd5b505afa15801562000e01573d6000803e3d6000fd5b505050506040513d601f19601f8201168201806040525081019062000e279190620016d5565b91505092915050565b60008054906101000a900473ffffffffffffffffffffffffffffffffffffffff1673ffffffffffffffffffffffffffffffffffffffff163373ffffffffffffffffffffffffffffffffffffffff161462000ec1576040517f08c379a000000000000000000000000000000000000000000000000000000000815260040162000eb89062001a0c565b60405180910390fd5b60006002848154811062000efe577f4e487b7100000000000000000000000000000000000000000000000000000000600052603260045260246000fd5b9060005260206000200160009054906101000a900473ffffffffffffffffffffffffffffffffffffffff1690508073ffffffffffffffffffffffffffffffffffffffff16630befcdb484846040518363ffffffff167c010000000000000000000000000000000000000000000000000000000002815260040162000f84929190620019d8565b600060405180830381600087803b15801562000f9f57600080fd5b505af115801562000fb4573d6000803e3d6000fd5b5050505050505050565b60008054906101000a900473ffffffffffffffffffffffffffffffffffffffff1681565b606060028054806020026020016040519081016040528092919081815260200182805480156200106857602002820191906000526020600020905b8160009054906101000a900473ffffffffffffffffffffffffffffffffffffffff1673ffffffffffffffffffffffffffffffffffffffff16815260200190600101908083116200101d575b5050505050905090565b60008054906101000a900473ffffffffffffffffffffffffffffffffffffffff1673ffffffffffffffffffffffffffffffffffffffff163373ffffffffffffffffffffffffffffffffffffffff161462001103576040517f08c379a0000000000000000000000000000000000000000000000000000000008152600401620010fa9062001a0c565b60405180910390fd5b60006002848154811062001140577f4e487b7100000000000000000000000000000000000000000000000000000000600052603260045260246000fd5b9060005260206000200160009054906101000a900473ffffffffffffffffffffffffffffffffffffffff1690508073ffffffffffffffffffffffffffffffffffffffff16638ca132f784846040518363ffffffff167c0100000000000000000000000000000000000000000000000000000000028152600401620011c6929190620019d8565b600060405180830381600087803b158015620011e157600080fd5b505af1158015620011f6573d6000803e3d6000fd5b5050505050505050565b60008054906101000a900473ffffffffffffffffffffffffffffffffffffffff1673ffffffffffffffffffffffffffffffffffffffff163373ffffffffffffffffffffffffffffffffffffffff161462001291576040517f08c379a0000000000000000000000000000000000000000000000000000000008152600401620012889062001a0c565b60405180910390fd5b6001806000828254620012a5919062001b62565b925050819055506000600154848484604051620012c29062001479565b620012d1949392919062001a4b565b604051809103906000f080158015620012ee573d6000803e3d6000fd5b5090506002819080600181540180825580915050600190039060005260206000200160009091909190916101000a81548173ffffffffffffffffffffffffffffffffffffffff021916908373ffffffffffffffffffffffffffffffffffffffff16021790555050505050565b6000806002848154811062001398577f4e487b7100000000000000000000000000000000000000000000000000000000600052603260045260246000fd5b9060005260206000200160009054906101000a900473ffffffffffffffffffffffffffffffffffffffff1690508073ffffffffffffffffffffffffffffffffffffffff1663cb339037846040518263ffffffff167c01000000000000000000000000000000000000000000000000000000000281526004016200141c9190620019b4565b60206040518083038186803b1580156200143557600080fd5b505afa1580156200144a573d6000803e3d6000fd5b505050506040513d601f19601f82011682018060405250810190620014709190620015b0565b91505092915050565b61153e8062001cf283390190565b60006200149e620014988462001ada565b62001aa6565b905082815260208101848484011115620014b757600080fd5b620014c484828562001c09565b509392505050565b6000620014e3620014dd8462001ada565b62001aa6565b905082815260208101848484011115620014fc57600080fd5b6200150984828562001c18565b509392505050565b600081519050620015228162001cbd565b92915050565b600082601f8301126200153a57600080fd5b81356200154c84826020860162001487565b91505092915050565b600082601f8301126200156757600080fd5b815162001579848260208601620014cc565b91505092915050565b600081359050620015938162001cd7565b92915050565b600081519050620015aa8162001cd7565b92915050565b600060208284031215620015c357600080fd5b6000620015d38482850162001511565b91505092915050565b600060208284031215620015ef57600080fd5b600082015167ffffffffffffffff8111156200160a57600080fd5b620016188482850162001555565b91505092915050565b6000806000606084860312156200163757600080fd5b600084013567ffffffffffffffff8111156200165257600080fd5b620016608682870162001528565b9350506020620016738682870162001582565b925050604084013567ffffffffffffffff8111156200169157600080fd5b6200169f8682870162001528565b9150509250925092565b600060208284031215620016bc57600080fd5b6000620016cc8482850162001582565b91505092915050565b600060208284031215620016e857600080fd5b6000620016f88482850162001599565b91505092915050565b600080604083850312156200171557600080fd5b6000620017258582860162001582565b925050602083013567ffffffffffffffff8111156200174357600080fd5b620017518582860162001528565b9150509250929050565b6000806000606084860312156200177157600080fd5b6000620017818682870162001582565b935050602084013567ffffffffffffffff8111156200179f57600080fd5b620017ad8682870162001528565b9250506040620017c08682870162001582565b9150509250925092565b60008060408385031215620017de57600080fd5b6000620017ee8582860162001582565b9250506020620018018582860162001582565b9150509250929050565b600062001819838362001825565b60208301905092915050565b620018308162001bbf565b82525050565b620018418162001bbf565b82525050565b6000620018548262001b1d565b62001860818562001b40565b93506200186d8362001b0d565b8060005b83811015620018a45781516200188888826200180b565b9750620018958362001b33565b92505060018101905062001871565b5085935050505092915050565b620018bc8162001bd3565b82525050565b6000620018cf8262001b28565b620018db818562001b51565b9350620018ed81856020860162001c18565b620018f88162001cac565b840191505092915050565b600062001912601c8362001b51565b91507f4f6e6c79206f776e65722063616e2063616c6c20636f6e7472616374000000006000830152602082019050919050565b620019508162001bff565b82525050565b60006020820190506200196d600083018462001836565b92915050565b600060208201905081810360008301526200198f818462001847565b905092915050565b6000602082019050620019ae6000830184620018b1565b92915050565b60006020820190508181036000830152620019d08184620018c2565b905092915050565b60006040820190508181036000830152620019f48185620018c2565b905062001a05602083018462001945565b9392505050565b6000602082019050818103600083015262001a278162001903565b9050919050565b600060208201905062001a45600083018462001945565b92915050565b600060808201905062001a62600083018762001945565b818103602083015262001a768186620018c2565b905062001a87604083018562001945565b818103606083015262001a9b8184620018c2565b905095945050505050565b6000604051905081810181811067ffffffffffffffff8211171562001ad05762001acf62001c7d565b5b8060405250919050565b600067ffffffffffffffff82111562001af85762001af762001c7d565b5b601f19601f8301169050602081019050919050565b6000819050602082019050919050565b600081519050919050565b600081519050919050565b6000602082019050919050565b600082825260208201905092915050565b600082825260208201905092915050565b600062001b6f8262001bff565b915062001b7c8362001bff565b9250827fffffffffffffffffffffffffffffffffffffffffffffffffffffffffffffffff0382111562001bb45762001bb362001c4e565b5b828201905092915050565b600062001bcc8262001bdf565b9050919050565b60008115159050919050565b600073ffffffffffffffffffffffffffffffffffffffff82169050919050565b6000819050919050565b82818337600083830152505050565b60005b8381101562001c3857808201518184015260208101905062001c1b565b8381111562001c48576000848401525b50505050565b7f4e487b7100000000000000000000000000000000000000000000000000000000600052601160045260246000fd5b7f4e487b7100000000000000000000000000000000000000000000000000000000600052604160045260246000fd5b6000601f19601f8301169050919050565b62001cc88162001bd3565b811462001cd457600080fd5b50565b62001ce28162001bff565b811462001cee57600080fd5b5056fe60806040523480156200001157600080fd5b506040516200153e3803806200153e83398181016040528101906200003791906200034c565b336000806101000a81548173ffffffffffffffffffffffffffffffffffffffff021916908373ffffffffffffffffffffffffffffffffffffffff16021790555030600160006101000a81548173ffffffffffffffffffffffffffffffffffffffff021916908373ffffffffffffffffffffffffffffffffffffffff160217905550836002819055508260039080519060200190620000d792919062000213565b50816004819055508060059080519060200190620000f792919062000213565b50600060066040516200010a90620004c7565b908152602001604051809103902081905550600160076040516200012e90620004c7565b908152602001604051809103902060006101000a81548160ff021916908315150217905550600060066040516200016590620004de565b908152602001604051809103902081905550600160076040516200018990620004de565b908152602001604051809103902060006101000a81548160ff02191690831515021790555060006006604051620001c090620004b0565b90815260200160405180910390208190555060016007604051620001e490620004b0565b908152602001604051809103902060006101000a81548160ff0219169083151502179055505050505062000655565b8280546200022190620005a7565b90600052602060002090601f01602090048101928262000245576000855562000291565b82601f106200026057805160ff191683800117855562000291565b8280016001018555821562000291579182015b828111156200029057825182559160200191906001019062000273565b5b509050620002a09190620002a4565b5090565b5b80821115620002bf576000816000905550600101620002a5565b5090565b6000620002da620002d48462000529565b620004f5565b905082815260208101848484011115620002f357600080fd5b6200030084828562000571565b509392505050565b600082601f8301126200031a57600080fd5b81516200032c848260208601620002c3565b91505092915050565b60008151905062000346816200063b565b92915050565b600080600080608085870312156200036357600080fd5b6000620003738782880162000335565b945050602085015167ffffffffffffffff8111156200039157600080fd5b6200039f8782880162000308565b9350506040620003b28782880162000335565b925050606085015167ffffffffffffffff811115620003d057600080fd5b620003de8782880162000308565b91505092959194509250565b6000620003f96004836200055c565b91507f55534454000000000000000000000000000000000000000000000000000000006000830152600482019050919050565b60006200043b6003836200055c565b91507f45544800000000000000000000000000000000000000000000000000000000006000830152600382019050919050565b60006200047d6003836200055c565b91507f42544300000000000000000000000000000000000000000000000000000000006000830152600382019050919050565b6000620004bd82620003ea565b9150819050919050565b6000620004d4826200042c565b9150819050919050565b6000620004eb826200046e565b9150819050919050565b6000604051905081810181811067ffffffffffffffff821117156200051f576200051e6200060c565b5b8060405250919050565b600067ffffffffffffffff8211156200054757620005466200060c565b5b601f19601f8301169050602081019050919050565b600081905092915050565b6000819050919050565b60005b838110156200059157808201518184015260208101905062000574565b83811115620005a1576000848401525b50505050565b60006002820490506001821680620005c057607f821691505b60208210811415620005d757620005d6620005dd565b5b50919050565b7f4e487b7100000000000000000000000000000000000000000000000000000000600052602260045260246000fd5b7f4e487b7100000000000000000000000000000000000000000000000000000000600052604160045260246000fd5b620006468162000567565b81146200065257600080fd5b50565b610ed980620006656000396000f3fe608060405234801561001057600080fd5b50600436106100ec576000357c0100000000000000000000000000000000000000000000000000000000900480638ca132f7116100a9578063af640d0f11610083578063af640d0f146101f5578063c0a027f414610213578063cb33903714610243578063e4128fb314610273576100ec565b80638ca132f71461019f5780638da5cb5b146101bb578063932354c1146101d9576100ec565b806306fdde03146100f15780630befcdb41461010f578063262a9dff1461012b578063516f279e146101495780637d625c071461016757806384da92a714610183575b600080fd5b6100f9610291565b6040516101069190610bd7565b60405180910390f35b610129600480360381019061012491906109d0565b61031f565b005b6101336103e6565b6040516101409190610c39565b60405180910390f35b6101516103ec565b60405161015e9190610bd7565b60405180910390f35b610181600480360381019061017c9190610a24565b61047a565b005b61019d6004803603810190610198919061098f565b610512565b005b6101b960048036038101906101b491906109d0565b6105ba565b005b6101c3610713565b6040516101d09190610ba1565b60405180910390f35b6101f360048036038101906101ee919061098f565b610737565b005b6101fd6107df565b60405161020a9190610c39565b60405180910390f35b61022d6004803603810190610228919061098f565b6107e5565b60405161023a9190610c39565b60405180910390f35b61025d6004803603810190610258919061098f565b610813565b60405161026a9190610bbc565b60405180910390f35b61027b610849565b6040516102889190610ba1565b60405180910390f35b6003805461029e90610dbc565b80601f01602080910402602001604051908101604052809291908181526020018280546102ca90610dbc565b80156103175780601f106102ec57610100808354040283529160200191610317565b820191906000526020600020905b8154815290600101906020018083116102fa57829003601f168201915b505050505081565b60008054906101000a900473ffffffffffffffffffffffffffffffffffffffff1673ffffffffffffffffffffffffffffffffffffffff163373ffffffffffffffffffffffffffffffffffffffff16146103ad576040517f08c379a00000000000000000000000000000000000000000000000000000000081526004016103a490610c19565b60405180910390fd5b806006836040516103be9190610b8a565b908152602001604051809103902060008282546103db9190610cdc565b925050819055505050565b60045481565b600580546103f990610dbc565b80601f016020809104026020016040519081016040528092919081815260200182805461042590610dbc565b80156104725780601f1061044757610100808354040283529160200191610472565b820191906000526020600020905b81548152906001019060200180831161045557829003601f168201915b505050505081565b60008054906101000a900473ffffffffffffffffffffffffffffffffffffffff1673ffffffffffffffffffffffffffffffffffffffff163373ffffffffffffffffffffffffffffffffffffffff1614610508576040517f08c379a00000000000000000000000000000000000000000000000000000000081526004016104ff90610c19565b60405180910390fd5b8060048190555050565b60008054906101000a900473ffffffffffffffffffffffffffffffffffffffff1673ffffffffffffffffffffffffffffffffffffffff163373ffffffffffffffffffffffffffffffffffffffff16146105a0576040517f08c379a000000000000000000000000000000000000000000000000000000000815260040161059790610c19565b60405180910390fd5b80600390805190602001906105b692919061086f565b5050565b60008054906101000a900473ffffffffffffffffffffffffffffffffffffffff1673ffffffffffffffffffffffffffffffffffffffff163373ffffffffffffffffffffffffffffffffffffffff1614610648576040517f08c379a000000000000000000000000000000000000000000000000000000000815260040161063f90610c19565b60405180910390fd5b816007816040516106599190610b8a565b908152602001604051809103902060009054906101000a900460ff166106b4576040517f08c379a00000000000000000000000000000000000000000000000000000000081526004016106ab90610bf9565b60405180910390fd5b816006846040516106c59190610b8a565b90815260200160405180910390208190555060016007846040516106e99190610b8a565b908152602001604051809103902060006101000a81548160ff021916908315150217905550505050565b60008054906101000a900473ffffffffffffffffffffffffffffffffffffffff1681565b60008054906101000a900473ffffffffffffffffffffffffffffffffffffffff1673ffffffffffffffffffffffffffffffffffffffff163373ffffffffffffffffffffffffffffffffffffffff16146107c5576040517f08c379a00000000000000000000000000000000000000000000000000000000081526004016107bc90610c19565b60405180910390fd5b80600590805190602001906107db92919061086f565b5050565b60025481565b6006818051602081018201805184825260208301602085012081835280955050505050506000915090505481565b6007818051602081018201805184825260208301602085012081835280955050505050506000915054906101000a900460ff1681565b600160009054906101000a900473ffffffffffffffffffffffffffffffffffffffff1681565b82805461087b90610dbc565b90600052602060002090601f01602090048101928261089d57600085556108e4565b82601f106108b657805160ff19168380011785556108e4565b828001600101855582156108e4579182015b828111156108e35782518255916020019190600101906108c8565b5b5090506108f191906108f5565b5090565b5b8082111561090e5760008160009055506001016108f6565b5090565b600061092561092084610c85565b610c54565b90508281526020810184848401111561093d57600080fd5b610948848285610d7a565b509392505050565b600082601f83011261096157600080fd5b8135610971848260208601610912565b91505092915050565b60008135905061098981610e8c565b92915050565b6000602082840312156109a157600080fd5b600082013567ffffffffffffffff8111156109bb57600080fd5b6109c784828501610950565b91505092915050565b600080604083850312156109e357600080fd5b600083013567ffffffffffffffff8111156109fd57600080fd5b610a0985828601610950565b9250506020610a1a8582860161097a565b9150509250929050565b600060208284031215610a3657600080fd5b6000610a448482850161097a565b91505092915050565b610a5681610d32565b82525050565b610a6581610d44565b82525050565b6000610a7682610cb5565b610a808185610cc0565b9350610a90818560208601610d89565b610a9981610e7b565b840191505092915050565b6000610aaf82610cb5565b610ab98185610cd1565b9350610ac9818560208601610d89565b80840191505092915050565b6000610ae2601383610cc0565b91507f546f6b656e20616c7265616479206164646564000000000000000000000000006000830152602082019050919050565b6000610b22602183610cc0565b91507f4f6e6c79206f776e65722063616e2063616c6c207468697320636f6e7472616360008301527f74000000000000000000000000000000000000000000000000000000000000006020830152604082019050919050565b610b8481610d70565b82525050565b6000610b968284610aa4565b915081905092915050565b6000602082019050610bb66000830184610a4d565b92915050565b6000602082019050610bd16000830184610a5c565b92915050565b60006020820190508181036000830152610bf18184610a6b565b905092915050565b60006020820190508181036000830152610c1281610ad5565b9050919050565b60006020820190508181036000830152610c3281610b15565b9050919050565b6000602082019050610c4e6000830184610b7b565b92915050565b6000604051905081810181811067ffffffffffffffff82111715610c7b57610c7a610e4c565b5b8060405250919050565b600067ffffffffffffffff821115610ca057610c9f610e4c565b5b601f19601f8301169050602081019050919050565b600081519050919050565b600082825260208201905092915050565b600081905092915050565b6000610ce782610d70565b9150610cf283610d70565b9250827fffffffffffffffffffffffffffffffffffffffffffffffffffffffffffffffff03821115610d2757610d26610dee565b5b828201905092915050565b6000610d3d82610d50565b9050919050565b60008115159050919050565b600073ffffffffffffffffffffffffffffffffffffffff82169050919050565b6000819050919050565b82818337600083830152505050565b60005b83811015610da7578082015181840152602081019050610d8c565b83811115610db6576000848401525b50505050565b60006002820490506001821680610dd457607f821691505b60208210811415610de857610de7610e1d565b5b50919050565b7f4e487b7100000000000000000000000000000000000000000000000000000000600052601160045260246000fd5b7f4e487b7100000000000000000000000000000000000000000000000000000000600052602260045260246000fd5b7f4e487b7100000000000000000000000000000000000000000000000000000000600052604160045260246000fd5b6000601f19601f8301169050919050565b610e9581610d70565b8114610ea057600080fd5b5056fea26469706673582212204c1b4efbe172904c962236dd250a6e9583f06f18259667422bc4e2698265a5c064736f6c63430008000033a2646970667358221220c22524892dd9e257e8e4a66628d399ab4fe198393bc85d172d7a3a637b98350564736f6c63430008000033",
  "immutableReferences": {},
  "source": "// SPDX-License-Identifier: MIT\npragma solidity >=0.4.22 <0.9.0;\n\nimport \"./User.sol\";\nimport \"./IUser.sol\";\n\ncontract UserManager{\n\n    address public owner;\n\n    uint public contractCount = 0;\n    address[] public contractsAddresses;\n\n    constructor(){\n        owner = msg.sender;\n    }\n\n    modifier onlyOwner(){\n        require(msg.sender == owner, \"Only owner can call contract\");\n        _;\n    }\n\n    function create(string memory _name, uint _age, string memory _location) external onlyOwner{\n        contractCount += 1;\n        User user = new User(contractCount, _name, _age, _location);\n        contractsAddresses.push(address(user));\n    }\n\n    function updateName(uint _index, string memory _newName) external onlyOwner {\n        address contractAddress = contractsAddresses[_index];\n        IUser(contractAddress).updateName(_newName);\n    }\n\n    function updateAge(uint _index, uint _newAge) external onlyOwner {\n        address contractAddress = contractsAddresses[_index];\n        IUser(contractAddress).updateAge(_newAge);\n    }\n\n    function updateLocation(uint _index, string memory _newLocation) external onlyOwner {\n        address contractAddress = contractsAddresses[_index];\n        IUser(contractAddress).updateLocation(_newLocation);\n    }\n\n    function addToken(uint _index, string memory _tokenName, uint balance) external onlyOwner{\n        address contractAddress = contractsAddresses[_index];\n        IUser(contractAddress).addToken(_tokenName, balance);\n    }\n\n    function updateTokenBalance(uint _index, string memory _tokenName, uint _balance) external onlyOwner{\n        address contractAddress = contractsAddresses[_index];\n        IUser(contractAddress).updateTokenBalance(_tokenName, _balance);\n    }\n\n    function getId(uint _index) external view returns(uint){\n       address contractAddress = contractsAddresses[_index];\n       return IUser(contractAddress).id();\n    }\n\n    function getName(uint _index) external view returns(string memory){\n       address contractAddress = contractsAddresses[_index];\n       return IUser(contractAddress).name();\n    }\n\n    function getAge(uint _index) external view returns(uint){\n       address contractAddress = contractsAddresses[_index];\n       return IUser(contractAddress).age();\n    }\n\n    function getLocation(uint _index) external view returns(string memory){\n        address contractAddress = contractsAddresses[_index];\n        return IUser(contractAddress).location();\n    }\n\n    function tokenAvailable(uint _index, string memory tokenName) external view returns(bool){\n        address contractAddress = contractsAddresses[_index];\n        return IUser(contractAddress).tokenAdded(tokenName);\n    }\n\n    function tokenBalance(uint _index, string memory tokenName) external view returns(uint){\n        address contractAddress = contractsAddresses[_index];\n        return IUser(contractAddress).tokenBalances(tokenName);\n    }\n\n    function getContracts() external view returns(address[] memory){\n        return contractsAddresses;\n    }\n}\n",
  "sourcePath": "/Users/godspowereze/Documents/Projects/30DaysOfSolidity/Day_9_UserManagement/contracts/UserManager.sol",
  "compiler": {
    "name": "solc",
    "version": "0.8.0+commit.c7dfd78e.Emscripten.clang"
  },
  "schemaVersion": "3.4.3",
  "updatedAt": "2022-01-28T17:02:42.257Z",
  "devdoc": {
    "kind": "dev",
    "methods": {},
    "version": 1
  },
  "userdoc": {
    "kind": "user",
    "methods": {},
    "version": 1
  }
}