{
  "contractName": "User",
  "abi": [
    {
      "inputs": [
        {
          "internalType": "uint256",
          "name": "_id",
          "type": "uint256"
        },
        {
          "internalType": "string",
          "name": "_name",
          "type": "string"
        },
        {
          "internalType": "uint256",
          "name": "_age",
          "type": "uint256"
        },
        {
          "internalType": "string",
          "name": "_location",
          "type": "string"
        }
      ],
      "stateMutability": "nonpayable",
      "type": "constructor"
    },
    {
      "inputs": [],
      "name": "age",
      "outputs": [
        {
          "internalType": "uint256",
          "name": "",
          "type": "uint256"
        }
      ],
      "stateMutability": "view",
      "type": "function"
    },
    {
      "inputs": [],
      "name": "id",
      "outputs": [
        {
          "internalType": "uint256",
          "name": "",
          "type": "uint256"
        }
      ],
      "stateMutability": "view",
      "type": "function"
    },
    {
      "inputs": [],
      "name": "location",
      "outputs": [
        {
          "internalType": "string",
          "name": "",
          "type": "string"
        }
      ],
      "stateMutability": "view",
      "type": "function"
    },
    {
      "inputs": [],
      "name": "name",
      "outputs": [
        {
          "internalType": "string",
          "name": "",
          "type": "string"
        }
      ],
      "stateMutability": "view",
      "type": "function"
    },
    {
      "inputs": [],
      "name": "owner",
      "outputs": [
        {
          "internalType": "address",
          "name": "",
          "type": "address"
        }
      ],
      "stateMutability": "view",
      "type": "function"
    },
    {
      "inputs": [
        {
          "internalType": "string",
          "name": "",
          "type": "string"
        }
      ],
      "name": "tokenAdded",
      "outputs": [
        {
          "internalType": "bool",
          "name": "",
          "type": "bool"
        }
      ],
      "stateMutability": "view",
      "type": "function"
    },
    {
      "inputs": [
        {
          "internalType": "string",
          "name": "",
          "type": "string"
        }
      ],
      "name": "tokenBalances",
      "outputs": [
        {
          "internalType": "uint256",
          "name": "",
          "type": "uint256"
        }
      ],
      "stateMutability": "view",
      "type": "function"
    },
    {
      "inputs": [],
      "name": "userAddress",
      "outputs": [
        {
          "internalType": "address",
          "name": "",
          "type": "address"
        }
      ],
      "stateMutability": "view",
      "type": "function"
    },
    {
      "inputs": [
        {
          "internalType": "string",
          "name": "_newName",
          "type": "string"
        }
      ],
      "name": "updateName",
      "outputs": [],
      "stateMutability": "nonpayable",
      "type": "function"
    },
    {
      "inputs": [
        {
          "internalType": "uint256",
          "name": "_newAge",
          "type": "uint256"
        }
      ],
      "name": "updateAge",
      "outputs": [],
      "stateMutability": "nonpayable",
      "type": "function"
    },
    {
      "inputs": [
        {
          "internalType": "string",
          "name": "_newLocation",
          "type": "string"
        }
      ],
      "name": "updateLocation",
      "outputs": [],
      "stateMutability": "nonpayable",
      "type": "function"
    },
    {
      "inputs": [
        {
          "internalType": "string",
          "name": "_tokenName",
          "type": "string"
        },
        {
          "internalType": "uint256",
          "name": "balance",
          "type": "uint256"
        }
      ],
      "name": "addToken",
      "outputs": [],
      "stateMutability": "nonpayable",
      "type": "function"
    },
    {
      "inputs": [
        {
          "internalType": "string",
          "name": "_tokenName",
          "type": "string"
        },
        {
          "internalType": "uint256",
          "name": "_amount",
          "type": "uint256"
        }
      ],
      "name": "updateTokenBalance",
      "outputs": [],
      "stateMutability": "nonpayable",
      "type": "function"
    }
  ],
  "bytecode": "0x60806040523480156200001157600080fd5b506040516200160c3803806200160c83398181016040528101906200003791906200034c565b336000806101000a81548173ffffffffffffffffffffffffffffffffffffffff021916908373ffffffffffffffffffffffffffffffffffffffff16021790555030600160006101000a81548173ffffffffffffffffffffffffffffffffffffffff021916908373ffffffffffffffffffffffffffffffffffffffff160217905550836002819055508260039080519060200190620000d792919062000213565b50816004819055508060059080519060200190620000f792919062000213565b50600060066040516200010a90620004c7565b908152602001604051809103902081905550600160076040516200012e90620004c7565b908152602001604051809103902060006101000a81548160ff021916908315150217905550600060066040516200016590620004de565b908152602001604051809103902081905550600160076040516200018990620004de565b908152602001604051809103902060006101000a81548160ff02191690831515021790555060006006604051620001c090620004b0565b90815260200160405180910390208190555060016007604051620001e490620004b0565b908152602001604051809103902060006101000a81548160ff0219169083151502179055505050505062000655565b8280546200022190620005a7565b90600052602060002090601f01602090048101928262000245576000855562000291565b82601f106200026057805160ff191683800117855562000291565b8280016001018555821562000291579182015b828111156200029057825182559160200191906001019062000273565b5b509050620002a09190620002a4565b5090565b5b80821115620002bf576000816000905550600101620002a5565b5090565b6000620002da620002d48462000529565b620004f5565b905082815260208101848484011115620002f357600080fd5b6200030084828562000571565b509392505050565b600082601f8301126200031a57600080fd5b81516200032c848260208601620002c3565b91505092915050565b60008151905062000346816200063b565b92915050565b600080600080608085870312156200036357600080fd5b6000620003738782880162000335565b945050602085015167ffffffffffffffff8111156200039157600080fd5b6200039f8782880162000308565b9350506040620003b28782880162000335565b925050606085015167ffffffffffffffff811115620003d057600080fd5b620003de8782880162000308565b91505092959194509250565b6000620003f96004836200055c565b91507f55534454000000000000000000000000000000000000000000000000000000006000830152600482019050919050565b60006200043b6003836200055c565b91507f45544800000000000000000000000000000000000000000000000000000000006000830152600382019050919050565b60006200047d6003836200055c565b91507f42544300000000000000000000000000000000000000000000000000000000006000830152600382019050919050565b6000620004bd82620003ea565b9150819050919050565b6000620004d4826200042c565b9150819050919050565b6000620004eb826200046e565b9150819050919050565b6000604051905081810181811067ffffffffffffffff821117156200051f576200051e6200060c565b5b8060405250919050565b600067ffffffffffffffff8211156200054757620005466200060c565b5b601f19601f8301169050602081019050919050565b600081905092915050565b6000819050919050565b60005b838110156200059157808201518184015260208101905062000574565b83811115620005a1576000848401525b50505050565b60006002820490506001821680620005c057607f821691505b60208210811415620005d757620005d6620005dd565b5b50919050565b7f4e487b7100000000000000000000000000000000000000000000000000000000600052602260045260246000fd5b7f4e487b7100000000000000000000000000000000000000000000000000000000600052604160045260246000fd5b620006468162000567565b81146200065257600080fd5b50565b610fa780620006656000396000f3fe608060405234801561001057600080fd5b50600436106100ec576000357c0100000000000000000000000000000000000000000000000000000000900480638ca132f7116100a9578063af640d0f11610083578063af640d0f146101f5578063c0a027f414610213578063cb33903714610243578063e4128fb314610273576100ec565b80638ca132f71461019f5780638da5cb5b146101bb578063932354c1146101d9576100ec565b806306fdde03146100f15780630befcdb41461010f578063262a9dff1461012b578063516f279e146101495780637d625c071461016757806384da92a714610183575b600080fd5b6100f9610291565b6040516101069190610c85565b60405180910390f35b61012960048036038101906101249190610a3e565b61031f565b005b610133610453565b6040516101409190610d07565b60405180910390f35b610151610459565b60405161015e9190610c85565b60405180910390f35b610181600480360381019061017c9190610a92565b6104e7565b005b61019d600480360381019061019891906109fd565b61057f565b005b6101b960048036038101906101b49190610a3e565b610627565b005b6101c3610781565b6040516101d09190610c4f565b60405180910390f35b6101f360048036038101906101ee91906109fd565b6107a5565b005b6101fd61084d565b60405161020a9190610d07565b60405180910390f35b61022d600480360381019061022891906109fd565b610853565b60405161023a9190610d07565b60405180910390f35b61025d600480360381019061025891906109fd565b610881565b60405161026a9190610c6a565b60405180910390f35b61027b6108b7565b6040516102889190610c4f565b60405180910390f35b6003805461029e90610e8a565b80601f01602080910402602001604051908101604052809291908181526020018280546102ca90610e8a565b80156103175780601f106102ec57610100808354040283529160200191610317565b820191906000526020600020905b8154815290600101906020018083116102fa57829003601f168201915b505050505081565b60008054906101000a900473ffffffffffffffffffffffffffffffffffffffff1673ffffffffffffffffffffffffffffffffffffffff163373ffffffffffffffffffffffffffffffffffffffff16146103ad576040517f08c379a00000000000000000000000000000000000000000000000000000000081526004016103a490610cc7565b60405180910390fd5b816007816040516103be9190610c38565b908152602001604051809103902060009054906101000a900460ff16610419576040517f08c379a000000000000000000000000000000000000000000000000000000000815260040161041090610ce7565b60405180910390fd5b8160068460405161042a9190610c38565b908152602001604051809103902060008282546104479190610daa565b92505081905550505050565b60045481565b6005805461046690610e8a565b80601f016020809104026020016040519081016040528092919081815260200182805461049290610e8a565b80156104df5780601f106104b4576101008083540402835291602001916104df565b820191906000526020600020905b8154815290600101906020018083116104c257829003601f168201915b505050505081565b60008054906101000a900473ffffffffffffffffffffffffffffffffffffffff1673ffffffffffffffffffffffffffffffffffffffff163373ffffffffffffffffffffffffffffffffffffffff1614610575576040517f08c379a000000000000000000000000000000000000000000000000000000000815260040161056c90610cc7565b60405180910390fd5b8060048190555050565b60008054906101000a900473ffffffffffffffffffffffffffffffffffffffff1673ffffffffffffffffffffffffffffffffffffffff163373ffffffffffffffffffffffffffffffffffffffff161461060d576040517f08c379a000000000000000000000000000000000000000000000000000000000815260040161060490610cc7565b60405180910390fd5b80600390805190602001906106239291906108dd565b5050565b60008054906101000a900473ffffffffffffffffffffffffffffffffffffffff1673ffffffffffffffffffffffffffffffffffffffff163373ffffffffffffffffffffffffffffffffffffffff16146106b5576040517f08c379a00000000000000000000000000000000000000000000000000000000081526004016106ac90610cc7565b60405180910390fd5b816007816040516106c69190610c38565b908152602001604051809103902060009054906101000a900460ff1615610722576040517f08c379a000000000000000000000000000000000000000000000000000000000815260040161071990610ca7565b60405180910390fd5b816006846040516107339190610c38565b90815260200160405180910390208190555060016007846040516107579190610c38565b908152602001604051809103902060006101000a81548160ff021916908315150217905550505050565b60008054906101000a900473ffffffffffffffffffffffffffffffffffffffff1681565b60008054906101000a900473ffffffffffffffffffffffffffffffffffffffff1673ffffffffffffffffffffffffffffffffffffffff163373ffffffffffffffffffffffffffffffffffffffff1614610833576040517f08c379a000000000000000000000000000000000000000000000000000000000815260040161082a90610cc7565b60405180910390fd5b80600590805190602001906108499291906108dd565b5050565b60025481565b6006818051602081018201805184825260208301602085012081835280955050505050506000915090505481565b6007818051602081018201805184825260208301602085012081835280955050505050506000915054906101000a900460ff1681565b600160009054906101000a900473ffffffffffffffffffffffffffffffffffffffff1681565b8280546108e990610e8a565b90600052602060002090601f01602090048101928261090b5760008555610952565b82601f1061092457805160ff1916838001178555610952565b82800160010185558215610952579182015b82811115610951578251825591602001919060010190610936565b5b50905061095f9190610963565b5090565b5b8082111561097c576000816000905550600101610964565b5090565b600061099361098e84610d53565b610d22565b9050828152602081018484840111156109ab57600080fd5b6109b6848285610e48565b509392505050565b600082601f8301126109cf57600080fd5b81356109df848260208601610980565b91505092915050565b6000813590506109f781610f5a565b92915050565b600060208284031215610a0f57600080fd5b600082013567ffffffffffffffff811115610a2957600080fd5b610a35848285016109be565b91505092915050565b60008060408385031215610a5157600080fd5b600083013567ffffffffffffffff811115610a6b57600080fd5b610a77858286016109be565b9250506020610a88858286016109e8565b9150509250929050565b600060208284031215610aa457600080fd5b6000610ab2848285016109e8565b91505092915050565b610ac481610e00565b82525050565b610ad381610e12565b82525050565b6000610ae482610d83565b610aee8185610d8e565b9350610afe818560208601610e57565b610b0781610f49565b840191505092915050565b6000610b1d82610d83565b610b278185610d9f565b9350610b37818560208601610e57565b80840191505092915050565b6000610b50601883610d8e565b91507f546f6b656e20616c7265616479206265656e20616464656400000000000000006000830152602082019050919050565b6000610b90602183610d8e565b91507f4f6e6c79206f776e65722063616e2063616c6c20746869732066756e6374696f60008301527f6e000000000000000000000000000000000000000000000000000000000000006020830152604082019050919050565b6000610bf6601883610d8e565b91507f546f6b656e20686173206e6f74206265656e20616464656400000000000000006000830152602082019050919050565b610c3281610e3e565b82525050565b6000610c448284610b12565b915081905092915050565b6000602082019050610c646000830184610abb565b92915050565b6000602082019050610c7f6000830184610aca565b92915050565b60006020820190508181036000830152610c9f8184610ad9565b905092915050565b60006020820190508181036000830152610cc081610b43565b9050919050565b60006020820190508181036000830152610ce081610b83565b9050919050565b60006020820190508181036000830152610d0081610be9565b9050919050565b6000602082019050610d1c6000830184610c29565b92915050565b6000604051905081810181811067ffffffffffffffff82111715610d4957610d48610f1a565b5b8060405250919050565b600067ffffffffffffffff821115610d6e57610d6d610f1a565b5b601f19601f8301169050602081019050919050565b600081519050919050565b600082825260208201905092915050565b600081905092915050565b6000610db582610e3e565b9150610dc083610e3e565b9250827fffffffffffffffffffffffffffffffffffffffffffffffffffffffffffffffff03821115610df557610df4610ebc565b5b828201905092915050565b6000610e0b82610e1e565b9050919050565b60008115159050919050565b600073ffffffffffffffffffffffffffffffffffffffff82169050919050565b6000819050919050565b82818337600083830152505050565b60005b83811015610e75578082015181840152602081019050610e5a565b83811115610e84576000848401525b50505050565b60006002820490506001821680610ea257607f821691505b60208210811415610eb657610eb5610eeb565b5b50919050565b7f4e487b7100000000000000000000000000000000000000000000000000000000600052601160045260246000fd5b7f4e487b7100000000000000000000000000000000000000000000000000000000600052602260045260246000fd5b7f4e487b7100000000000000000000000000000000000000000000000000000000600052604160045260246000fd5b6000601f19601f8301169050919050565b610f6381610e3e565b8114610f6e57600080fd5b5056fea264697066735822122015df2f44c65faebe0ec58ddaf6960480c4a08af7cfad8bedba3ba5bbccde891564736f6c63430008000033",
  "immutableReferences": {},
  "source": "// SPDX-License-Identifier: MIT\npragma solidity >=0.4.22 <0.9.0;\n\ncontract User{\n    address public owner;\n    address public userAddress;\n\n    uint public id;\n\n    string public name;\n\n    uint public age;\n\n    string public location;\n\n    mapping(string => uint) public tokenBalances;\n    mapping(string => bool) public tokenAdded;\n\n    constructor(uint _id, string memory _name, uint _age, string memory _location){\n        owner = msg.sender;\n        userAddress = address(this);\n        id = _id;\n        name = _name;\n        age = _age;\n        location = _location;\n        tokenBalances[\"ETH\"] = 0;\n        tokenAdded[\"ETH\"] = true;\n        tokenBalances[\"BTC\"] = 0;\n        tokenAdded[\"BTC\"] = true;\n        tokenBalances[\"USDT\"] = 0;\n        tokenAdded[\"USDT\"] = true;\n    }\n\n    modifier onlyOwner(){\n        require(msg.sender == owner, \"Only owner can call this function\");\n        _;\n    }\n\n    modifier tokenAddedAlready(string memory _tokenName){\n        require(!tokenAdded[_tokenName], \"Token already been added\");\n        _;\n    }\n\n    modifier tokenNotAdded(string memory _tokenName){\n        require(tokenAdded[_tokenName], \"Token has not been added\");\n        _;\n    }\n\n\n    function updateName(string memory _newName) external onlyOwner{\n        name = _newName;\n    }\n\n    function updateAge(uint _newAge) external onlyOwner{\n        age = _newAge;\n    }\n\n    function updateLocation(string memory _newLocation) external onlyOwner{\n        location = _newLocation;\n    }\n\n    function addToken(string memory _tokenName, uint balance) external onlyOwner tokenAddedAlready(_tokenName){\n        tokenBalances[_tokenName] = balance;\n        tokenAdded[_tokenName] = true;\n    }\n\n    function updateTokenBalance(string memory _tokenName, uint _amount) external onlyOwner tokenNotAdded( _tokenName){\n        tokenBalances[_tokenName] += _amount;\n    }\n}",
  "sourcePath": "/Users/godspowereze/Documents/Projects/30DaysOfSolidity/Day_9_UserManagement/contracts/User.sol",
  "compiler": {
    "name": "solc",
    "version": "0.8.0+commit.c7dfd78e.Emscripten.clang"
  },
  "schemaVersion": "3.4.3",
  "updatedAt": "2022-02-07T11:50:19.617Z",
  "devdoc": {
    "kind": "dev",
    "methods": {},
    "version": 1
  },
  "userdoc": {
    "kind": "user",
    "methods": {},
    "version": 1
  }
}