{
  "contractName": "User",
  "abi": [
    {
      "inputs": [
        {
          "internalType": "uint256",
          "name": "_id",
          "type": "uint256"
        },
        {
          "internalType": "string",
          "name": "_name",
          "type": "string"
        },
        {
          "internalType": "uint256",
          "name": "_age",
          "type": "uint256"
        },
        {
          "internalType": "string",
          "name": "_location",
          "type": "string"
        }
      ],
      "stateMutability": "nonpayable",
      "type": "constructor"
    },
    {
      "inputs": [],
      "name": "age",
      "outputs": [
        {
          "internalType": "uint256",
          "name": "",
          "type": "uint256"
        }
      ],
      "stateMutability": "view",
      "type": "function"
    },
    {
      "inputs": [],
      "name": "id",
      "outputs": [
        {
          "internalType": "uint256",
          "name": "",
          "type": "uint256"
        }
      ],
      "stateMutability": "view",
      "type": "function"
    },
    {
      "inputs": [],
      "name": "location",
      "outputs": [
        {
          "internalType": "string",
          "name": "",
          "type": "string"
        }
      ],
      "stateMutability": "view",
      "type": "function"
    },
    {
      "inputs": [],
      "name": "name",
      "outputs": [
        {
          "internalType": "string",
          "name": "",
          "type": "string"
        }
      ],
      "stateMutability": "view",
      "type": "function"
    },
    {
      "inputs": [],
      "name": "owner",
      "outputs": [
        {
          "internalType": "address",
          "name": "",
          "type": "address"
        }
      ],
      "stateMutability": "view",
      "type": "function"
    },
    {
      "inputs": [
        {
          "internalType": "string",
          "name": "",
          "type": "string"
        }
      ],
      "name": "tokenAdded",
      "outputs": [
        {
          "internalType": "bool",
          "name": "",
          "type": "bool"
        }
      ],
      "stateMutability": "view",
      "type": "function"
    },
    {
      "inputs": [
        {
          "internalType": "string",
          "name": "",
          "type": "string"
        }
      ],
      "name": "tokenBalances",
      "outputs": [
        {
          "internalType": "uint256",
          "name": "",
          "type": "uint256"
        }
      ],
      "stateMutability": "view",
      "type": "function"
    },
    {
      "inputs": [],
      "name": "userAddress",
      "outputs": [
        {
          "internalType": "address",
          "name": "",
          "type": "address"
        }
      ],
      "stateMutability": "view",
      "type": "function"
    },
    {
      "inputs": [
        {
          "internalType": "string",
          "name": "_newName",
          "type": "string"
        }
      ],
      "name": "updateName",
      "outputs": [],
      "stateMutability": "nonpayable",
      "type": "function"
    },
    {
      "inputs": [
        {
          "internalType": "uint256",
          "name": "_newAge",
          "type": "uint256"
        }
      ],
      "name": "updateAge",
      "outputs": [],
      "stateMutability": "nonpayable",
      "type": "function"
    },
    {
      "inputs": [
        {
          "internalType": "string",
          "name": "_newLocation",
          "type": "string"
        }
      ],
      "name": "updateLocation",
      "outputs": [],
      "stateMutability": "nonpayable",
      "type": "function"
    },
    {
      "inputs": [
        {
          "internalType": "string",
          "name": "_tokenName",
          "type": "string"
        },
        {
          "internalType": "uint256",
          "name": "balance",
          "type": "uint256"
        }
      ],
      "name": "addToken",
      "outputs": [],
      "stateMutability": "nonpayable",
      "type": "function"
    },
    {
      "inputs": [
        {
          "internalType": "string",
          "name": "_tokenName",
          "type": "string"
        },
        {
          "internalType": "uint256",
          "name": "_balance",
          "type": "uint256"
        }
      ],
      "name": "updateTokenBalance",
      "outputs": [],
      "stateMutability": "nonpayable",
      "type": "function"
    }
  ],
  "bytecode": "0x60806040523480156200001157600080fd5b506040516200153e3803806200153e83398181016040528101906200003791906200034c565b336000806101000a81548173ffffffffffffffffffffffffffffffffffffffff021916908373ffffffffffffffffffffffffffffffffffffffff16021790555030600160006101000a81548173ffffffffffffffffffffffffffffffffffffffff021916908373ffffffffffffffffffffffffffffffffffffffff160217905550836002819055508260039080519060200190620000d792919062000213565b50816004819055508060059080519060200190620000f792919062000213565b50600060066040516200010a90620004c7565b908152602001604051809103902081905550600160076040516200012e90620004c7565b908152602001604051809103902060006101000a81548160ff021916908315150217905550600060066040516200016590620004de565b908152602001604051809103902081905550600160076040516200018990620004de565b908152602001604051809103902060006101000a81548160ff02191690831515021790555060006006604051620001c090620004b0565b90815260200160405180910390208190555060016007604051620001e490620004b0565b908152602001604051809103902060006101000a81548160ff0219169083151502179055505050505062000655565b8280546200022190620005a7565b90600052602060002090601f01602090048101928262000245576000855562000291565b82601f106200026057805160ff191683800117855562000291565b8280016001018555821562000291579182015b828111156200029057825182559160200191906001019062000273565b5b509050620002a09190620002a4565b5090565b5b80821115620002bf576000816000905550600101620002a5565b5090565b6000620002da620002d48462000529565b620004f5565b905082815260208101848484011115620002f357600080fd5b6200030084828562000571565b509392505050565b600082601f8301126200031a57600080fd5b81516200032c848260208601620002c3565b91505092915050565b60008151905062000346816200063b565b92915050565b600080600080608085870312156200036357600080fd5b6000620003738782880162000335565b945050602085015167ffffffffffffffff8111156200039157600080fd5b6200039f8782880162000308565b9350506040620003b28782880162000335565b925050606085015167ffffffffffffffff811115620003d057600080fd5b620003de8782880162000308565b91505092959194509250565b6000620003f96004836200055c565b91507f55534454000000000000000000000000000000000000000000000000000000006000830152600482019050919050565b60006200043b6003836200055c565b91507f45544800000000000000000000000000000000000000000000000000000000006000830152600382019050919050565b60006200047d6003836200055c565b91507f42544300000000000000000000000000000000000000000000000000000000006000830152600382019050919050565b6000620004bd82620003ea565b9150819050919050565b6000620004d4826200042c565b9150819050919050565b6000620004eb826200046e565b9150819050919050565b6000604051905081810181811067ffffffffffffffff821117156200051f576200051e6200060c565b5b8060405250919050565b600067ffffffffffffffff8211156200054757620005466200060c565b5b601f19601f8301169050602081019050919050565b600081905092915050565b6000819050919050565b60005b838110156200059157808201518184015260208101905062000574565b83811115620005a1576000848401525b50505050565b60006002820490506001821680620005c057607f821691505b60208210811415620005d757620005d6620005dd565b5b50919050565b7f4e487b7100000000000000000000000000000000000000000000000000000000600052602260045260246000fd5b7f4e487b7100000000000000000000000000000000000000000000000000000000600052604160045260246000fd5b620006468162000567565b81146200065257600080fd5b50565b610ed980620006656000396000f3fe608060405234801561001057600080fd5b50600436106100ec576000357c0100000000000000000000000000000000000000000000000000000000900480638ca132f7116100a9578063af640d0f11610083578063af640d0f146101f5578063c0a027f414610213578063cb33903714610243578063e4128fb314610273576100ec565b80638ca132f71461019f5780638da5cb5b146101bb578063932354c1146101d9576100ec565b806306fdde03146100f15780630befcdb41461010f578063262a9dff1461012b578063516f279e146101495780637d625c071461016757806384da92a714610183575b600080fd5b6100f9610291565b6040516101069190610bd7565b60405180910390f35b610129600480360381019061012491906109d0565b61031f565b005b6101336103e6565b6040516101409190610c39565b60405180910390f35b6101516103ec565b60405161015e9190610bd7565b60405180910390f35b610181600480360381019061017c9190610a24565b61047a565b005b61019d6004803603810190610198919061098f565b610512565b005b6101b960048036038101906101b491906109d0565b6105ba565b005b6101c3610713565b6040516101d09190610ba1565b60405180910390f35b6101f360048036038101906101ee919061098f565b610737565b005b6101fd6107df565b60405161020a9190610c39565b60405180910390f35b61022d6004803603810190610228919061098f565b6107e5565b60405161023a9190610c39565b60405180910390f35b61025d6004803603810190610258919061098f565b610813565b60405161026a9190610bbc565b60405180910390f35b61027b610849565b6040516102889190610ba1565b60405180910390f35b6003805461029e90610dbc565b80601f01602080910402602001604051908101604052809291908181526020018280546102ca90610dbc565b80156103175780601f106102ec57610100808354040283529160200191610317565b820191906000526020600020905b8154815290600101906020018083116102fa57829003601f168201915b505050505081565b60008054906101000a900473ffffffffffffffffffffffffffffffffffffffff1673ffffffffffffffffffffffffffffffffffffffff163373ffffffffffffffffffffffffffffffffffffffff16146103ad576040517f08c379a00000000000000000000000000000000000000000000000000000000081526004016103a490610c19565b60405180910390fd5b806006836040516103be9190610b8a565b908152602001604051809103902060008282546103db9190610cdc565b925050819055505050565b60045481565b600580546103f990610dbc565b80601f016020809104026020016040519081016040528092919081815260200182805461042590610dbc565b80156104725780601f1061044757610100808354040283529160200191610472565b820191906000526020600020905b81548152906001019060200180831161045557829003601f168201915b505050505081565b60008054906101000a900473ffffffffffffffffffffffffffffffffffffffff1673ffffffffffffffffffffffffffffffffffffffff163373ffffffffffffffffffffffffffffffffffffffff1614610508576040517f08c379a00000000000000000000000000000000000000000000000000000000081526004016104ff90610c19565b60405180910390fd5b8060048190555050565b60008054906101000a900473ffffffffffffffffffffffffffffffffffffffff1673ffffffffffffffffffffffffffffffffffffffff163373ffffffffffffffffffffffffffffffffffffffff16146105a0576040517f08c379a000000000000000000000000000000000000000000000000000000000815260040161059790610c19565b60405180910390fd5b80600390805190602001906105b692919061086f565b5050565b60008054906101000a900473ffffffffffffffffffffffffffffffffffffffff1673ffffffffffffffffffffffffffffffffffffffff163373ffffffffffffffffffffffffffffffffffffffff1614610648576040517f08c379a000000000000000000000000000000000000000000000000000000000815260040161063f90610c19565b60405180910390fd5b816007816040516106599190610b8a565b908152602001604051809103902060009054906101000a900460ff166106b4576040517f08c379a00000000000000000000000000000000000000000000000000000000081526004016106ab90610bf9565b60405180910390fd5b816006846040516106c59190610b8a565b90815260200160405180910390208190555060016007846040516106e99190610b8a565b908152602001604051809103902060006101000a81548160ff021916908315150217905550505050565b60008054906101000a900473ffffffffffffffffffffffffffffffffffffffff1681565b60008054906101000a900473ffffffffffffffffffffffffffffffffffffffff1673ffffffffffffffffffffffffffffffffffffffff163373ffffffffffffffffffffffffffffffffffffffff16146107c5576040517f08c379a00000000000000000000000000000000000000000000000000000000081526004016107bc90610c19565b60405180910390fd5b80600590805190602001906107db92919061086f565b5050565b60025481565b6006818051602081018201805184825260208301602085012081835280955050505050506000915090505481565b6007818051602081018201805184825260208301602085012081835280955050505050506000915054906101000a900460ff1681565b600160009054906101000a900473ffffffffffffffffffffffffffffffffffffffff1681565b82805461087b90610dbc565b90600052602060002090601f01602090048101928261089d57600085556108e4565b82601f106108b657805160ff19168380011785556108e4565b828001600101855582156108e4579182015b828111156108e35782518255916020019190600101906108c8565b5b5090506108f191906108f5565b5090565b5b8082111561090e5760008160009055506001016108f6565b5090565b600061092561092084610c85565b610c54565b90508281526020810184848401111561093d57600080fd5b610948848285610d7a565b509392505050565b600082601f83011261096157600080fd5b8135610971848260208601610912565b91505092915050565b60008135905061098981610e8c565b92915050565b6000602082840312156109a157600080fd5b600082013567ffffffffffffffff8111156109bb57600080fd5b6109c784828501610950565b91505092915050565b600080604083850312156109e357600080fd5b600083013567ffffffffffffffff8111156109fd57600080fd5b610a0985828601610950565b9250506020610a1a8582860161097a565b9150509250929050565b600060208284031215610a3657600080fd5b6000610a448482850161097a565b91505092915050565b610a5681610d32565b82525050565b610a6581610d44565b82525050565b6000610a7682610cb5565b610a808185610cc0565b9350610a90818560208601610d89565b610a9981610e7b565b840191505092915050565b6000610aaf82610cb5565b610ab98185610cd1565b9350610ac9818560208601610d89565b80840191505092915050565b6000610ae2601383610cc0565b91507f546f6b656e20616c7265616479206164646564000000000000000000000000006000830152602082019050919050565b6000610b22602183610cc0565b91507f4f6e6c79206f776e65722063616e2063616c6c207468697320636f6e7472616360008301527f74000000000000000000000000000000000000000000000000000000000000006020830152604082019050919050565b610b8481610d70565b82525050565b6000610b968284610aa4565b915081905092915050565b6000602082019050610bb66000830184610a4d565b92915050565b6000602082019050610bd16000830184610a5c565b92915050565b60006020820190508181036000830152610bf18184610a6b565b905092915050565b60006020820190508181036000830152610c1281610ad5565b9050919050565b60006020820190508181036000830152610c3281610b15565b9050919050565b6000602082019050610c4e6000830184610b7b565b92915050565b6000604051905081810181811067ffffffffffffffff82111715610c7b57610c7a610e4c565b5b8060405250919050565b600067ffffffffffffffff821115610ca057610c9f610e4c565b5b601f19601f8301169050602081019050919050565b600081519050919050565b600082825260208201905092915050565b600081905092915050565b6000610ce782610d70565b9150610cf283610d70565b9250827fffffffffffffffffffffffffffffffffffffffffffffffffffffffffffffffff03821115610d2757610d26610dee565b5b828201905092915050565b6000610d3d82610d50565b9050919050565b60008115159050919050565b600073ffffffffffffffffffffffffffffffffffffffff82169050919050565b6000819050919050565b82818337600083830152505050565b60005b83811015610da7578082015181840152602081019050610d8c565b83811115610db6576000848401525b50505050565b60006002820490506001821680610dd457607f821691505b60208210811415610de857610de7610e1d565b5b50919050565b7f4e487b7100000000000000000000000000000000000000000000000000000000600052601160045260246000fd5b7f4e487b7100000000000000000000000000000000000000000000000000000000600052602260045260246000fd5b7f4e487b7100000000000000000000000000000000000000000000000000000000600052604160045260246000fd5b6000601f19601f8301169050919050565b610e9581610d70565b8114610ea057600080fd5b5056fea26469706673582212204c1b4efbe172904c962236dd250a6e9583f06f18259667422bc4e2698265a5c064736f6c63430008000033",
  "immutableReferences": {},
  "source": "// SPDX-License-Identifier: MIT\npragma solidity >=0.4.22 <0.9.0;\n\ncontract User{\n    address public owner;\n    address public userAddress;\n\n    uint public id;\n\n    string public name;\n\n    uint public age;\n\n    string public location;\n\n    mapping(string => uint) public tokenBalances;\n    mapping(string => bool) public tokenAdded;\n\n    constructor(uint _id, string memory _name, uint _age, string memory _location){\n        owner = msg.sender;\n        userAddress = address(this);\n        id = _id;\n        name = _name;\n        age = _age;\n        location = _location;\n        tokenBalances[\"ETH\"] = 0;\n        tokenAdded[\"ETH\"] = true;\n        tokenBalances[\"BTC\"] = 0;\n        tokenAdded[\"BTC\"] = true;\n        tokenBalances[\"USDT\"] = 0;\n        tokenAdded[\"USDT\"] = true;\n    }\n\n    modifier onlyOwner(){\n        require(msg.sender == owner, \"Only owner can call this contract\");\n        _;\n    }\n\n    modifier tokenAddedAlready(string memory _tokenName){\n        require(tokenAdded[_tokenName], \"Token already added\");\n        _;\n    }\n\n    function updateName(string memory _newName) external onlyOwner{\n        name = _newName;\n    }\n\n    function updateAge(uint _newAge) external onlyOwner{\n        age = _newAge;\n    }\n\n    function updateLocation(string memory _newLocation) external onlyOwner{\n        location = _newLocation;\n    }\n\n    function addToken(string memory _tokenName, uint balance) external onlyOwner tokenAddedAlready(_tokenName){\n        tokenBalances[_tokenName] = balance;\n        tokenAdded[_tokenName] = true;\n    }\n\n    function updateTokenBalance(string memory _tokenName, uint _balance) external onlyOwner{\n        tokenBalances[_tokenName] += _balance;\n    }\n}",
  "sourcePath": "/Users/godspowereze/Documents/Projects/30DaysOfSolidity/Day_9_UserManagement/contracts/User.sol",
  "compiler": {
    "name": "solc",
    "version": "0.8.0+commit.c7dfd78e.Emscripten.clang"
  },
  "schemaVersion": "3.4.3",
  "updatedAt": "2022-01-28T17:02:42.255Z",
  "devdoc": {
    "kind": "dev",
    "methods": {},
    "version": 1
  },
  "userdoc": {
    "kind": "user",
    "methods": {},
    "version": 1
  }
}