{
  "contractName": "Exchange",
  "abi": [
    {
      "inputs": [
        {
          "internalType": "address",
          "name": "token1",
          "type": "address"
        },
        {
          "internalType": "address",
          "name": "token2",
          "type": "address"
        },
        {
          "internalType": "address",
          "name": "ownerOfToken1",
          "type": "address"
        },
        {
          "internalType": "address",
          "name": "ownerOfToken2",
          "type": "address"
        },
        {
          "internalType": "uint256",
          "name": "amountOfToken1",
          "type": "uint256"
        },
        {
          "internalType": "uint256",
          "name": "amountOfToken2",
          "type": "uint256"
        }
      ],
      "name": "swap",
      "outputs": [],
      "stateMutability": "nonpayable",
      "type": "function"
    }
  ],
  "bytecode": "0x608060405234801561001057600080fd5b5061074a806100206000396000f3fe608060405234801561001057600080fd5b5060043610610048576000357c010000000000000000000000000000000000000000000000000000000090048063a64e3dd71461004d575b600080fd5b610067600480360381019061006291906103b1565b610069565b005b858585858585818673ffffffffffffffffffffffffffffffffffffffff1663dd62ed3e86306040518363ffffffff167c01000000000000000000000000000000000000000000000000000000000281526004016100c79291906105b6565b60206040518083038186803b1580156100df57600080fd5b505afa1580156100f3573d6000803e3d6000fd5b505050506040513d601f19601f820116820180604052508101906101179190610463565b1015610158576040517f08c379a000000000000000000000000000000000000000000000000000000000815260040161014f90610656565b60405180910390fd5b808573ffffffffffffffffffffffffffffffffffffffff1663dd62ed3e85306040518363ffffffff167c01000000000000000000000000000000000000000000000000000000000281526004016101b09291906105b6565b60206040518083038186803b1580156101c857600080fd5b505afa1580156101dc573d6000803e3d6000fd5b505050506040513d601f19601f820116820180604052508101906102009190610463565b1015610241576040517f08c379a000000000000000000000000000000000000000000000000000000000815260040161023890610616565b60405180910390fd5b61024d8c8b8b8b610267565b6102598b8a8c8a610267565b505050505050505050505050565b60008473ffffffffffffffffffffffffffffffffffffffff166323b872dd8585856040518463ffffffff167c01000000000000000000000000000000000000000000000000000000000281526004016102c2939291906105df565b602060405180830381600087803b1580156102dc57600080fd5b505af11580156102f0573d6000803e3d6000fd5b505050506040513d601f19601f82011682018060405250810190610314919061043a565b905080610356576040517f08c379a000000000000000000000000000000000000000000000000000000000815260040161034d90610636565b60405180910390fd5b5050505050565b60008135905061036c816106cf565b92915050565b600081519050610381816106e6565b92915050565b600081359050610396816106fd565b92915050565b6000815190506103ab816106fd565b92915050565b60008060008060008060c087890312156103ca57600080fd5b60006103d889828a0161035d565b96505060206103e989828a0161035d565b95505060406103fa89828a0161035d565b945050606061040b89828a0161035d565b935050608061041c89828a01610387565b92505060a061042d89828a01610387565b9150509295509295509295565b60006020828403121561044c57600080fd5b600061045a84828501610372565b91505092915050565b60006020828403121561047557600080fd5b60006104838482850161039c565b91505092915050565b61049581610687565b82525050565b60006104a8603f83610676565b91507f5468697320636f6e7472616374206973206e6f7420617070726f76656420746f60008301527f207370656e64207468697320616d6f756e742066726f6d20746f6b656e2032006020830152604082019050919050565b600061050e601583610676565b91507f546f6b656e207472616e73666572206661696c656400000000000000000000006000830152602082019050919050565b600061054e603f83610676565b91507f5468697320636f6e7472616374206973206e6f7420617070726f76656420746f60008301527f207370656e64207468697320616d6f756e742066726f6d20746f6b656e2031006020830152604082019050919050565b6105b0816106c5565b82525050565b60006040820190506105cb600083018561048c565b6105d8602083018461048c565b9392505050565b60006060820190506105f4600083018661048c565b610601602083018561048c565b61060e60408301846105a7565b949350505050565b6000602082019050818103600083015261062f8161049b565b9050919050565b6000602082019050818103600083015261064f81610501565b9050919050565b6000602082019050818103600083015261066f81610541565b9050919050565b600082825260208201905092915050565b6000610692826106a5565b9050919050565b60008115159050919050565b600073ffffffffffffffffffffffffffffffffffffffff82169050919050565b6000819050919050565b6106d881610687565b81146106e357600080fd5b50565b6106ef81610699565b81146106fa57600080fd5b50565b610706816106c5565b811461071157600080fd5b5056fea2646970667358221220b6253643b103595943add27b2beae16306c63b65436da9471c62ac84c3f18edb64736f6c63430008000033",
  "immutableReferences": {},
  "source": "// SPDX-License-Identifier: MIT\npragma solidity >=0.4.22 <0.9.0;\n\nimport \"./IERC20.sol\";\n\ncontract Exchange {\n\n    modifier onlyApproved\n    (\n        address token1,\n        address token2,\n        address ownerOfToken1,\n        address ownerOfToken2,\n        uint amountOfToken1,\n        uint amountOfToken2\n    )\n    {\n        require\n        (\n            IBasicERC20Token(token1).allowance(ownerOfToken1, address(this)) >= amountOfToken1,\n            \"This contract is not approved to spend this amount from token 1\"\n        );\n        require\n        (\n            IBasicERC20Token(token2).allowance(ownerOfToken2, address(this)) >= amountOfToken2,\n            \"This contract is not approved to spend this amount from token 2\"\n        );\n        _;\n    }\n\n    function _safeTransferFrom\n    (\n        address tokenAddress,\n        address sender,\n        address recipient,\n        uint amount\n    ) private {\n        bool sent = IBasicERC20Token(tokenAddress).transferFrom(sender, recipient, amount);\n        require(sent, \"Token transfer failed\");\n    }\n\n    function swap\n    (\n        address token1,\n        address token2,\n        address ownerOfToken1,\n        address ownerOfToken2,\n        uint amountOfToken1,\n        uint amountOfToken2\n    )\n    external\n    onlyApproved\n    (\n        token1,\n        token2,\n        ownerOfToken1,\n        ownerOfToken2,\n        amountOfToken1,\n        amountOfToken2\n    )\n    {\n        _safeTransferFrom(token1, ownerOfToken1, ownerOfToken2, amountOfToken1);\n        _safeTransferFrom(token2, ownerOfToken2, ownerOfToken1, amountOfToken2);\n    }\n}",
  "sourcePath": "/Users/godspowereze/Documents/Projects/30DaysOfSolidity/Day_11_Exchange/contracts/Exchange.sol",
  "compiler": {
    "name": "solc",
    "version": "0.8.0+commit.c7dfd78e.Emscripten.clang"
  },
  "schemaVersion": "3.4.3",
  "updatedAt": "2022-02-12T07:44:39.783Z",
  "devdoc": {
    "kind": "dev",
    "methods": {},
    "version": 1
  },
  "userdoc": {
    "kind": "user",
    "methods": {},
    "version": 1
  }
}